:020000040802F0
:10000000301100209D010208472E02083D280208F9
:10001000452E0208A10902088D34020800000000E4
:100020000000000000000000000000004B2E02084D
:100030000D14020800000000492E0208552F020886
:10004000B7010208B7010208B7010208B7010208A8
:10005000B7010208B7010208B7010208B701020898
:10006000B7010208B7010208B7010208B701020888
:10007000BD090208B7010208C9090208B701020850
:10008000B7010208B7010208B7010208B701020868
:10009000B7010208B7010208B7010208B701020858
:1000A000B7010208B7010208B7010208B701020848
:1000B000B7010208B7010208B7010208B701020838
:1000C000B7010208B7010208B7010208B701020828
:1000D000B701020835340208B701020841340208AA
:1000E000B7010208B7010208B7010208B701020808
:1000F000B7010208B7010208B7010208B7010208F8
:10010000B7010208B7010208B7010208B7010208E7
:10011000B7010208B7010208B7010208B7010208D7
:10012000B7010208B7010208B7010208B7010208C7
:10013000B7010208B7010208B7010208B7010208B7
:10014000B7010208B7010208B7010208B7010208A7
:10015000B7010208B7010208B7010208B701020897
:10016000B7010208B7010208B7010208B701020887
:10017000B7010208B7010208B70102080000000039
:10018000B7010208B7010208DFF80CD000F046FA08
:1001900000480047693802083011002006488047AF
:1001A00006480047FEE7FEE7FEE7FEE7FEE7FEE75C
:1001B000FEE7FEE7FEE7FEE7ED2F020889010208F1
:1001C0002DE9F05F0546002092469B46884606468C
:1001D000814640241BE0284641464746224600F01F
:1001E000CAF953465A46C01A914110D311461846CF
:1001F000224600F0B1F92D1A67EB01084F4622465E
:100200000120002100F0A8F917EB00094E41201E43
:10021000A4F10104DFDC484631462A464346BDE8E6
:10022000F09F40EA01039B0703D009E008C9121FB1
:1002300008C0042AFAD203E011F8013B00F8013BA0
:10024000521EF9D27047D2B201E000F8012B491ECC
:10025000FBD270470022F6E710B513460A46044663
:100260001946FFF7F0FF204610BD30B505462A4677
:100270000B4612F8010B13F8014B08B1A042F8D05D
:100280001CB1002802D06D1CF1E7284630BD421C8D
:1002900010F8011B0029FBD1801A704730B50446C5
:1002A0000020034600E05B1C934203D2E05CCD5C7F
:1002B000401BF8D030BD034611F8012B00F8012B8C
:1002C000002AF9D1184670470FB400B58DB010A9B7
:1002D00009900B9000914FF0FF300A9000200C9095
:1002E00005480690054807906A4609A80F9900F04E
:1002F00067F90DB05DF814FBDD050208FB05020887
:100300002DE9FF5F1D464FF0FF3BD5E901469146C1
:100310005F464FF00008A9697F1C01988847296A49
:10032000824688470028F6D1BAF1FF3F0CD024F46A
:10033000C064002E19DD600614D5BAF12B0F09D068
:10034000BAF12D0F0ED103E0584604B0BDE8F09F7E
:1003500044F48064A9697F1C01988847761E824610
:10036000002E02DDBAF1300F03D0B9F1000F26D014
:1003700032E0A969761E44F400747F1C0198884716
:100380008246002E05DDBAF1780F06D0BAF1580F7B
:1003900003D0B9F1000F10D01EE0B9F1000F02D068
:1003A000B9F1100F18D1A969761E24F400747F1CCE
:1003B000019888478246102002E0082000E00A20C9
:1003C000814609E008FB0908A969761E44F4007417
:1003D0007F1C019888478246002E05DD494650461D
:1003E00000F0D9F80028EDDAE96901988847A005FE
:1003F00002D46FF00100A8E7E00725D1600613D50D
:10040000600502D5C8F1000000E0404629680A1DD9
:100410002A600968220501D5087015E0220701D578
:10042000088011E008600FE02868011D296000685D
:10043000210502D580F8008006E0210702D5A0F84A
:10044000008001E0C0F8008038467EE72DE9FF5FBC
:10045000D2E901A74FF00008916999461446DDF8EA
:1004600038B0464601988847054659EA0B0005D042
:1004700009E0A169761C019888470546216A28464B
:1004800088470028F5D1681C03D05FEACA7005D000
:1004900015E04FF0FF3004B0BDE8F09F2068011D6B
:1004A0002160D0F800800AE05FEACA7001D108F844
:1004B000015BA169761C7F1E019888470546002FC5
:1004C0001ADD681C18D0B9F1000F0DD0E81705EB44
:1004D000D060421120F01F0059F822102A1A012082
:1004E00090400142E0D107E0BBF1000FDCD1216A6E
:1004F000284688470028D7D0E16901988847BBF192
:10050000000F07D1002E05DD5FEACA7002D100217D
:1005100088F80010A068B84203DDBBF1000F03D0DB
:1005200017B16FF00100B6E73046B4E730B50B46BF
:10053000014600202022012409E021FA02F59D4213
:1005400005D303FA02F5491B04FA02F52844151EE7
:10055000A2F10102F1DC30BD202A04DB203A00FACE
:1005600002F1002070479140C2F1200320FA03F30A
:10057000194390407047202A04DB203A21FA02F008
:100580000021704721FA02F3D040C2F120029140CD
:100590000843194670473A2800D2303820F020022C
:1005A000412A01D3A2F13700884201D34FF0FF3036
:1005B00070470000026811441378016018467047C4
:1005C000D160044951610449116200211161114651
:1005D00000F03CB8B505020841060208426842B185
:1005E000016811F8013B23B1521EC0E90012184600
:1005F00070470121C160881E704742685AB1C368C4
:10060000016843B983688B4205D0491E521CC0E97A
:100610000012002070474FF0FF307047064C074D26
:1006200006E0E06840F0010394E8070098471034C2
:10063000AC42F6D3FFF7ACFD583D0208783D020806
:10064000C0B24FF4F05100F097B900002DE9F34F1C
:100650008BB04FF0000801F10C000C464FF0010B7D
:1006600046460DF1080A0190626901210198904700
:10067000051E2DD0252D2CD0216A8847C0B1626976
:10068000012101989047216A88470028F7D1411E2F
:1006900062690198904700E0761CA1690B98884731
:1006A000216A88470028F7D1E1690B988847DBE782
:1006B000A1690B9888470746A84201D1761CD3E769
:1006C000E1690B9888477F1C02D1B8F1000F6FD009
:1006D00046E1002762693D463946019890472A283D
:1006E00004D162690121019890470125DFF88492C5
:1006F0006269012101989047A0F130010A290AD2CC
:100700004F45E5DC07EB870100EB4107303FDFD4C5
:1007100045F01005ECE7E90601D46FF000476C28BE
:100720000AD04C2814D0682815D06A280DD0742817
:100730001CD07A281AD01DE06269012101989047E7
:100740006C2802D045F0040514E045F002050DE0E8
:1007500045F020050AE06269012101989047682868
:1007600002D045F0080505E045F400656269012105
:1007700001989047C4E9015765283DD019DC5828F5
:100780007AD00CDC452837D004DC252826D0412837
:1007900031D131E046282FD047282CD12CE05B28DE
:1007A00077D0612828D063287CD0642823D15AE0F0
:1007B000D0E06F2848D008DC66281DD067281BD001
:1007C000692821D06E2816D127E0702845D07328DB
:1007D00068D0752847D078280DD14DE0A1690B98D5
:1007E0008847054625283FF469AFE1690B9888479B
:1007F0006D1C3FF46AAFB3E023466A466FF0010018
:100800000B99AFF300809EE045F040006060A807C0
:1008100023464FF0000236D43EE0E8077FF447AFAE
:100820002068011D21600068290501D506701BE7BD
:10083000290701D5068017E7A90703D5F117C0E9F5
:10084000006111E706600FE745F040006060A8070F
:1008500023464FF0080216D41EE040F60E0125EAAA
:100860000100606016E045F040006060A807234684
:100870004FF00A0207D40FE045F040006060A8077F
:1008800008D5234610226FF001000B99AFF30080CA
:1008900059E007E0234610226FF001000B99FFF7A3
:1008A0002FFD50E04FF000094F464B46632802D021
:1008B0005B2806D040E0E80601D40120A0600127B3
:1008C0003AE062690121019890475E2805D14FF016
:1008D00001096269494601989047216939B90021A7
:1008E0000A46534643F82120491C0829FADBB0B3D5
:1008F000216969B9C11700EBD16253110AEB830179
:1009000022F01F02821A01200B68904003430B6003
:1009100062690121019890475D28E8D1B9F1000F83
:1009200009D00020514651F82020D24341F8202020
:10093000401C0828F7DB02AB224600976FF001004D
:100940000B99FFF783FD00280CDA401C08D1BBF19E
:10095000000F05D04FF0FF300DB0BDE8F08FFFE77E
:100960004046F9E7E90701D108F1010806444FF0D4
:10097000000B79E6CCCCCC0C7F2801D9002208E012
:10098000064A02EB5002C007127800D1120902F0A9
:100990000F0201209040084070470000A83A02086A
:1009A000FEE7000008B54FF0AA300090012269462A
:1009B000014800F0DBFD08BDFCFF0D08014800F018
:1009C00049BE000078010020014800F043BE00004D
:1009D000D801002001681823CAB2103AB2FBF3F222
:1009E000054B6FF30901032A9B5CC36500D9091D00
:1009F0008165084670470000883A020810B5014634
:100A000000208B698A6A4FF0C07453B1B3F5005F60
:100A100015D072B1012A0CD0022A0AD0032A09D1BA
:100A200004E01AB1012A06D0022A03D1C96AC90119
:100A300000D5012010BDC96AA142FAD010BD002A1C
:100A4000F7D0012AF2D0022AF3D0032AF3D010BD46
:100A500030B50468256825F4802525600468636046
:100A60008368402B036803D099600068C26030BD82
:100A70009A600068C16030BD2DE9F04105242BA1CA
:100A80002F4802F005FD82B24FF6FF7633462C491F
:100A90002C4801F079FE2C4D4FF47A780027284835
:100AA0002AA1C83002F0F4FC254982B23346C8318D
:100AB000274801F069FE224626A1214802F0E8FC01
:100AC00082B233461E491F4801F05EFE404600F0E8
:100AD00033FF641E14F0FF041FD0287A0028DED0F4
:100AE0002F72686800786128D9D11EA1144802F0DD
:100AF000CFFC82B233461249124801F045FE10483D
:100B00001CA1C83002F0C4FC82B20D491048334623
:100B1000C831BDE8F04101F037BE17A1084802F026
:100B2000B7FC82B2334606490648F2E7BDF8C8EB87
:100B3000D6B8C1EEC4A3CABD2E2E2E0D0A000000E9
:100B400058020020F0000020000000202B2B2B007A
:100B500034010020CAA3D3E02564732E2E2E0D0A83
:100B600000000000CDCBB3F6CDB8B4ABC4A3CABD72
:100B70000D0A000061000000BDF8C8EBD6B8C1EE58
:100B8000C4A3CABDCAA7B0DC210D0A0010B506A1D6
:100B9000084802F07DFC82B2BDE810404FF6FF73BA
:100BA0000449054801F0F0BD41542B454E544D0D0C
:100BB0000A0000002003002034010020F8B52B4D6E
:100BC0002B492B1F1A1F0095FFF77EFB4FF6FF7670
:100BD00003280CD027A12D4802F05AFC01B033465F
:100BE000BDE8F04082B22949294801F0CDBD294C29
:100BF00029A12648D4F80C2402F04AFC82B23346DC
:100C00002249234801F0C0FD28A12048D4F810242F
:100C100002F03EFC82B233461C491D4801F0B4FD8F
:100C20002A4626A1194802F033FC82B233461749FE
:100C3000174801F0A9FDD4F80C044FF0010110F0A1
:100C4000FF0F4FEAE07200EB12600DD001EB2020A5
:100C500004F5846203C24FF48070C4F82804BDE830
:100C6000F840002100F034B80012F1E72809002014
:100C7000E83A0208CCE1C8A14F5441B9CCBCFED03F
:100C8000C5CFA2CAA7B0DC210D0A0000580200207F
:100C9000F0000020140500204F5441B9CCBCFEB434
:100CA000F3D0A13A25640D0A000000004F5441B969
:100CB000CCBCFE49443A25640D0A00004F5441B9AA
:100CC000CCBCFEB0E6B1BE3A25730D0A00000000B0
:100CD00030B5C1B00C4605464FF4807101A8FFF74E
:100CE000B9FA0094134C2B461349D4F8102401A8E8
:100CF00004F5826402F0CCFBD4E904320FA113485E
:100D000002F0C6FB82B24FF6FF731049104801F0A3
:100D10003BFD104B10A1A3F11E02174802F0B8FBD7
:100D200001A9154801F0B4FE4FF4967000F004FEDE
:100D300041B030BD14050020CC3B0208B5B1C7B0AE
:100D4000B5DA25642F2564B4CE0D0A0058020020C0
:100D5000F00000200C0B00202F7379732F25732FC8
:100D600025732F7468696E672F66696C652F646FD1
:100D7000776E6C6F61640000E80300200A4610B5CE
:100D800001464FF6FF73044801F0FEFC08B1002055
:100D900010BD012010BD00003401002000B5A1B03D
:100DA00080216846FFF756FA10A212A1684602F0A9
:100DB0006FFB1A4B1AA1A3F11E02204802F068FB38
:100DC00069461E4801F0BAFE64211C48FFF742FA4A
:100DD00006A21BA11F4802F05BFB82B24FF6FF7315
:100DE0001C491D4801F0D0FC21B000BD56302E3109
:100DF000000000007B226964223A202231222C224A
:100E0000706172616D73223A207B2276657273691C
:100E10006F6E223A20222573227D7D000C0B00206C
:100E20002F6F74612F6465766963652F696E666FD5
:100E3000726D2F25732F257300000000E80300203A
:100E4000C9CFB1A8B0E6B1BEBAC5A3BA25730D0A21
:100E50000000000058020020F000002010B530A271
:100E60003BA13F4802F014FB82B24FF6FF742346C9
:100E70003B493C4801F088FC1E2000F05DFD3AA192
:100E8000374802F005FB82B223463549354801F068
:100E90007BFC1E2000F050FD37A1314802F0F8FA2B
:100EA00082B223462E492F4801F06EFC1E2000F02E
:100EB00043FD36A12A4802F0EBFA82B223462849C4
:100EC000284801F061FC1E2000F036FD34A12448C2
:100ED00002F0DEFA82B223462149224801F054FC96
:100EE0001E2000F029FD33A11D4802F0D1FA82B284
:100EF00023461B491B4801F047FC1E2000F01CFD47
:100F000034A1174802F0C4FA82B2234614491548A6
:100F100001F03AFCBDE810401E2000F00DBD0000BD
:100F20005443502C696F742D3036306137307471F2
:100F30002E6D7174742E696F746875622E616C69A0
:100F400079756E63732E636F6D2C31383833000002
:100F500041542B534F434B413D25730D0A00000074
:100F6000200300203401002041542B534F434B41B8
:100F7000454E3D4F4E0D0A0041542B534F434B42BB
:100F8000454E3D4F46460D0A0000000041542B538C
:100F90004F434B43454E3D4F46460D0A000000006F
:100FA00041542B534F434B44454E3D4F46460D0A4B
:100FB0000000000041542B48454152543D4F4E2CF7
:100FC0004E45542C555345522C36302C433030303E
:100FD0000D0A000041542B530D0A00002DE9F04783
:100FE0000E4605464FF6FF78052902D00F2E15D084
:100FF00019E0062293A1FFF751F9A0B993A19B48EC
:1010000002F046FA82B243469849994801F0BCFB87
:10101000FFF724FFBDE8F047FFF7B8BD0F2295A109
:10102000FFF73CF968B10A2296A12846FFF736F986
:10103000974C40B1DFF85C92A4F11E07042E1ED03D
:1010400020E095A181E001F001FF224696A18748AA
:1010500002F01EFA82B2444643468449844801F0B5
:1010600093FB95A1814802F013FA82B223467F498F
:101070007F4801F089FBBDE8F04701F0E1BB28782B
:10108000202806D099F8000000287DD0052E35D004
:1010900037E0E87808B18DA140E092A1734802F0F2
:1010A000F7F982B243467149714801F06DFB0121A5
:1010B00089F8001023463A4690A1974802F0E8F9D3
:1010C000954801F0C5FD64219348FFF7C3F86420FB
:1010D00000F032FC23463A4690A18F4802F0D8F93E
:1010E0008D4801F0B5FD64218B48FFF7B3F864200B
:1010F00000F022FCBDE8F047FFF750BE28789028AA
:1011000007D02878B02815D030282BD040287DD0A3
:1011100013E0287960B101280AD08AA1534802F06F
:10112000B7F982B243465149514801F02DFB82E0A4
:1011300089A10AE06978022912D0022E7FD1D02835
:101140007DD1687800287AD188A1484802F0A0F9BA
:101150004346BDE8F04782B24449454801F014BB1C
:1011600085A1F2E789A1414802F092F982B2434693
:101170003E493F4801F008FB3146284601F06AFC31
:101180008B4889A1814600E059E0FFF76EF810B165
:101190004846FFF713FD23463A4660A15E4802F039
:1011A00077F95D494846FFF760F8002847D0814C41
:1011B000814AD4F82804301A4119D4F82404891E2D
:1011C00002EB0020402204F5846400F0CFF961684E
:1011D0004FF48070491C61602268A4F584649142D8
:1011E0000DDB1CD1D4F80C2412F0FF0F07D04FEA0E
:1011F000E27002EB106020F0FF00A2EB00004FEA6B
:101200000121A1F58071C4F8280400E015E0FFF782
:101210005FFDBDE8F04764213F48FFF71BB867A1B9
:10122000124802F035F982B243461049104801F0E5
:10123000ABFAFFF7B7FB02F04FF964A185E7BDE811
:10124000F08700002B6F6B0D0A000000BDF8C8EBA3
:10125000D6B8C1EEC4A3CABDA3ACC9E8D6C3B7FE15
:10126000CEF1C6F72E2E2E0D0A00000058020020E7
:10127000F000002041542B454E544D0D0D0A4F4BAC
:101280000D0A00005553522D4452313532000000F2
:101290000C0B00201C000020CDCBB3F6D6B8C1EE5D
:1012A000C4A3CABD210D0A00B1BEC9E8B1B8C3FBD1
:1012B000CEAA25730D0A0000436F6E6E656374B786
:1012C000FECEF1C6F72E2E2E0D0A0000436F6E6E75
:1012D000656374B7FECEF1C6F7CAA7B0DC210D0A6C
:1012E00000000000436F6E6E656374B7FECEF1C6FA
:1012F000F7B3C9B9A6210D0A000000002F6F746171
:101300002F6465766963652F757067726164652FF8
:1013100025732F2573000000E80300202F737973D5
:101320002F25732F25732F7468696E672F66696C7C
:10133000652F646F776E6C6F61645F7265706C7936
:1013400000000000537562736372696265B4EDCE8C
:10135000F3210D0A00000000537562736372696225
:1013600065C9FAD0A7210D0A00000000C9E8B1B88C
:10137000B4E6BBEE210D0A00556E537562736372BD
:10138000696265C9FAD0A7210D0A0000CAD5B5BDAA
:10139000B5C8BCB630B5C45075626C697368B1A885
:1013A000CEC4210D0A00000075706772616465008B
:1013B000140700201405002000FF07084F5441CFF8
:1013C000C2D4D8CDEAB1CF210D0A0000CAD5B5BD2F
:1013D00050554241434B210D0A00000010B50A4C04
:1013E000ADF5007D207A00280AD0002020722288E6
:1013F00068466168FEF715FF21886846FFF7EEFD35
:101400000DF5007D10BD000000000020704772B691
:10141000FEE70000064A136823F440731360136864
:101420001360136843F001031360017070470000FC
:10143000103C0240094910B50C6824F440740C605B
:101440000C6844F440740C600C6844F001040C60B7
:101450000260BFF36F8F436010BD0000103C02407C
:10146000074A136823F440731360136843F48073CE
:101470001360136843F0010313600180704700009C
:10148000103C0240074A136823F44073136013684A
:1014900043F400731360136843F0010313600160A9
:1014A00070470000103C024017490868C206174800
:1014B00005D5C26942F01002C26110220A600A68B2
:1014C000920605D5C26942F00802C26120220A6074
:1014D0000A68520605D5C26942F00402C261402280
:1014E0000A600A68120605D5C26942F00202C261AA
:1014F00080220A600A68920705D5C26942F020027C
:10150000C2610220086070470C3C02403802002093
:1015100070B5114904460020C86100F075FB06460D
:101520000E4D09E0601C07D024B100F06DFB801B5C
:10153000A04201D9032070BD2868C003F2D42868F6
:10154000C00701D001202860286810F0F200F2D016
:10155000FFF7AAFF012070BD380200200C3C0240BA
:101560000B46014692001846FEF75BBE2DE9F0419E
:1015700015460E46074600F039FA002409E000BF80
:1015800056F8242007EB84010023022000F0F0F934
:10159000641CAC42F4D3BDE8F04100F0DFB92DE9A2
:1015A000F0410446876D00F02FFB064694F83500A5
:1015B0000025022806D08020606584F83450012080
:1015C000BDE8F0812068016821F016010160206803
:1015D000416921F080014161206C08B9A06C20B103
:1015E0002068016821F0080101602068016821F08D
:1015F000010101600CE000F007FB801B052807D902
:1016000020206065032084F8350084F83450D7E743
:1016100020680068C007EED194F85C103F20884035
:10162000B860012084F8350084F834500020C7E702
:1016300090F83510022903D08021416501207047C0
:10164000052180F835100068016821F00101016072
:10165000002070472DE9F84304464FF00009CDF80B
:10166000009063484FF41651A56D0068B0FBF1F788
:101670002E6894F85C10082000FA01F131420FD076
:1016800021680A6852070BD50A6822F004020A6032
:1016900094F85C108840A860606D40F001006065BF
:1016A00094F85C104FF0010808FA01F0304208D0BD
:1016B00021684969090604D5A860606D40F0020000
:1016C000606594F85C1004208840304208D021689E
:1016D0000968890704D5A860606D40F00400606562
:1016E00094F85C1010208840304218D021680968B6
:1016F000090714D5A86020680168490304D500686B
:10170000000308D5A16C07E00168C90503D401688E
:1017100021F008010160216C09B12046884794F846
:101720005C1020208840304231D021680968C90609
:101730002DD5A86094F8350005282068016806D0EA
:10174000490347D5006800031DD4616C1CE021F0FB
:10175000160101602068416921F080014161206C1F
:1017600008B9A06C20B12068016821F0080101606F
:1017700094F85C103F208840A86084F8358084F895
:101780003490216D1FE0E16B09B120468847606D00
:1017900000282BD0606DC00714D0052084F83500D8
:1017A0002068016821F0010101600098401C009050
:1017B000B84203D820680068C007F6D184F83580A5
:1017C00084F83490E16C002910D001B02046BDE8C7
:1017D000F04308470168C905D5D4016821F010011C
:1017E000016084F8358084F83490CCE7BDE8F88354
:1017F000180000202DE9F041044600F005FA0646E5
:101800005CB1022084F83500002584F8345020684B
:10181000016821F0010101600DE00120BDE8F081C7
:1018200000F0F2F9801B052805D92020606503200F
:1018300084F83500F2E720680068C007F0D122681C
:10184000116820480140D4E901031843D4E9033664
:101850003343184363691843A3691843E369184382
:10186000236A18430843616A042903D1D4E90B139E
:1018700019430843106020684069666A20F0070138
:1018800030460E43012704280CD1A06A0643E06AC3
:1018900040B12046FFF7B2F820B14020606584F8DF
:1018A0003570BAE7206846612046FFF793F894F850
:1018B0005C203F2191408160656584F8357000208F
:1018C000ACE700003F8010F02DE9F0410446866D42
:1018D00090F83400002501280DD0012084F8340050
:1018E00094F835700020012F07D084F834000225C9
:1018F0002846BDE8F0810220FBE7022784F8357016
:1019000060652046FFF7A4F894F85C103F208840FB
:10191000B0602068016841F016010160206C20B1C0
:101920002068016841F0080101602068016841F009
:1019300001010160DCE7000070B5044600F064F9C5
:101940000546601C02D004480078044400F05CF9AD
:10195000401BA042FAD370BD0C0000200348016870
:1019600041F000410160002070470000103C02403F
:101970002DE9F0471B4E05461446307E1F4689462A
:10198000012808D0012030764CF250384046FFF74D
:10199000BFFD18B114E00220BDE8F0879DB1012D14
:1019A00016D0022D19D022463B464846FFF742FD8D
:1019B0004046FFF7ADFD0C490A6822F001020A60BB
:1019C00000213176E8E7E1B24846FFF723FDEFE773
:1019D000A1B24846FFF744FDEAE721464846FFF733
:1019E00051FDE5E738020020103C02400749002085
:1019F0000A68002A09DA054A054B0C3A1360054BC0
:101A000013600968002900DA01207047103C024089
:101A100023016745AB89EFCD2DE9F84FDFF8BCA175
:101A20000022012503264FF00F090AF1040BAAF149
:101A3000040E00BF0B6805FA02F42340A34270D1E4
:101A40000F7907F00307012F01D0022F16D1876805
:101A50004FEA420806FA08FC27EA0C07D1F80CC046
:101A60000CFA08FC4CEA070CC0F808C04768A7430A
:101A70000C79C4F3001494403C4344600C79E44373
:101A8000A4070AD0C4684FEA420C06FA0CF7BC431C
:101A90008F6807FA0CF72743C7600C7904F003043A
:101AA000022C12D1D40800EB840CDCF8204057073C
:101AB000FF0E09FA07F824EA0804D1F8108008FAA2
:101AC00007F848EA0408CCF8208004684FEA420C82
:101AD00006FA0CF7BC430F7907F0030707FA0CF777
:101AE000274307604C6814F4403F70D03C4C276893
:101AF00047F480472760246822F0030704F48044F9
:101B00000094384C07EB040CDCF8084897074FEAC0
:101B1000177809FA08F7BC43334FB84202D10027BF
:101B200024E054E0314FB84201D101271EE0304F8C
:101B3000B84201D1022719E02E4FB84201D1032744
:101B400014E02D4FB84201D104270FE02B4FB842CB
:101B500001D105270AE02A4FB84201D1062705E046
:101B6000284FB84201D1072700E0082707FA08F7F5
:101B70002743CCF80878DAF800405746D1F804C07B
:101B80009C435FEACC2C00D51C433C60DBF8004052
:101B90005F46D1F804C09C435FEA8C2C00D51C43FF
:101BA0003C60DEF800407746D1F804C09C435FEA11
:101BB0008C3C00D51C433C60084F083F3C68D1F882
:101BC00004C09C435FEACC3C00D51C433C60521CE3
:101BD000102AFFF42FAFBDE8F88F0000083C014049
:101BE000443802400030014000000240000402403E
:101BF00000080240000C02400010024000140240A5
:101C000000180240001C0240014880687047000034
:101C10000C000020024881680278114481607047FE
:101C20000C0000200B4810B5016841F40071016000
:101C3000016841F480610160016841F480710160D4
:101C4000032000F06FF80F2000F006F800F024F8F1
:101C5000002010BD003C024070B50D4D04464FF40D
:101C60007A712878B1FBF0F00A490968B1FBF0F00D
:101C700000F00CFB48B9102C07D200222146501E60
:101C800000F030F800206C6070BD012070BD0000D5
:101C90000C000020180000200A4808B5016841F433
:101CA00080410160006800F4804000900548001FFA
:101CB000016841F080510160006800F080500090A0
:101CC00008BD000044380240002809DB00F01F0274
:101CD000012191404009800000F1E020C0F800118E
:101CE00070470000F0B40E4B1B680C46C3F3022390
:101CF000C3F10705042D00D90425191D072901D2B8
:101D0000002300E0DB1E012606FA05F1491E2140F2
:101D100099409E40761E16403143F0BC01F0CCBB8A
:101D20000CED00E0064900F0070208684FF6FF03DB
:101D3000184040EA0220034A104308607047000040
:101D40000CED00E00000FA052DE9F0470E46050015
:101D500065D0DFF81481D8F80000F7B200F0070072
:101D6000B04207D288F80070D8F8000000F00700F1
:101D7000B04254D128683D4C810712D5400703D5A5
:101D8000206840F4E05020602878000703D52068E0
:101D900040F4604020602068A96820F0F00008430B
:101DA00020602878C0072DD030496868083901289C
:101DB00012D0022813D0032811D0096889070029FE
:101DC0002DDA216821F0030101432160FFF71CFF98
:101DD000814641F2883A0EE009688903EFE7096815
:101DE0008901ECE7FFF710FFA0EB0901514502D98B
:101DF0000320BDE8F0872068696800F00C00B0EBB4
:101E0000810FEFD1D8F80010404601F00701B14230
:101E100007D90770006800F00700B04201D0012028
:101E2000E7E72878400705D52068E96820F4E05006
:101E3000084320602878000706D52068296920F427
:101E4000604040EAC100206000F038F82168084A8C
:101E5000C1F30311515CC840064908600648006898
:101E6000FFF7FAFE0020C4E7003C024008380240B9
:101E7000903A02081800002010000020044805498C
:101E800000680968044AC1F38221515CC840704768
:101E90001800002008380240A03A0208044805490A
:101EA00000680968044AC1F34231515CC840704778
:101EB0001800002008380240A03A0208154810B562
:101EC000006810F00C02144813D01449042A0FD0F3
:101ED000082A0ED10F4C241F2268236802F03F020B
:101EE0005B0207D52068C0F38810A0FB010106E063
:101EF000084610BD2168C1F38811A1FB0001002331
:101F0000FEF75EF92168C1F30141491C4900B0FBAD
:101F1000F1F010BD083802400024F40040787D0143
:101F20002DE9F84F04006ED02078DFF84C93C007FD
:101F3000A9F104054AD009F104000168C1F3810147
:101F4000012908D00068C0F3810002280AD1D9F81D
:101F50000000400206D52868800337D56068002855
:101F6000E1D033E06068B0F5803F10D0B0F5A02F2D
:101F7000286810D020F480302860286820F4802061
:101F800028606068A8B1FFF73FFE06460DE02868AC
:101F900040F48030F4E740F480202860F7E700BF89
:101FA000FFF732FE801B642873D828688003F7D5BA
:101FB0000CE0FFF729FE064605E000BFFFF724FE10
:101FC000801B6428F0D828688003F7D42078DFF8D5
:101FD000AC8280074FF0000A3ED5A748001D01687B
:101FE00011F00C0F08D00068C0F3810002280BD15B
:101FF000D9F80000400207D42868800716D5E068A9
:10200000012800D112E033E1E068B8B10120C8F83E
:102010000000FFF7F9FD064605E000BFFFF7F4FDFD
:10202000801B0228C0D828688007F7D52868216956
:1020300020F0F80040EAC10028600DE0C8F800A0D8
:10204000FFF7E2FD064604E0FFF7DEFD801B0228F5
:102050001FD828688007F7D42078000722D5864F3C
:1020600087486169703771B101210160FFF7CCFDCC
:10207000064604E0FFF7C8FD801B022809D838682F
:102080008007F7D50EE0C0F800A0FFF7BDFD0646BB
:1020900005E082E0FFF7B8FD801B02287DD8386894
:1020A0008007F7D42078400768D5DFF8CCB1002747
:1020B0000BF13C0BDBF80000C0000BD4DBF8001088
:1020C00041F08051CBF80010DBF80000012700F050
:1020D000805000906B4E3068C00510D4306840F4DA
:1020E00080703060FFF790FD009005E0FFF78CFDF9
:1020F0000099401A022850D83068C005F6D55E4EC7
:10210000A0686C3601280FD00528306810D020F068
:1021100001003060306820F004003060A068B8B181
:10212000FFF772FD00900FE0306840F00100F4E727
:1021300040F004003060F7E7FFF766FD0099411AB0
:1021400041F28830814266D830688007F4D50EE0CD
:10215000FFF75AFD009007E0FFF756FD0099411A7E
:1021600041F28830814256D830688007F4D42FB1CC
:10217000DBF8001021F08051CBF80010A069C8B343
:102180003D49091D0968C1F3810102294AD002288D
:10219000504607D0C8F8600000E03CE0FFF734FD8F
:1021A00004463BE04746C8F86000FFF72DFD0646B1
:1021B00005E000BFFFF728FD801B02282BD8286808
:1021C0008001F7D4D4E907010843A16A2E4A4908DF
:1021D00002EB0141626A41EA8211084394F82C1033
:1021E00040EA0161C9F8001001203866FFF70CFDD4
:1021F000044606E03EE000BFFFF706FD001B022894
:1022000009D828688001F7D534E000BFFFF7FCFC4F
:10221000001B022802D90320BDE8F88F286880013E
:10222000F4D427E00128F7D0D9F80000E26900F4DF
:10223000800191421CD1226A00F03F01914217D1E6
:1022400047F6C071626A0140B1EB821F10D1A26AE9
:102250004FF0FF3300F4403103EB5202B1EB024F79
:1022600006D194F82C1000F07060B0EB016F01D033
:102270000120D1E70020CFE70438024000004742A8
:10228000800E4742007000400000FFFF10B5401E66
:10229000B0F1807F01D3012010BD4FF0E0246061D8
:1022A0000F21601701F008F90020A06107202061CC
:1022B000002010BD704710B504460068406994F8CE
:1022C0003D10C0F3C010212911D180B12068143015
:1022D00050E8001F21F0800140E80012002AF5D1EB
:1022E000606B08B1FFF75BF9204600F029FF20681A
:1022F000406994F83E10C0F38010222911D180B1BA
:102300002068143050E8001F21F0400140E800121E
:10231000002AF5D1A06B08B1FFF741F9204600F083
:10232000E8FE002010BD7047F8B501680446086853
:10233000CA684B6910F00F0F4FF0000559D003F039
:10234000010602F49077374365D0C10705D0D10567
:1023500003D5216C41F001012164410705D5D9075E
:1023600003D0216C41F002012164810705D5D90712
:1023700003D0216C41F004012164010707D502F06C
:102380002001314303D0216C41F008012164216C0C
:1023900000293AD0800604D5900602D5204600F0E8
:1023A000DDFE20684069216CC0F38010090700D46D
:1023B00060B3204600F09DFE20684069400621D5AC
:1023C0002068143050E8001F21F0400140E800125E
:1023D000002AF5D1A06BA8B16C490165A06BFFF78D
:1023E00027F9002811D0A06B016D01B0BDE8F040C5
:1023F000084783060FD593060DD52046BDE8F84063
:1024000000F0ACBE2046FFF78EFFF8BD2046FFF778
:102410008AFF2564F8BD266B2023012E79D1C606DC
:1024200077D5D60675D50868486800904869400693
:1024300040D5A16B086840680004000CEAD0A28D6A
:102440008242E7D9E085C869B0F5807F2DD0206849
:102450000C3050E8001F21F4807140E80012002A7F
:10246000F5D12068143050E8001F21F0010140E848
:102470000012002AF5D12068143050E8001F21F026
:10248000400140E80012002AF5D184F83E3025636F
:1024900020680C3050E8001F21F0100140E80012C5
:1024A000002AF5D1A06BFFF77AF8A08DE18D401AD4
:1024B00081B229E0A08DE18D401A81B2E08D002823
:1024C000A8D00029A6D020680C3050E8002F22F4B4
:1024D000907240E80026002EF5D12068143050E8B4
:1024E000002F22F0010240E80026002EF5D184F8EA
:1024F0003E30256320680C3050E8002F22F0100297
:1025000040E80023002BF5D12046FFF7D3FEF8BDAD
:10251000FFE705062BD5150629D594F83D0021289F
:10252000F5D1A068B0F5805F01D12069B0B1206A13
:10253000411C2162216800784860E08C401E000444
:10254000000CE084E3D12068C16821F08001C16003
:102550002068C16841F04001C160D8E7206A008866
:10256000C0F308004860206A801C2062E5E740064E
:10257000CDD55006CBD5CA68204622F04002CA60AD
:1025800084F83D3000F059F9C1E70000FD2F020842
:1025900070B5040004D094F83D00002510B106E0A9
:1025A000012070BD84F83C50204600F023F8242020
:1025B00084F83D002068C16821F40051C1602046C4
:1025C00000F02CFE2068016921F49041016120682F
:1025D000416921F02A0141612068C16841F400513C
:1025E000C1602564202084F83D0084F83E0000206E
:1025F00070BD00002DE9F04186B006461421684602
:10260000FDF728FE4C4F31684C4802220323072572
:102610000024B94225D1494914310E6846F010060C
:102620000E60096801F010010591016841F0010197
:1026300001600068694600F00100059058028DE8CD
:102640001500CDE903353E48FFF7E6F900221146B3
:102650002520FFF747FB2520FFF736FB06B0BDE836
:10266000F081384FB942F9D1344910310F6847F43D
:1026700080270F60096801F480210591016841F00D
:10268000020101600068694600F0020005904FF405
:1026900040608DE81500CDE903352B48FFF7BCF904
:1026A0002B4D2A484FF000672860C5E901744FF4AC
:1026B0008068C5E903486C61AC61EC612C62284616
:1026C0006C62FFF797F808B1FEF7A1FEB563AE6341
:1026D0001F4D1E4860353030E5E802074020A5E870
:1026E00011011B4845F814496030AC61EC612C6263
:1026F0006C62FFF77FF808B1FEF789FE7563002270
:1027000011462720AE63FFF7EDFA2720FFF7DCFA2A
:10271000104C608801F082F9014660600C486288C4
:10272000443800F019F80A4844380068C16841F09C
:102730001001C16092E700000010014030380240F3
:1027400000000240004800400004024028600240AF
:10275000780100200000002090F83E30202B0ED1A0
:1027600059B152B190F83C30012B08D0012380F8C8
:102770003C300023036300F0D7BD012070470220E6
:1027800070477047704700002DE9F843044690F801
:102790003D001F4616460D4620284CD1C5B1BEB19E
:1027A00094F83C00012846D0012084F83C004FF00A
:1027B0000008C4F84080212084F83D00FFF724FA87
:1027C000A6848146E684A068B0F5805F03D004E06B
:1027D0000120BDE8F883206928B12E465FF000058E
:1027E00084F83C800EE00026FAE78021204600F0C5
:1027F000E5FDA0B9AEB116F8010B21684860E08C88
:10280000401EE084E08C4B464FF000020097002809
:10281000EBD14FF04001204600F0D0FD30B1032055
:10282000D7E735F8020BC0F30800E6E7202084F86C
:102830003D000020CDE70220CBE77047FEE7000017
:102840002DE9F041764C0120A4F80004A4F802041C
:102850000A20A4F804047348FDF719FD05467148E1
:1028600064300646FDF713FD05446E48823080460D
:10287000FDF70DFD2844801DA4F80604B4F80414E7
:102880000844A4F808041020207000F0C7F9B4F838
:102890000204002104222154B4F80234601C1A54AA
:1028A000B4F80254401C4D232B54B4F80254401C7D
:1028B00051232B54B4F80254231D5420E854B4F887
:1028C00002545B1CE854B4F80234A01D1A54B4F846
:1028D0000234401CC2221A54B4F80224401C115481
:1028E000B4F80224401C642111544E4804F20244FE
:1028F000FDF7CDFC010A4A4822880A3011544948A4
:10290000FDF7C5FC464922880B3150544548FDF778
:10291000BEFC0246424821880C3008444149FDF77C
:1029200080FC3046FDF7B3FC050A3E48FDF7AFFCDE
:102930002188A4F2024421440C300D543046FDF7A6
:10294000A6FC05463748FDF7A2FCB4F802140D308A
:1029500021440D543046FDF79AFC05463148FDF7F9
:1029600096FCB4F802140E30214408442A4631463D
:10297000FDF757FC4046FDF78AFC070A2948FDF79A
:1029800086FC05463046FDF782FCB4F80214284464
:102990002144084487734046FDF779FC05462148E9
:1029A000FDF775FC07463046FDF771FCB4F80214DC
:1029B000384421440844C5734046FDF768FC054689
:1029C0001848FDF764FC07463046FDF760FCB4F894
:1029D00002143844214408442A4641461030FDF789
:1029E00020FCB4F80204B4F804140844B4F8061443
:1029F000084481B20A48FEF7C1F900280ED0084801
:102A000009A1C83800F044FDBDE8F041044982B294
:102A10004FF6FF73C8390E48FFF7B6BEBDE8F08128
:102A200014050020080A0020436F6E6E656374B1C0
:102A3000A8CEC4B7A2CBCDB3C9B9A62CB5C8B4FD36
:102A4000B7FECEF1C6F7BBD8D3A60D0A0000000032
:102A5000F00000202DE9F0410F4605460124285DD5
:102A6000000603D5641CE4B2052CF8D307484FF4E4
:102A700000710646FDF7EEFB29193A1B3046BDE80A
:102A8000F041C91CD21EFDF7CCBB0000140700208A
:102A90002DE9F041284C06460120A4F802040D4619
:102AA0003046FDF7F4FB801CA4F804042846FDF72B
:102AB000EEFBA4F80604B4F804140844A4F80804CF
:102AC0003020207000F0AAF83046FDF7E0FBB4F8A3
:102AD0000214000A60543046FDF7D9FBB4F8022412
:102AE000611C50543046FDF7D2FB0246B4F8021484
:102AF000A01C08443146FDF794FB2846FDF7C7FBB0
:102B000007463046FDF7C3FBB4F80214801C21448D
:102B100008443A462946FDF784FBB4F80204B4F8A9
:102B200004140844B4F80614084481B22046BDE8F1
:102B3000F041FEF723B90000140500202DE9F04113
:102B4000354C06460120A4F802040D463046FDF738
:102B50009EFB001DA4F804042846FDF798FBA4F88A
:102B60000604B4F804140844A4F8080432202070C1
:102B700000F054F83046FDF78AFBB4F80214000A5E
:102B800060543046FDF783FBB4F80224611C5054B6
:102B90003046FDF77CFB0246B4F80214A01C084442
:102BA0003146FDF73EFB3046FDF771FBB4F80214E9
:102BB000B4F800242144801C120A0A543046FDF760
:102BC00066FBB4F80214C01C0A1994F800141154DE
:102BD000B4F80004401CA4F800042846FDF757FB95
:102BE00007463046FDF753FBB4F80214001D21449C
:102BF00008443A462946FDF714FBB4F80204B4F839
:102C000004140844B4F80614084481B22046BDE810
:102C1000F041FEF7B3B80000140500200B4800BFD8
:102C2000B0F80814CA0901D041F08001B0F80224BC
:102C30008154B0F80214491CA0F80214B0F808142A
:102C4000C909A0F80814EBD1704700001405002052
:102C500070B5364C05460120A4F802040220A4F801
:102C600004042846FDF713FBC01CA4F80604B4F8BE
:102C700004140844A4F8080482202070FFF7CEFF53
:102C8000B4F80004B4F80214000A6054B4F8022442
:102C9000611C94F800045054B4F80004401CA4F8DB
:102CA0000004284604F58064FDF7F1FA010A1F4884
:102CB0006288801C11542846FDF7E9FA1B49628896
:102CC000C91C50542846FDF7E2FA024617486188AD
:102CD000001D08442946FDF7A4FA2846FDF7D7FA57
:102CE0006188A4F580642144001D00220A54B4F8D0
:102CF0000204B4F804140844B4F80614084481B279
:102D00000A48FEF73BF800280ED0084808A1C8384A
:102D100000F0BEFBBDE87040044982B24FF6FF737D
:102D2000C8390D48FFF730BD70BD00001405002004
:102D3000537562736372696265B1A8CEC4B7A2CBE2
:102D4000CDB3C9B9A62CB5C8B4FDB7FECEF1C6F750
:102D5000BBD8D3A60D0A0000F00000200D4808B52E
:102D6000016841F4001101600068002200F40010C5
:102D7000009011460C20FEF7B5FF0C20FEF7A4FFD3
:102D8000002211460E20FEF7ADFFBDE808400E20E0
:102D9000FEF79ABF303802400D4808B5016841F08F
:102DA00080010160016801F080010091016841F03B
:102DB00002010160016801F002010091016841F027
:102DC00001010160006800F00100009008BD0000F2
:102DD000303802400C4810B50A4901604FF4E13127
:102DE0004160002181600C22C160C0E90412816150
:102DF000C161FFF7CDFB002803D0BDE81040FEF70E
:102E000006BB10BD00100140F00000200C4810B5BA
:102E10000A4901604FF4E1314160002181600C22D8
:102E2000C160C0E904128161C161FFF7B1FB0028F4
:102E300003D0BDE81040FEF7EABA10BD00480040DC
:102E400034010020FEE7FEE770477047F8B5012225
:102E500069462248FEF784FB2148009900F1640688
:102E600000F1820500F1E60400F5827701290ED019
:102E700002291ED01BA1C83800F00AFB184982B2F3
:102E80004FF6FF73C8391D48FFF77EFCF8BD1C499B
:102E90001348FDF710FA1BA13046FDF70CFA1E4946
:102EA0002846FDF708FA1DA12046FDF704FA1EA1E9
:102EB00010E01F490A48FDF7FEF91EA13046FDF754
:102EC000FAF921492846FDF7F6F914A12046FDF745
:102ED000F2F91EA13846FDF7EEF9F8BD00000E0824
:102EE000080A002043616E27742066696E642064BE
:102EF0006576696365210D0A00000000F00000207E
:102F0000083D020844303031266B30386C637767F7
:102F10006D30547300000000303C02086B30386C98
:102F20006377676D30547300443030310000000027
:102F3000B83C020844303032266B30386C63776717
:102F40006D30547300000000743C0208443030328D
:102F500000000000FEF75EBE30B593B03021684639
:102F6000FDF778F914210CA8FDF774F91D48002528
:102F7000016841F080510160006800F080501190BC
:102F80001948016841F4804101600068022400F49E
:102F9000804011900120039010200490009406942A
:102FA0000820CDE90750A820CDE9090404200B90A2
:102FB0006846FEF7B5FF08B172B6FEE70CA90F2010
:102FC00081E831004FF4A0500F904FF480501090E2
:102FD00005210CA8FEF7B8FE002801D072B6FEE766
:102FE00013B030BD40380240007000400248016814
:102FF00041F470010160704788ED00E010B5806B0E
:103000000021C185C184FFF78EF910BD70B5846BB6
:103010002068406994F83D10C0F3C01000252129B4
:1030200004D118B1E584204600F08AF82068406990
:1030300094F83E10C0F38010222904D118B1E58520
:10304000204600F056F8206C40F010002064204626
:10305000FFF769F970BD10B50146806B0968096812
:10306000C9052FD40021C18501680C3151E8002F1A
:1030700022F4807241E80023002BF5D1016814315D
:1030800051E8002F22F0010241E80023002BF5D186
:103090000168143151E8002F22F0400241E800237A
:1030A000002BF5D1202180F83E10016B012909D1B8
:1030B00001680C3151E8002F22F0100241E8002392
:1030C000002BF5D1016B012902D0FFF75AFB10BD8F
:1030D000818DFFF7EFF810BD10B5806B016B0129F2
:1030E00002D0FFF74FFB10BD818D4908FFF7E2F8D2
:1030F00010BD01680C3151E8002F22F4907241E8B4
:103100000023002BF5D10168143151E8002F22F083
:10311000010241E80023002BF5D1016B012909D1FF
:1031200001680C3151E8002F22F0100241E8002321
:10313000002BF5D1202180F83E100021016370475B
:1031400001680C3151E8002F22F0C00241E8002351
:10315000002BF5D1202180F83D10704708B590F87C
:103160003E10222901D0022008BD82684FF480530E
:103170009A4201D1016921B1816A9A421BD04AB1B8
:103180000AE00268816A5268C2F308020A80816A12
:10319000891C08E0026972B10268526802F07F027D
:1031A0000A70816A491C8162C18D491E0904090C9B
:1031B000C18503D019E002685268F1E70168CA6866
:1031C00022F02002CA600168CA6822F48072CA60D4
:1031D00001684A6922F001024A61202180F83E100C
:1031E000016B012903D0FFF7CCFA002008BD0021B4
:1031F000016301680C3151E8002F22F0100241E810
:103200000023002BF5D101680A68D20602D50A68AE
:1032100049680091818DFFF74DF8E6E770B50446E7
:1032200000680169E26821F440511143016121699C
:10323000A068E26908436169114308432168CA68CC
:1032400049F20C639A430243CA6020684169A2694B
:1032500021F440711143416131492068884202D014
:103260003049884202D1FEF719FE01E0FEF706FE62
:10327000E2690023192164253226B2F5004F626805
:1032800028D0A0FB0101930F9200FCF799FF0146A3
:10329000B0FBF5F06FF01802504301EB800006EB35
:1032A0000010B0FBF5F000F0F002B1FBF5F002EB1E
:1032B0000012B1FBF5F06FF01803584301EB8000EA
:1032C00006EB0010B0FBF5F000F00F002168104491
:1032D000886070BDA0FB010192185B41FCF770FF94
:1032E0000146B0FBF5F00201B1FBF5F06FF01803F9
:1032F000584301EB800006EBC000B0FBF5F000F096
:10330000F80002EB4002B1FBF5F0584301EB8000FE
:1033100006EBC000B0FBF5F000F00700D6E70000B8
:10332000001001400014014038B5816282850025FB
:10333000134604460564222084F83E00A26B1C4814
:10334000D063A26B1B481064A26B1B48D064A06BB7
:103350000A4605652168A06B091DFEF7B5FA2068CD
:1033600001684068009084F83C50206948B12068AA
:103370000C3050E8001F41F4807140E80012002A30
:10338000F5D12068143050E8001F41F0010140E8F9
:103390000012002AF5D12068143050E8001F41F0D7
:1033A000400140E80012002AF5D1002038BD00009D
:1033B00057300208D93002080D3002082DE9F041DB
:1033C000984617460E460446069D27E0681C25D001
:1033D0002DB1FEF719FCA0EB0800A8421ED9206809
:1033E0000C3050E8001F21F4D07140E80012002A90
:1033F000F5D12068143050E8001F21F0010140E8A9
:103400000012002AF5D1202084F83D0084F83E0007
:10341000002084F83C000320BDE8F08120680068AB
:1034200036EA000004D00020B842CFD00020F3E7F5
:103430000120F9E70148FEF777BF0000F000002007
:103440000F4808B500680168C943C90612D401686D
:10345000406800900A48FEF72EFF0B4909480968AA
:1034600042884968511A018001210172416804486B
:10347000FFF772F9BDE808400148FEF755BF0000AC
:10348000340100200000002078010020FEE7000049
:103490000FB4084B10B504A902AA039800F03EF837
:1034A000044602A9002000F0DAF9204610BC5DF8BD
:1034B00014FB00005F3802080907090E002804DB2E
:1034C00000F1E02080F80014704700F00F0000F1D8
:1034D000E02080F8141D7047BFF34F8F0548016846
:1034E000054A01F4E06111430160BFF34F8F00BF53
:1034F000FDE700000CED00E00400FA0502E008C85A
:10350000121F08C1002AFAD170477047002001E05D
:1035100001C1121F002AFBD1704700002DE9FF4FA7
:103520008BB088460546002606E025280BD0DDE94D
:103530000D1290476D1C761C28780028F5D10FB02D
:103540003046BDE8F08F0024A146A2460122AE49D4
:1035500000E0044315F8013F203B02FA03F0084263
:10356000F7D128782A2810D06FF02F022878A0F100
:103570003001092915D809EB890102EB410144F01A
:10358000020400EB01096D1CF0E758F8041B5FEA28
:10359000010903D544F40054C9F1000944F00204C0
:1035A0006D1C28782E2817D115F8010F44F004045B
:1035B0002A280ED06FF02F022878A0F130010929B7
:1035C0000AD80AEB8A0102EB410100EB010A6D1CEB
:1035D000F2E758F804AB6D1C28786C280FD006DC95
:1035E0004C2817D068280DD06A2814D104E074281C
:1035F00010D07A280FD10DE044F400140AE044F40E
:10360000801401E044F440146978814202D104F549
:1036100080146D1C6D1C2878692865D006DC002894
:103620008DD0632827D0642806D15DE06E2808D0AD
:1036300073282AD0752877D0DDE90D129047761CC3
:10364000E0E0C4F30250022809D003280DD0D8F8D6
:10365000001004280DD00E6008F10408D2E0D8F85C
:103660000010F217C1E90062F6E7D8F800100E80EA
:10367000F2E70E70F0E718F8041B8DF80010002038
:103680008DF80100EB46012003E058F804BB4FF031
:10369000FF3061074FF0000701D40AE07F1C574557
:1036A0000DDA8742FADB1BF807100029F6D106E095
:1036B0007F1C8742FCDB1BF807100029F8D1DDE9ED
:1036C0000D23A9EB07008146214600F0B1F83044F4
:1036D000C61904E0DDE90D121BF8010B90477F1EAF
:1036E000F8D22146484688E058F8040BC4F302514A
:1036F0004FF00A0B032900D100B2042900D140B2D7
:10370000002802DA40422D2102E0210505D52B21B7
:103710008DF82410012104E006E0E10710D02021FB
:10372000F6E708AF089113E058F8040BC4F3025110
:103730004FF00A0B032900D180B2042900D1C0B296
:103740000021EEE75946FCF7F1FE303107F8011D84
:103750000028F7D1ADEB070000F1200B600702D580
:1037600024F4803401E04FF0010ADA4502DDAAEBCF
:103770000B0000E00020824600EB0B01089801449A
:10378000A9EB01000A90E00306D4DDE90D232146F0
:103790000A9800F04DF806444FF0000908E009A926
:1037A00011F80900DDE90D12904709F10109761CB5
:1037B00008998945F3DBE0030CD5DDE90D232146AB
:1037C0000A9800F035F8064404E0DDE90D123020D7
:1037D0009047761CBAF10001AAF1010AF5DC05E078
:1037E000DDE90D1217F8010B9047761CBBF10001C3
:1037F000ABF1010BF4DC0A982146DDE90D2300F062
:1038000005F806446D1C97E6092801002DE9F041F2
:10381000044600251E461746880404D405E03946B0
:103820002020B0476D1C641EF9D52846BDE8F08104
:103830002DE9F041044600251E469046C80301D5F7
:10384000302700E02027880404D505E041463846AB
:10385000B0476D1C641EF9D52846BDE8F0810A68A2
:10386000531C0B601070704734483549086062B6CD
:10387000FEF7D8F9FFF770FBFFF78EFAFFF76EFA45
:10388000FFF7A8FAFFF7C2FA2EA12F48FFF700FEB4
:1038900082B24FF6FF7423462B492C48FEF774FF83
:1038A0002BA12948FFF7F4FD82B223462649274879
:1038B000FEF76AFF30A12448FFF7EAFD82B22346F3
:1038C00021492248FEF760FF35A11F48FFF7E0FDC0
:1038D00082B223461C491D48FEF756FF3AA11A48FA
:1038E000FFF7D6FD82B2234617491848FEF74CFF72
:1038F0003FA241A11448FFF7CBFD82B223461249F3
:103900001248FEF741FF1CA10F48FFF7C1FD82B22C
:1039100023460D490D48FEF737FF0DA10A48FFF772
:10392000B7FD82B2234608490848FEF72DFFFDF790
:10393000A3F800BFFDF752FDFCE7000000000208FD
:1039400008ED00E00D0A000028000020F000002033
:103950002A2A2A2A2A2A2A2A2A2A2A2A2A2A2A2AC7
:103960002A2A2A2A2A2A2A2A2A2A2A2A2A2A2A2AB7
:103970002A2A2A0D0A0000002A20202020202020A8
:103980002020202020202020202020202020202037
:10399000202020202020202020202A0D0A000000A6
:1039A0002A202020202020422D426F6F742D463483
:1039B0002773204170706C69636174696F6E202099
:1039C00020202A0D0A0000002A202020202020206C
:1039D000202020466F7220746865207465737420FF
:1039E000202020202020202020202A0D0A00000056
:1039F00056302E31000000002A20202020202020D8
:103A0000202056657273696F6E203A20202573203E
:103A100020202020202020202A0D0A00F0B50B3085
:103A2000154D20F007010024144A0FE003688B4273
:103A30000BD38B4205D95E1A43184768C3E9006768
:103A400000E04368136002C004E0021D1068002813
:103A5000ECD12046002802D1286808B10020F0BD32
:103A6000064A07481060074A121A22F00702C0E906
:103A7000002401202860D7E7240000202000002037
:103A8000340B0020300D0020000610160006101622
:103A900000000000000000000102030406070809FE
:103AA0000000000001020304DDDDDDDDDCBBBBDD69
:103AB000DDDDDDDDDDDDDDDD9888888888888888CE
:103AC00077777777778888888555555666666666EE
:103AD00066666666666888888333333222222222CD
:103AE000222222222228888D2F6F74612F6465760E
:103AF0006963652F757067726164652F252A31359A
:103B00005B5E2F5D2F252A31355B5E7B5D7B2263FB
:103B10006F6465223A2231303030222C2264617485
:103B200061223A7B2273697A65223A25642C2273DA
:103B3000747265616D4964223A25642C2273696749
:103B40006E223A22252A333273222C226450726F5D
:103B5000746F636F6C2220202020202020202020E2
:103B60003A226D717474222C2276657273696F6EBD
:103B7000223A22253373222C227369676E4D6574B5
:103B8000686F64223A224D6435222C227374726568
:103B9000616D46696C654964223A312C226D643549
:103BA000223A22252A333273227D2C226964223A5A
:103BB000252A642C226D657373616765223A22732E
:103BC000756363657373227D000000007B22696466
:103BD000223A202231222C22706172616D73223AC6
:103BE000207B2266696C65496E666F223A7B227380
:103BF000747265616D4964223A25642C2266696C91
:103C0000654964223A317D2C2266696C65426C6F8D
:103C1000636B223A7B2273697A65223A25642C22EF
:103C20006F6666736574223A25647D7D7D000000B1
:103C300039646630313830373765303834313335B0
:103C400032633636623833666163633263396238B1
:103C5000363666383564623233336532356431382E
:103C600066396266633962396532643631343730B9
:103C7000000000006538643131303766626163648A
:103C8000636538303435366137393038343266322E
:103C900033353566373731343663623334356564EE
:103CA0006166656635363338643637613933356178
:103CB00032346433000000006B30386C6377676D1A
:103CC0003054732E443030327C7365637572656D89
:103CD0006F64653D322C7369676E6D6574686F64DF
:103CE0003D686D61637368613235362C74696D654A
:103CF0007374616D703D3136393731383232353950
:103D00003534327C000000006B30386C6377676DAF
:103D10003054732E443030317C7365637572656D39
:103D20006F64653D322C7369676E6D6574686F648E
:103D30003D686D61637368613235362C74696D65F9
:103D40007374616D703D3136393731373333383103
:103D50003837367C00000000783D02080000002063
:103D600028000000FC340208A03D020828000020C2
:103D7000081100000C3502080000F40100000000EA
:103D80000000000001000000100000000000000022
:103D90000024F4000000000000000000000000000B
:040000050802018963
:00000001FF
