:020000040802F0
:10000000280B00209D010208DB1A02080D1A0208C5
:10001000D91A0208F9020208412002080000000073
:10002000000000000000000000000000DF1A0208CD
:100030001104020800000000DD1A0208FD1A02087F
:10004000B7010208B7010208B7010208B7010208A8
:10005000B7010208B7010208B7010208B701020898
:10006000B7010208B7010208B7010208B701020888
:10007000B7010208B7010208B7010208B701020878
:1000800061030208B7010208B7010208B7010208BC
:10009000B7010208B7010208B7010208B701020858
:1000A000B7010208B7010208B7010208B701020848
:1000B000B7010208B7010208B7010208B701020838
:1000C000B7010208B7010208B7010208B701020828
:1000D000B7010208DD1F0208E91F0208B701020884
:1000E000B7010208B7010208B7010208B701020808
:1000F000B7010208B7010208B7010208B7010208F8
:10010000B7010208B7010208B7010208B7010208E7
:10011000B7010208B7010208B7010208B7010208D7
:10012000B7010208B7010208B7010208B7010208C7
:10013000B7010208B7010208B7010208B7010208B7
:10014000B7010208B7010208B7010208B7010208A7
:10015000B7010208B7010208B7010208B701020897
:10016000B7010208B7010208B7010208B701020887
:10017000B7010208B7010208B70102080000000039
:10018000B7010208B7010208DFF80CD000F0A2F8AE
:100190000048004761240208280B002006488047D9
:1001A00006480047FEE7FEE7FEE7FEE7FEE7FEE75C
:1001B000FEE7FEE7FEE7FEE7951B0208890102085D
:1001C0002DE9F05F0546002092469B46884606468C
:1001D000814640241BE0284641464746224600F01F
:1001E00069F853465A46C01A914110D31146184631
:1001F000224600F050F82D1A67EB01084F462246C0
:100200000120002100F047F817EB00094E41201EA5
:10021000A4F10104DFDC484631462A464346BDE8E6
:10022000F09F40EA01039B0703D009E008C9121FB1
:1002300008C0042AFAD203E011F8013B00F8013BA0
:10024000521EF9D27047D2B201E000F8012B491ECC
:10025000FBD270470022F6E710B513460A46044663
:100260001946FFF7F0FF204610BD30B50B4601469A
:1002700000202022012409E021FA02F59D4205D345
:1002800003FA02F5491B04FA02F52844151EA2F1EF
:100290000102F1DC30BD202A04DB203A00FA02F131
:1002A000002070479140C2F1200320FA03F3194364
:1002B00090407047202A04DB203A21FA02F0002106
:1002C000704721FA02F3D040C2F120029140084366
:1002D00019467047064C074D06E0E06840F0010300
:1002E00094E8070098471034AC42F6D3FFF750FF6C
:1002F000CC250208EC250208FEE70000F0B500223C
:10030000C31C41F221054FF6FF76491F11E000BFE3
:1003100013F8014B82EA04220024170403D585EA6E
:10032000420292B201E006EA4202641C082CF4DBAD
:10033000491E0029ECDCB0F8830040BA904201D09D
:100340000020F0BD0120F0BD08B54FF0AA300090AC
:1003500001226946014800F06BF908BDFCFF0D0859
:10036000014800F031BA0000A40000200168182301
:10037000CAB2103AB2FBF3F2054B6FF30901032A3C
:100380009B5CC36500D9091D816508467047000064
:10039000AC25020810B5014600208B698A6A4FF02F
:1003A000C07453B1B3F5005F15D072B1012A0CD0FF
:1003B000022A0AD0032A09D104E01AB1012A06D080
:1003C000022A03D1C96AC90100D5012010BDC96A3A
:1003D000A142FAD010BD002AF7D0012AF2D0022A99
:1003E000F3D0032AF3D010BD30B50468256825F496
:1003F00080252560046863608368402B036803D010
:1004000099600068C26030BD9A600068C16030BD0C
:10041000704772B6FEE70000002229B101291AD008
:1004200002291BD04FF440720E490B6823F440732D
:100430000B600B6813430B600A6822F0F8020A6035
:100440000A68022303EBC00002430A60086840F414
:100450008030086070474FF48072E5E74FF4007217
:10046000E2E70000103C02401348016889050FD5FF
:10047000016821F400710160016841F400610160CC
:10048000016821F400610160016841F400710160BC
:10049000016849050FD5016821F480610160016898
:1004A00041F480510160016821F4805101600168CC
:1004B00041F4806101607047003C024008490A68CD
:1004C00022F440720A600A6842F004020A600A6874
:1004D0004FF4803343EA002002430A607047000073
:1004E000103C0240064A136823F4407313601368FB
:1004F0001360136843F0010313600170704700003C
:10050000103C0240094910B50C6824F440740C609A
:100510000C6844F440740C600C6844F001040C60F6
:100520000260BFF36F8F436010BD0000103C0240BB
:10053000074A136823F440731360136843F480730D
:100540001360136843F001031360018070470000DB
:10055000103C0240074A136823F440731360136889
:1005600043F400731360136843F0010313600160E8
:1005700070470000103C024017490868C20617483F
:1005800005D5C26942F01002C26110220A600A68F1
:10059000920605D5C26942F00802C26120220A60B3
:1005A0000A68520605D5C26942F00402C2614022BF
:1005B0000A600A68120605D5C26942F00202C261E9
:1005C00080220A600A68920705D5C26942F02002BB
:1005D000C2610220086070470C3C02400407002002
:1005E00070B5114904460020C86100F013FC0646AE
:1005F0000E4D09E0601C07D024B100F00BFC801BFD
:10060000A04201D9032070BD2868C003F2D4286835
:10061000C00701D001202860286810F0F200F2D055
:10062000FFF7AAFF012070BD040700200C3C024028
:100630002DE9F04115460E46074600F0DDFA00248C
:1006400009E000BF56F8242007EB840100230220B4
:1006500000F094FA641CAC42F4D3BDE8F04100F021
:1006600083BA000001461E4A00200A44B2F5003F4A
:1006700001D20B2070471B4A914201D30A207047D8
:10068000194A914201D309207047184A914201D377
:1006900008207047164A914201D307207047154A37
:1006A000914201D306207047134A914201D305209D
:1006B0007047124A914201D304207047104A914278
:1006C00001D3032070470F4A914201D302207047A3
:1006D0000D4A914202D20D4A9142F8D3012070474F
:1006E0000000F2F700000C0800000A0800000808EB
:1006F00000000608000004080000020800000108CD
:1007000000C00008008000080060000800400008E9
:100710002DE9F0410446876D00F07CFB064694F815
:1007200035000025022806D08020606584F834500A
:100730000120BDE8F0812068016821F01601016008
:100740002068416921F080014161206C08B9A06CEA
:1007500020B12068016821F008010160206801686B
:1007600021F0010101600CE000F054FB801B052822
:1007700007D920206065032084F8350084F83450C0
:10078000D7E720680068C007EED194F85C103F20DE
:100790008840B860012084F8350084F83450002087
:1007A000C7E790F83510022903D080214165012068
:1007B0007047052180F835100068016821F00101BB
:1007C00001600020704700002DE9F84304464FF017
:1007D0000009CDF8009063484FF41651A56D0068EC
:1007E000B0FBF1F72E6894F85C10082000FA01F1D4
:1007F00031420FD021680A6852070BD50A6822F0EF
:1008000004020A6094F85C108840A860606D40F0B3
:100810000100606594F85C104FF0010808FA01F0DF
:10082000304208D021684969090604D5A860606D86
:1008300040F00200606594F85C100420884030426B
:1008400008D021680968890704D5A860606D40F068
:100850000400606594F85C1010208840304218D085
:1008600021680968090714D5A86020680168490350
:1008700004D50068000308D5A16C07E00168C9052C
:1008800003D4016821F008010160216C09B1204600
:10089000884794F85C1020208840304231D021688D
:1008A0000968C9062DD5A86094F835000528206888
:1008B000016806D0490347D5006800031DD4616C68
:1008C0001CE021F0160101602068416921F08001DF
:1008D0004161206C08B9A06C20B12068016821F04A
:1008E0000801016094F85C103F208840A86084F8FB
:1008F000358084F83490216D1FE0E16B09B120460A
:100900008847606D00282BD0606DC00714D005208B
:1009100084F835002068016821F001010160009829
:10092000401C0090B84203D820680068C007F6D188
:1009300084F8358084F83490E16C002910D001B03F
:100940002046BDE8F04308470168C905D5D40168D1
:1009500021F01001016084F8358084F83490CCE7F0
:10096000BDE8F883140000202DE9F041044600F0B2
:1009700051FA06465CB1022084F83500002584F85F
:1009800034502068016821F0010101600DE0012070
:10099000BDE8F08100F03EFA801B052805D9202033
:1009A0006065032084F83500F2E720680068C0071E
:1009B000F0D12268116820480140D4E901031843AE
:1009C000D4E903363343184363691843A3691843D2
:1009D000E3691843236A18430843616A042903D171
:1009E000D4E90B1319430843106020684069666A14
:1009F00020F0070130460E43012704280CD1A06ADD
:100A00000643E06A40B12046FFF7C4FC20B1402015
:100A1000606584F83570BAE7206846612046FFF7C4
:100A2000A5FC94F85C203F2191408160656584F8C5
:100A300035700020ACE700003F8010F02DE9F04158
:100A40000446866D90F83400002501280DD0012061
:100A500084F8340094F835700020012F07D084F812
:100A6000340002252846BDE8F0810220FBE702277A
:100A700084F8357060652046FFF7B6FC94F85C108A
:100A80003F208840B0602068016841F01601016095
:100A9000206C20B12068016841F0080101602068E5
:100AA000016841F001010160DCE7000070B5044617
:100AB00000F0B0F90546601C02D0044800780444F8
:100AC00000F0A8F9401BA042FAD370BD0800002036
:100AD0002DE9F047044622480F46017E01290AD03D
:100AE0000121804601764CF250394846FFF778FDE7
:100AF000020003D02FE00220BDE8F0874FF0FF3066
:100B000038602068174D012801D0A6681CE0207CC1
:100B10006168FFF7D3FC4846FFF762FD024628688C
:100B200020F00400286014E0217C3046FFF774FCBC
:100B30004846FFF755FD0200286820F0FA002860BB
:100B400001D03E6005E0761CD4E902100844B042B2
:100B5000EAD8FFF789FC002188F818101046CBE787
:100B600004070020103C02400348016841F00041A6
:100B70000160002070470000103C02402DE9F04762
:100B80001B4E05461446307E1F468946012808D074
:100B9000012030764CF250384046FFF721FD18B165
:100BA00014E00220BDE8F0879DB1012D16D0022D82
:100BB00019D022463B464846FFF7A4FC4046FFF7C3
:100BC0000FFD0C490A6822F001020A60002131760B
:100BD000E8E7E1B24846FFF785FCEFE7A1B24846F7
:100BE000FFF7A6FCEAE721464846FFF7B3FCE5E736
:100BF00004070020103C0240074900200A68002A30
:100C000009DA054A054B0C3A1360054B1360096875
:100C1000002900DA01207047103C0240230167459B
:100C2000AB89EFCD2DE9F84FDFF8BCA100220125FB
:100C300003264FF00F090AF1040BAAF1040E00BFBE
:100C40000B6805FA02F42340A34270D10F7907F034
:100C50000307012F01D0022F16D187684FEA4208FF
:100C600006FA08FC27EA0C07D1F80CC00CFA08FCBD
:100C70004CEA070CC0F808C04768A7430C79C4F3D6
:100C8000001494403C4344600C79E443A4070AD028
:100C9000C4684FEA420C06FA0CF7BC438F6807FAA7
:100CA0000CF72743C7600C7904F00304022C12D11F
:100CB000D40800EB840CDCF820405707FF0E09FA3B
:100CC00007F824EA0804D1F8108008FA07F848EA7F
:100CD0000408CCF8208004684FEA420C06FA0CF7AE
:100CE000BC430F7907F0030707FA0CF727430760A7
:100CF0004C6814F4403F70D03C4C276847F4804760
:100D00002760246822F0030704F480440094384CE0
:100D100007EB040CDCF8084897074FEA177809FA44
:100D200008F7BC43334FB84202D1002724E054E017
:100D3000314FB84201D101271EE0304FB84201D1F6
:100D4000022719E02E4FB84201D1032714E02D4F9E
:100D5000B84201D104270FE02B4FB84201D105273B
:100D60000AE02A4FB84201D1062705E0284FB842D1
:100D700001D1072700E0082707FA08F72743CCF836
:100D80000878DAF800405746D1F804C09C435FEA7F
:100D9000CC2C00D51C433C60DBF800405F46D1F80A
:100DA00004C09C435FEA8C2C00D51C433C60DEF8F9
:100DB00000407746D1F804C09C435FEA8C3C00D5E4
:100DC0001C433C60084F083F3C68D1F804C09C437A
:100DD0005FEACC3C00D51C433C60521C102AFFF457
:100DE0002FAFBDE8F88F0000083C014044380240B6
:100DF00000300140000002400004024000080240B0
:100E0000000C024000100240001402400018024092
:100E1000001C024001488068704700000800002064
:100E20000248816802781144816070470800002000
:100E30000B4810B5016841F400710160016841F48C
:100E400080610160016841F480710160032000F05D
:100E50006FF80F2000F006F800F024F8002010BD15
:100E6000003C024070B50D4D04464FF47A7128786D
:100E7000B1FBF0F00A490968B1FBF0F000F01EFB8D
:100E800048B9102C07D200222146501E00F030F83D
:100E900000206C6070BD012070BD000008000020C3
:100EA000140000200A4808B5016841F4804101603F
:100EB000006800F4804000900548001F016841F080
:100EC00080510160006800F08050009008BD000073
:100ED00044380240002809DB00F01F020121914044
:100EE0004009800000F1E020C0F8001170470000C8
:100EF000F0B40E4B1B680C46C3F30223C3F1070585
:100F0000042D00D90425191D072901D2002300E072
:100F1000DB1E012606FA05F1491E214099409E403C
:100F2000761E16403143F0BC01F0C4B90CED00E070
:100F3000064900F0070208684FF6FF03184040EA30
:100F40000220034A10430860704700000CED00E0E7
:100F50000000FA05BFF34F8F05480168054A01F408
:100F6000E06111430160BFF34F8F00BFFDE7000058
:100F70000CED00E00400FA052DE9F0470E460500EF
:100F800065D0DFF81481D8F80000F7B200F0070050
:100F9000B04207D288F80070D8F8000000F00700CF
:100FA000B04254D128683D4C810712D5400703D583
:100FB000206840F4E05020602878000703D52068BE
:100FC00040F4604020602068A96820F0F0000843E9
:100FD00020602878C0072DD030496868083901287A
:100FE00012D0022813D0032811D0096889070029DC
:100FF0002DDA216821F0030101432160FFF70AFF88
:10100000814641F2883A0EE009688903EFE70968F2
:101010008901ECE7FFF7FEFEA0EB0901514502D97B
:101020000320BDE8F0872068696800F00C00B0EB91
:10103000810FEFD1D8F80010404601F00701B1420E
:1010400007D90770006800F00700B04201D0012006
:10105000E7E72878400705D52068E96820F4E050E4
:10106000084320602878000706D52068296920F405
:10107000604040EAC100206000F038F82168084A6A
:10108000C1F30311515CC840064908600648006876
:10109000FFF7E8FE0020C4E7003C024008380240A9
:1010A000B4250208140000200C0000200448054963
:1010B00000680968044AC1F38221515CC840704746
:1010C0001400002008380240C425020804480549DD
:1010D00000680968044AC1F34231515CC840704756
:1010E0001400002008380240C4250208154810B535
:1010F000006810F00C02144813D01449042A0FD0D1
:10110000082A0ED10F4C241F2268236802F03F02E8
:101110005B0207D52068C0F38810A0FB010106E040
:10112000084610BD2168C1F38811A1FB000100230E
:10113000FFF746F82168C1F30141491C4900B0FBA3
:10114000F1F010BD083802400024F40040787D0121
:101150002DE9F84F04006ED02078DFF84C93C007DB
:10116000A9F104054AD009F104000168C1F3810125
:10117000012908D00068C0F3810002280AD1D9F8FB
:101180000000400206D52868800337D56068002833
:10119000E1D033E06068B0F5803F10D0B0F5A02F0B
:1011A000286810D020F480302860286820F480203F
:1011B00028606068A8B1FFF72DFE06460DE028689C
:1011C00040F48030F4E740F480202860F7E700BF67
:1011D000FFF720FE801B642873D828688003F7D5AA
:1011E0000CE0FFF717FE064605E000BFFFF712FE12
:1011F000801B6428F0D828688003F7D42078DFF8B3
:10120000AC8280074FF0000A3ED5A748001D016858
:1012100011F00C0F08D00068C0F3810002280BD138
:10122000D9F80000400207D42868800716D5E06886
:10123000012800D112E033E1E068B8B10120C8F81C
:101240000000FFF7E7FD064605E000BFFFF7E2FDFF
:10125000801B0228C0D828688007F7D52868216934
:1012600020F0F80040EAC10028600DE0C8F800A0B6
:10127000FFF7D0FD064604E0FFF7CCFD801B0228F7
:101280001FD828688007F7D42078000722D5864F1A
:1012900087486169703771B101210160FFF7BAFDBC
:1012A000064604E0FFF7B6FD801B022809D838681F
:1012B0008007F7D50EE0C0F800A0FFF7ABFD0646AB
:1012C00005E082E0FFF7A6FD801B02287DD8386884
:1012D0008007F7D42078400768D5DFF8CCB1002725
:1012E0000BF13C0BDBF80000C0000BD4DBF8001066
:1012F00041F08051CBF80010DBF80000012700F02E
:10130000805000906B4E3068C00510D4306840F4B7
:1013100080703060FFF77EFD009005E0FFF77AFDFA
:101320000099401A022850D83068C005F6D55E4EA4
:10133000A0686C3601280FD00528306810D020F046
:1013400001003060306820F004003060A068B8B15F
:10135000FFF760FD00900FE0306840F00100F4E717
:1013600040F004003060F7E7FFF754FD0099411AA0
:1013700041F28830814266D830688007F4D50EE0AB
:10138000FFF748FD009007E0FFF744FD0099411A80
:1013900041F28830814256D830688007F4D42FB1AA
:1013A000DBF8001021F08051CBF80010A069C8B321
:1013B0003D49091D0968C1F3810102294AD002286B
:1013C000504607D0C8F8600000E03CE0FFF722FD7F
:1013D00004463BE04746C8F86000FFF71BFD0646A1
:1013E00005E000BFFFF716FD801B02282BD82868F8
:1013F0008001F7D4D4E907010843A16A2E4A4908BD
:1014000002EB0141626A41EA8211084394F82C1010
:1014100040EA0161C9F8001001203866FFF7FAFCC4
:10142000044606E03EE000BFFFF7F4FC001B022884
:1014300009D828688001F7D534E000BFFFF7EAFC3F
:10144000001B022802D90320BDE8F88F286880011C
:10145000F4D427E00128F7D0D9F80000E26900F4BD
:10146000800191421CD1226A00F03F01914217D1C4
:1014700047F6C071626A0140B1EB821F10D1A26AC7
:101480004FF0FF3300F4403103EB5202B1EB024F57
:1014900006D194F82C1000F07060B0EB016F01D011
:1014A0000120D1E70020CFE7043802400000474286
:1014B000800E4742007000400000FFFF10B5401E44
:1014C000B0F1807F01D3012010BD4FF0E0246061B6
:1014D0000F21601700F0EEFE0020A06107202061C0
:1014E000002010BD704710B504460068406994F8AC
:1014F0003D10C0F3C010212911D180B120681430F3
:1015000050E8001F21F0800140E80012002AF5D1C8
:10151000606B08B1FFF7FCF8204600F0E5FB20689F
:10152000406994F83E10C0F38010222911D180B197
:101530002068143050E8001F21F0400140E80012FC
:10154000002AF5D1A06B08B1FFF7E2F8204600F0C1
:10155000A4FB002010BD7047F8B501680446086878
:10156000CA684B6910F00F0F4FF0000559D003F017
:10157000010602F49077374365D0C10705D0D10545
:1015800003D5216C41F001012164410705D5D9073C
:1015900003D0216C41F002012164810705D5D907F0
:1015A00003D0216C41F004012164010707D502F04A
:1015B0002001314303D0216C41F008012164216CEA
:1015C00000293AD0800604D5900602D5204600F0C6
:1015D00099FB20684069216CC0F38010090700D492
:1015E00060B3204600F059FB20684069400621D5D1
:1015F0002068143050E8001F21F0400140E800123C
:10160000002AF5D1A06BA8B16C490165A06BFFF76A
:10161000C8F8002811D0A06B016D01B0BDE8F04002
:10162000084783060FD593060DD52046BDE8F84040
:1016300000F068BB2046FFF78EFFF8BD2046FFF79D
:101640008AFF2564F8BD266B2023012E79D1C606BA
:1016500077D5D60675D50868486800904869400671
:1016600040D5A16B086840680004000CEAD0A28D48
:101670008242E7D9E085C869B0F5807F2DD0206827
:101680000C3050E8001F21F4807140E80012002A5D
:10169000F5D12068143050E8001F21F0010140E826
:1016A0000012002AF5D12068143050E8001F21F004
:1016B000400140E80012002AF5D184F83E3025634D
:1016C00020680C3050E8001F21F0100140E80012A3
:1016D000002AF5D1A06BFFF71BF8A08DE18D401A11
:1016E00081B229E0A08DE18D401A81B2E08D002801
:1016F000A8D00029A6D020680C3050E8002F22F492
:10170000907240E80026002EF5D12068143050E891
:10171000002F22F0010240E80026002EF5D184F8C7
:101720003E30256320680C3050E8002F22F0100274
:1017300040E80023002BF5D12046FFF7D3FEF8BD8B
:10174000FFE705062BD5150629D594F83D0021287D
:10175000F5D1A068B0F5805F01D12069B0B1206AF1
:10176000411C2162216800784860E08C401E000422
:10177000000CE084E3D12068C16821F08001C160E1
:101780002068C16841F04001C160D8E7206A008844
:10179000C0F308004860206A801C2062E5E740062C
:1017A000CDD55006CBD5CA68204622F04002CA608B
:1017B00084F83D3000F029F9C1E70000A51B0208BC
:1017C00070B5040004D094F83D00002510B106E087
:1017D000012070BD84F83C50204600F023F82420FE
:1017E00084F83D002068C16821F40051C1602046A2
:1017F00000F0E8FA2068016921F490410161206855
:10180000416921F02A0141612068C16841F4005119
:10181000C1602564202084F83D0084F83E0000204B
:1018200070BD0000F0B587B0064614216846FEF78B
:1018300011FDDFF8DCC030680025364902220323A1
:101840000727354C604521D132481430066846F0F0
:1018500010060660006800F010000590086840F06F
:10186000010008600868694600F001000590580210
:101870008DE82500CDE903372046FFF7D3F9002294
:1018800011462520FFF734FB25203DE0DFF88CC012
:1018900060453BD11F481030D0F800C04CF4003CEC
:1018A000C0F800C0006800F400300590086840F0FF
:1018B000010008600868694600F0010005900C20EE
:1018C0008DE82500CDE903372046FFF7ABF9154C2D
:1018D000134820604FF00060C4E901054014C4E9DA
:1018E00003506561A561E561256220466562FFF7E9
:1018F0003BF808B1FEF78DFDB463002211462620A7
:10190000A663FFF7F5FA2620FFF7E4FA07B0F0BD6B
:101910000010014030380240000002400044004006
:1019200088600240A400002090F83E30202B0ED1A9
:1019300059B152B190F83C30012B08D0012380F806
:101940003C300023036300F0C3BA0120704702203B
:1019500070477047704700002DE9F843044690F83F
:101960003D001F4616460D4620284CD1C5B1BEB1DC
:1019700094F83C00012846D0012084F83C004FF048
:101980000008C4F84080212084F83D00FFF742FAA7
:10199000A6848146E684A068B0F5805F03D004E0A9
:1019A0000120BDE8F883206928B12E465FF00005CC
:1019B00084F83C800EE00026FAE78021204600F003
:1019C000D1FAA0B9AEB116F8010B21684860E08CDD
:1019D000401EE084E08C4B464FF000020097002848
:1019E000EBD14FF04001204600F0BCFA30B10320AB
:1019F000D7E735F8020BC0F30800E6E7202084F8AB
:101A00003D000020CDE70220CBE77047FEE7000055
:101A1000094808B5016841F400110160006800221E
:101A200000F40010009011461020FFF761FABDE8A5
:101A300008401020FFF74EBA30380240094808B578
:101A4000016841F080010160016801F080010091AE
:101A5000016841F001010160006800F001000090A0
:101A600008BD0000303802400C4810B50A4901603A
:101A70004FF4E1314160002181600C22C160C0E976
:101A800004128161C161FFF79BFE002803D0BDE80D
:101A90001040FEF7BEBC10BD001001401C0000202D
:101AA0000C4810B50A4901604FF4E1314160002152
:101AB00081600C22C160C0E904128161C161FFF73D
:101AC0007FFE002803D0BDE81040FEF7A2BC10BD89
:101AD0000044004060000020FEE7FEE770477047CA
:101AE00001B54FF6FF73012269460348FFF734FF43
:101AF0000A20FEF7DBFF08BD60000020FFF790B969
:101B000030B593B030216846FEF7A4FB14210CA831
:101B1000FEF7A0FB1D480025016841F080510160DF
:101B2000006800F0805011901948016841F480412C
:101B300001600068022400F48040119001200390AD
:101B400010200490009406940820CDE90750A820A6
:101B5000CDE9090404200B906846FFF7F9FA08B1B3
:101B600072B6FEE70CA90F2081E831004FF4A050B7
:101B70000F904FF48050109005210CA8FFF7FCF94E
:101B8000002801D072B6FEE713B030BD40380240E5
:101B9000007000400248016841F470010160704724
:101BA00088ED00E010B5806B0021C185C184FFF78E
:101BB000D2FC10BD70B5846B2068406994F83D106C
:101BC000C0F3C0100025212904D118B1E5842046B6
:101BD00000F08AF82068406994F83E10C0F3801045
:101BE000222904D118B1E585204600F056F8206C72
:101BF00040F0100020642046FFF7ADFC70BD10B52A
:101C00000146806B09680968C9052FD40021C18588
:101C100001680C3151E8002F22F4807241E8002362
:101C2000002BF5D10168143151E8002F22F0010298
:101C300041E80023002BF5D10168143151E8002F51
:101C400022F0400241E80023002BF5D1202180F84A
:101C50003E10016B012909D101680C3151E8002FB8
:101C600022F0100241E80023002BF5D1016B01297D
:101C700002D0FFF76EFE10BD818DFFF733FC10BD63
:101C800010B5806B016B012902D0FFF763FE10BD18
:101C9000818D4908FFF726FC10BD01680C3151E821
:101CA000002F22F4907241E80023002BF5D1016847
:101CB000143151E8002F22F0010241E80023002BEB
:101CC000F5D1016B012909D101680C3151E8002FD0
:101CD00022F0100241E80023002BF5D1202180F8EA
:101CE0003E1000210163704701680C3151E8002F5C
:101CF00022F0C00241E80023002BF5D1202180F81A
:101D00003D10704708B590F83E10222901D00220FE
:101D100008BD82684FF480539A4201D1016921B114
:101D2000816A9A421BD04AB10AE00268816A52680D
:101D3000C2F308020A80816A891C08E0026972B154
:101D40000268526802F07F020A70816A491C81624F
:101D5000C18D491E0904090CC18503D019E0026830
:101D60005268F1E70168CA6822F02002CA6001687F
:101D7000CA6822F48072CA6001684A6922F00102CE
:101D80004A61202180F83E10016B012903D0FFF742
:101D9000E0FD002008BD0021016301680C3151E81D
:101DA000002F22F0100241E80023002BF5D101683A
:101DB0000A68D20602D50A6849680091818DFFF74A
:101DC00091FBE6E770B5044600680169E26821F41A
:101DD0004051114301612169A068E26908436169CA
:101DE000114308432168CA6849F20C639A430243CD
:101DF000CA6020684169A26921F4407111434161C0
:101E000031492068884202D03049884202D1FFF728
:101E10005DF901E0FFF74AF9E26900231921642521
:101E20003226B2F5004F626828D0A0FB0101930F63
:101E30009200FEF7C5F90146B0FBF5F06FF018020D
:101E4000504301EB800006EB0010B0FBF5F000F012
:101E5000F002B1FBF5F002EB0012B1FBF5F06FF010
:101E60001803584301EB800006EB0010B0FBF5F0BF
:101E700000F00F0021681044886070BDA0FB0101D4
:101E800092185B41FEF79CF90146B0FBF5F00201A8
:101E9000B1FBF5F06FF01803584301EB800006EB3F
:101EA000C000B0FBF5F000F0F80002EB4002B1FB1F
:101EB000F5F0584301EB800006EBC000B0FBF5F0F5
:101EC00000F00700D6E700000010014000140140B8
:101ED00038B58162828500251346044605642220B8
:101EE00084F83E00A26B1C48D063A26B1B481064B0
:101EF000A26B1B48D064A06B0A4605652168A06BE5
:101F0000091DFEF79BFD206801684068009084F879
:101F10003C50206948B120680C3050E8001F41F463
:101F2000807140E80012002AF5D12068143050E892
:101F3000001F41F0010140E80012002AF5D120689D
:101F4000143050E8001F41F0400140E80012002A20
:101F5000F5D1002038BD0000FF1B0208811C0208DB
:101F6000B51B02082DE9F041984617460E46044677
:101F7000069D27E0681C25D02DB1FEF74BFFA0EB96
:101F80000800A8421ED920680C3050E8001F21F438
:101F9000D07140E80012002AF5D12068143050E8D2
:101FA000001F21F0010140E80012002AF5D1202095
:101FB00084F83D0084F83E00002084F83C000320B3
:101FC000BDE8F0812068006836EA000004D00020F7
:101FD000B842CFD00020F3E70120F9E70148FFF72E
:101FE000BBBA00001C00002038B5114C2068016805
:101FF000C943C90614D40168406800902046FFF721
:1020000072FAA06B006840680A49C0F580600880D9
:10201000094901208202087008492046FFF784FC24
:102020000348FFF799FABDE838400148FFF794BA32
:1020300060000020040000200300002004030020B2
:10204000FEE70000F0B55F4D87B02878012806D183
:102050004320FFF745FD4FF47A70FEF727FDE8783F
:10206000002875D00026EE7057492A796A70A1F5CC
:102070000070FEF7D6F8554C207801280CD00428C3
:1020800066D1287802287DD004287CD050A007B0E3
:10209000BDE8F04000F0FEB869784C48FEF72EF934
:1020A000002876D0287801281DD0052858D002288D
:1020B0004ED16178A87881424AD1A278C943C9B289
:1020C0008A427DD1C1014AA000F0E4F8A8785049C5
:1020D000202201EBC010E11CFEF7AAFAA878401CF0
:1020E000A870062067E06078002869D1A078FF28F2
:1020F00066D148A000F0CEF8022028700120A87018
:102100000620FFF7EDFC4320FFF7EAFC404C474D6B
:1021100080340596FEF770FD2046FEF7A3FA0746C9
:10212000029000962846FEF79DFAC01B03900220FD
:10213000049005A96846FEF7CBFCFEF715FD28467E
:10214000FEF790FA05462046FEF78CFA291A00E0C1
:1021500036E007B036A0BDE8F040491C00F09AB860
:10216000607800282CD1A078FF2829D136A000F073
:1021700091F8FEF7E9F8012028700620FFF7B0FC7F
:1021800007B002E007E00DE003E0BDE8F040FEF735
:10219000E1BE32A07BE735A000F07CF80420287077
:1021A000152008E036A000F075F8052028700620FC
:1021B000FFF796FC432007B0BDE8F040FFF790BC66
:1021C00007B0F0BD0000002004030020040100203F
:1021D0003E205265636569766520454F542C204248
:1021E0007574206572726F722E2E2E0D0A0000001B
:1021F0003E20526563656976652064617461206282
:1022000061673A256420627974650D0A0000000058
:1022100080FF07083E205265636569766520737408
:102220006172742E2E2E0D0A00000000FFFF0D08B3
:102230003E20457261736520415050322025642054
:10224000706167650D0A00003E205265636569761E
:102250006520656E642E2E2E0D0A00003E204E6F06
:102260007470617373206372630D0A003E205265BF
:10227000636569766520454F54312E2E2E0D0A0078
:102280003E205265636569766520454F54322E2E97
:102290002E0D0A000FB4054B10B503A9044A02988D
:1022A00000F028F810BC5DF814FB00004924020877
:1022B000180000200907090E002804DB00F1E020C7
:1022C00080F80014704700F00F0000F1E02080F863
:1022D000141D704702E008C8121F08C1002AFAD175
:1022E00070477047002001E001C1121F002AFBD196
:1022F000704700002DE9FF4F89B09B46044600253A
:1023000006E025280BD05A460B999047641C6D1C9B
:1023100020780028F5D10DB02846BDE8F08F0027C1
:10232000B8460122474900E0074314F8013F203B2B
:1023300002FA03F00842F7D120782E2819D114F8B8
:10234000010F47F004072A280ED06FF02F022078E3
:10235000A0F1300109290CD808EB880102EB4101FA
:1023600000EB0108641CF2E70A98641C50F8048B27
:102370000A9020780028CED0642808D0692806D09A
:1023800075281ED05A460B9990476D1C58E00A9943
:102390004FF00A0901C90A91002802DA40422D21B2
:1023A00002E0390504D52B218DF82010012103E02E
:1023B000F90704D02021F7E78A4608AE0DE0002196
:1023C000FAE70A994FF00A0901C90A91F7E7494665
:1023D000FDF74BFF303106F8011D0028F7D1ADEBBA
:1023E000060000F12009780701D44FF00108C84524
:1023F00002DDA8EB090000E000208046002706E08F
:1024000008A85A46C05D0B9990476D1C7F1C574524
:10241000F6DB04E030205A460B9990476D1CB8F16A
:102420000001A8F10108F5DC05E016F8010B5A4699
:102430000B9990476D1CB9F10001A9F10109F4DC79
:10244000641C65E70928010013B54FF6FF730122EC
:1024500069460248FFF780FA00981CBD1C00002066
:102460001C491B48086062B6FEF7E2FCFFF748FB18
:10247000FFF7E4FAFFF7CCFAFFF7F6FAFFF710FBE5
:102480004FF4806214491548FFF74EFA134800686C
:10249000C16841F01001C16011A0FFF7FBFE11A05F
:1024A000FFF7F8FE19A0FFF7F5FE22A0FFF7F2FEF6
:1024B0002AA0FFF7EFFE33A0FFF7ECFE13A0FFF713
:1024C000E9FE08A0FFF7E6FEFFF7BCFDFCE7000011
:1024D0000000020808ED00E0040300206000002076
:1024E0000D0A00002A2A2A2A2A2A2A2A2A2A2A2ADD
:1024F0002A2A2A2A2A2A2A2A2A2A2A2A2A2A2A2A3C
:102500002A2A2A2A2A2A2A0D0A0000002A20202004
:1025100020202020202020202020202020202020BB
:1025200020202020202020202020202020202A0DB4
:102530000A0000002A202020202020422D426F6F18
:10254000742D46342773204170706C69636174691F
:102550006F6E202020202A0D0A0000002A20202053
:1025600020202020202020466F722074686520746F
:1025700065737420202020202020202020202A0D78
:102580000A0000002A20202020202020202056653C
:102590007273696F6E203A2020302E312020202067
:1025A0002020202020202A0D0A00000000061016FE
:1025B00000061016000000000000000001020304E5
:1025C000060708090000000001020304EC250208C8
:1025D000000000201C000000D42202080826020887
:1025E0001C0000200C0B0000E42202080100000087
:1025F00000000000010000001000000000000000CA
:082600000024F40000000000BA
:040000050802018963
:00000001FF
