:020000040800F2
:109000000011002045910008E7BC0008EDB60008FB
:10901000E5BC0008C99800089DC2000800000000D7
:10902000000000000000000000000000EBBC000891
:10903000BDA2000800000000E9BC0008F5BD000862
:109040005F9100085F9100085F9100085F91000840
:109050005F9100085F9100085F9100085F91000830
:109060005F9100085F9100085F9100085F91000820
:10907000E5980008F19800085F9100085F910008EA
:109080005F9100085F9100085F9100085F91000800
:109090005F9100085F9100085F9100085F910008F0
:1090A0005F9100085F9100085F9100085F910008E0
:1090B0005F9100085F9100085F9100085F910008D0
:1090C0005F9100085F9100085F9100085F910008C0
:1090D0005F91000845C200085F91000851C2000876
:1090E0005F9100085F9100085F9100085F910008A0
:1090F0005F9100085F9100085F9100085F91000890
:109100005F9100085F9100085F9100085F9100087F
:109110005F9100085F9100085F9100085F9100086F
:109120005F9100085F9100085F9100085F9100085F
:10913000DFF80CD000F006FA0048004779C60008B6
:10914000001100200648804706480047FEE7FEE77A
:10915000FEE7FEE7FEE7FEE7FEE7FEE7FEE7FEE7E7
:1091600057BE000831910008202A04DB203A21FA7A
:1091700002F00021704721FA02F3D040C2F1200230
:10918000914008431946704740EA01039B0703D00A
:1091900009E008C9121F08C0042AFAD203E011F836
:1091A000013B00F8013B521EF9D27047D2B201E0F8
:1091B00000F8012B491EFBD270470022F6E710B5DC
:1091C00013460A4604461946FFF7F0FF204610BD35
:1091D00030B505462A460B4612F8010B13F8014B31
:1091E00008B1A042F8D01CB1002802D06D1CF1E7F4
:1091F000284630BD421C10F8011B0029FBD1801A03
:10920000704730B504460020034600E05B1C9342E3
:1092100003D2E05CCD5C401BF8D030BD034611F8B2
:10922000012B00F8012B002AF9D1184670470000E5
:109230000FB400B58DB010A909900B9000914FF0BC
:10924000FF300A9000200C900548069005480790D2
:109250006A4609A80F9900F047F90DB05DF814FBB4
:1092600005950008239500082DE9FF5F1D464FF086
:10927000FF3BD5E9014691465F464FF00008A969DA
:109280007F1C01988847296A824688470028F6D1C2
:10929000BAF1FF3F0CD024F4C064002E19DD600643
:1092A00014D5BAF12B0F09D0BAF12D0F0ED103E06E
:1092B000584604B0BDE8F09F44F48064A9697F1C5F
:1092C00001988847761E8246002E02DDBAF1300FE3
:1092D00003D0B9F1000F26D032E0A969761E44F41C
:1092E00000747F1C019888478246002E05DDBAF184
:1092F000780F06D0BAF1580F03D0B9F1000F10D093
:109300001EE0B9F1000F02D0B9F1100F18D1A96910
:10931000761E24F400747F1C019888478246102032
:1093200002E0082000E00A20814609E008FB090865
:10933000A969761E44F400747F1C01988847824610
:10934000002E05DD4946504600F0BAF80028EDDA57
:10935000E96901988847A00502D46FF00100A8E7E9
:10936000E00725D1600613D5600502D5C8F10000DD
:1093700000E0404629680A1D2A600968220501D5D7
:10938000087015E0220701D5088011E008600FE0A1
:109390002868011D29600068210502D580F8008039
:1093A00006E0210702D5A0F8008001E0C0F80080A7
:1093B00038467EE72DE9FF5FD2E901A74FF00008AC
:1093C000916999461446DDF838B0464601988847B9
:1093D000054659EA0B0005D009E0A169761C019801
:1093E00088470546216A284688470028F5D1681C29
:1093F00003D05FEACA7005D015E04FF0FF3004B02B
:10940000BDE8F09F2068011D2160D0F800800AE0CF
:109410005FEACA7001D108F8015BA169761C7F1E62
:10942000019888470546002F1ADD681C18D0B9F14D
:10943000000F0DD0E81705EBD060421120F01F009F
:1094400059F822102A1A012090400142E0D107E089
:10945000BBF1000FDCD1216A284688470028D7D00D
:10946000E16901988847BBF1000F07D1002E05DDA7
:109470005FEACA7002D1002188F80010A068B842E3
:1094800003DDBBF1000F03D017B16FF00100B6E7A9
:109490003046B4E730B50B460146002020220124B7
:1094A00009E021FA02F59D4205D303FA02F5491BB2
:1094B00004FA02F52844151EA2F10102F1DC30BDC8
:1094C0003A2800D2303820F02002412A01D3A2F1FC
:1094D0003700884201D34FF0FF30704702681144D3
:1094E0001378016018467047D160044951610449FE
:1094F000116200211161114600F03CB8DD940008B2
:1095000069950008426842B1016811F8013B23B136
:10951000521EC0E90012184670470121C160881E22
:10952000704742685AB1C368016843B983688B4287
:1095300005D0491E521CC0E90012002070474FF0B0
:10954000FF307047064C074D06E0E06840F001032D
:1095500094E8070098471034AC42F6D3FFF7ECFDCF
:1095600070CB000890CB0008C0B24FF4F05100F06F
:1095700097B900002DE9F34F8BB04FF0000801F1CF
:109580000C000C464FF0010B46460DF1080A019005
:109590006269012101989047051E2DD0252D2CD000
:1095A000216A8847C0B16269012101989047216A08
:1095B00088470028F7D1411E62690198904700E072
:1095C000761CA1690B988847216A88470028F7D143
:1095D000E1690B988847DBE7A1690B988847074644
:1095E000A84201D1761CD3E7E1690B9888477F1C1C
:1095F00002D1B8F1000F6FD046E1002762693D4605
:109600003946019890472A2804D1626901210198BE
:1096100090470125DFF88492626901210198904703
:10962000A0F130010A290AD24F45E5DC07EB87019A
:1096300000EB4107303FDFD445F01005ECE7E906C9
:1096400001D46FF000476C280AD04C2814D0682849
:1096500015D06A280DD074281CD07A281AD01DE0A5
:1096600062690121019890476C2802D045F00405F9
:1096700014E045F002050DE045F020050AE06269BE
:10968000012101989047682802D045F0080505E0BF
:1096900045F400656269012101989047C4E90157CA
:1096A00065283DD019DC58287AD00CDC452837D005
:1096B00004DC252826D0412831D131E046282FD09E
:1096C00047282CD12CE05B2877D0612828D063284C
:1096D0007CD0642823D15AE0D0E06F2848D008DC41
:1096E00066281DD067281BD0692821D06E2816D186
:1096F00027E0702845D0732868D0752847D078288F
:109700000DD14DE0A1690B988847054625283FF407
:1097100069AFE1690B9888476D1C3FF46AAFB3E00D
:1097200023466A466FF001000B99AFF300809EE07C
:1097300045F040006060A80723464FF0000236D491
:109740003EE0E8077FF447AF2068011D2160006814
:10975000290501D506701BE7290701D5068017E703
:10976000A90703D5F117C0E9006111E706600FE70B
:1097700045F040006060A80723464FF0080216D469
:109780001EE040F60E0125EA0100606016E045F09B
:1097900040006060A80723464FF00A0207D40FE09C
:1097A00045F040006060A80708D5234610226FF0FE
:1097B00001000B99AFF3008059E007E02346102227
:1097C0006FF001000B99FFF74FFD50E04FF00009DB
:1097D0004F464B46632802D05B2806D040E0E8069F
:1097E00001D40120A06001273AE0626901210198BB
:1097F00090475E2805D14FF00109626949460198FA
:109800009047216939B900210A46534643F821207F
:10981000491C0829FADBB0B3216969B9C11700EB0B
:10982000D16253110AEB830122F01F02821A012038
:109830000B68904003430B606269012101989047D7
:109840005D28E8D1B9F1000F09D00020514651F848
:109850002020D24341F82020401C0828F7DB02AB2F
:10986000224600976FF001000B99FFF7A3FD002837
:109870000CDA401C08D1BBF1000F05D04FF0FF30CF
:109880000DB0BDE8F08FFFE74046F9E7E90701D1E9
:1098900008F1010806444FF0000B79E6CCCCCC0C63
:1098A0007F2801D9002208E0064A02EB5002C007D7
:1098B000127800D1120902F00F02012090400840F6
:1098C00070470000BEC80008FEE7000008B54FF072
:1098D000AA30009001226946014800F05FFD08BDF2
:1098E000FCEF0308014800F02DBE0000C401002079
:1098F000014800F027BE00008001002030B590F83C
:1099000040500124AC40C56B6C60046863604368E0
:10991000102B036803D099600068C26030BD9A6064
:109920000068C16030BD00002DE9F04105242BA185
:109930002F4802F0B5FC82B24FF6FF7633462C4931
:109940002C4801F085FE2C4D4FF47A7800272848EA
:109950002AA1C83002F0A4FC254982B23346C8319E
:10996000274801F075FE224626A1214802F098FC06
:1099700082B233461E491F4801F06AFE404600F09D
:109980007BFF641E14F0FF041FD0287A0028DED06D
:109990002F72686800786128D9D11EA1144802F09E
:1099A0007FFC82B233461249124801F051FE104842
:1099B0001CA1C83002F074FC82B20D491048334635
:1099C000C831BDE8F04101F043BE17A1084802F0DC
:1099D00067FC82B2334606490648F2E7BDF8C8EB99
:1099E000D6B8C1EEC4A3CABD2E2E2E0D0A000000AB
:1099F00028020020F0000020000000202B2B2B006C
:109A000038010020CAA3D3E02564732E2E2E0D0A40
:109A100000000000CDCBB3F6CDB8B4ABC4A3CABD33
:109A20000D0A000061000000BDF8C8EBD6B8C1EE19
:109A3000C4A3CABDCAA7B0DC210D0A0010B506A197
:109A4000084802F02DFC82B2BDE810404FF6FF73CB
:109A50000449054801F0FCBD41542B454E544D0DC1
:109A60000A000000F002002038010020F8B52B4D5C
:109A70002B492B1F1A1F0095FFF7DAFB4FF6FF76D5
:109A800003280CD027A12D4802F00AFC01B0334670
:109A9000BDE8F04082B22949294801F0D9BD294CDE
:109AA00029A12648D4F80C2402F0FAFB82B23346EE
:109AB0002249234801F0CCFD28A12048D4F81024E5
:109AC00002F0EEFB82B233461C491D4801F0C0FD96
:109AD0002A4626A1194802F0E3FB82B23346174911
:109AE000174801F0B5FDD4F80C044FF0010110F057
:109AF000FF0F4FEAE07200EB12600DD001EB202067
:109B000004F5846203C24FF48070C4F82804BDE8F1
:109B1000F840002100F034B80012F1E7F808002006
:109B200000C90008CCE1C8A14F5441B9CCBCFED05B
:109B3000C5CFA2CAA7B0DC210D0A00002802002070
:109B4000F0000020E40400204F5441B9CCBCFEB426
:109B5000F3D0A13A25640D0A000000004F5441B92A
:109B6000CCBCFE49443A25640D0A00004F5441B96B
:109B7000CCBCFEB0E6B1BE3A25730D0A0000000071
:109B800030B5C1B00C4605464FF4807101A8FFF70F
:109B900014FB0094134C2B461349D4F8102401A84D
:109BA00004F5826402F07CFBD4E904320FA113486F
:109BB00002F076FB82B24FF6FF731049104801F0B5
:109BC00047FD104B10A1A3F11E02174802F068FBDD
:109BD00001A9154801F0B4FE4FF4967000F04CFE58
:109BE00041B030BDE4040020E4C90008B5B1C7B0FD
:109BF000B5DA25642F2564B4CE0D0A0028020020B2
:109C0000F0000020DC0A00202F7379732F25732FBA
:109C100025732F7468696E672F66696C652F646F92
:109C2000776E6C6F61640000B80300200A4610B5BF
:109C300001464FF6FF73044801F00AFD08B1002009
:109C400010BD012010BD00003801002000B5A1B0FA
:109C500080216846FFF7B1FA10A212A1684602F00F
:109C60001FFB1A4B1AA1A3F11E02204802F018FB99
:109C700069461E4801F0BAFE64211C48FFF79DFAB0
:109C800006A21BA11F4802F00BFB82B24FF6FF7326
:109C90001C491D4801F0DCFC21B000BD56302E31BE
:109CA000000000007B226964223A202231222C220B
:109CB000706172616D73223A207B227665727369DE
:109CC0006F6E223A20222573227D7D00DC0A00205F
:109CD0002F6F74612F6465766963652F696E666F97
:109CE000726D2F25732F257300000000B80300202C
:109CF000C9CFB1A8B0E6B1BEBAC5A3BA25730D0AE3
:109D00000000000028020020F000002010B530A262
:109D10003BA13F4802F0C4FA82B24FF6FF742346DB
:109D20003B493C4801F094FC1E2000F0A5FD3AA1FF
:109D3000374802F0B5FA82B223463549354801F07A
:109D400087FC1E2000F098FD37A1314802F0A8FAE8
:109D500082B223462E492F4801F07AFC1E2000F0E3
:109D60008BFD36A12A4802F09BFA82B2234628498D
:109D7000284801F06DFC1E2000F07EFD34A124482F
:109D800002F08EFA82B223462149224801F060FC9B
:109D90001E2000F071FD33A11D4802F081FA82B24D
:109DA00023461B491B4801F053FC1E2000F064FDB4
:109DB00034A1174802F074FA82B2234614491548B8
:109DC00001F046FCBDE810401E2000F055BD00002B
:109DD0005443502C696F742D3036306137307471B4
:109DE0002E6D7174742E696F746875622E616C6962
:109DF00079756E63732E636F6D2C313838330000C4
:109E000041542B534F434B413D25730D0A00000035
:109E1000F00200203801002041542B534F434B41A6
:109E2000454E3D4F4E0D0A0041542B534F434B427C
:109E3000454E3D4F46460D0A0000000041542B534D
:109E40004F434B43454E3D4F46460D0A0000000030
:109E500041542B534F434B44454E3D4F46460D0A0C
:109E60000000000041542B48454152543D4F4E2CB8
:109E70004E45542C555345522C36302C43303030FF
:109E80000D0A000041542B530D0A00002DE9F04744
:109E90000E4605464FF6FF78052902D00F2E15D045
:109EA00019E0062293A1FFF7ACF9A0B993A19B4852
:109EB00002F0F6F982B243469849994801F0C8FB8E
:109EC000FFF724FFBDE8F047FFF7B8BD0F2295A1CB
:109ED000FFF797F968B10A2296A12846FFF791F992
:109EE000974C40B1DFF85C92A4F11E07042E1ED0FF
:109EF00020E095A181E001F0F9FE224696A1874875
:109F000002F0CEF982B2444643468449844801F0C7
:109F10009FFB95A1814802F0C3F982B223467F4995
:109F20007F4801F095FBBDE8F04701F0E1BB2878E0
:109F3000202806D099F8000000287DD0052E35D0C5
:109F400037E0E87808B18DA140E092A1734802F0B3
:109F5000A7F982B243467149714801F079FB0121AA
:109F600089F8001023463A4690A1974802F098F9E4
:109F7000954801F0C5FD64219348FFF71EF9642060
:109F800000F07AFC23463A4690A18F4802F088F907
:109F90008D4801F0B5FD64218B48FFF70EF9642070
:109FA00000F06AFCBDE8F047FFF750BE2878902823
:109FB00007D02878B02815D030282BD040287DD065
:109FC00013E0287960B101280AD08AA1534802F031
:109FD00067F982B243465149514801F039FB82E0AA
:109FE00089A10AE06978022912D0022E7FD1D028F7
:109FF0007DD1687800287AD188A1484802F050F9CC
:10A000004346BDE8F04782B24449454801F020BBD1
:10A0100085A1F2E789A1414802F042F982B24346A4
:10A020003E493F4801F014FB3146284601F06AFCE6
:10A030008B4889A1814600E059E0FFF7C9F810B1CB
:10A040004846FFF713FD23463A4660A15E4802F0FA
:10A0500027F95D494846FFF7BBF8002847D0814CF7
:10A06000814AD4F82804301A4119D4F82404891EEE
:10A0700002EB0020402204F5846400F08FF961684F
:10A080004FF48070491C61602268A4F58464914299
:10A090000DDB1CD1D4F80C2412F0FF0F07D04FEACF
:10A0A000E27002EB106020F0FF00A2EB00004FEA2C
:10A0B0000121A1F58071C4F8280400E015E0FFF744
:10A0C0005FFDBDE8F04764213F48FFF776B867A120
:10A0D000124802F0E5F882B243461049104801F0F8
:10A0E000B7FAFFF7F3FB02F0FFF864A185E7BDE8DC
:10A0F000F08700002B6F6B0D0A000000BDF8C8EB65
:10A10000D6B8C1EEC4A3CABDA3ACC9E8D6C3B7FED6
:10A11000CEF1C6F72E2E2E0D0A00000028020020D8
:10A12000F000002041542B454E544D0D0D0A4F4B6D
:10A130000D0A00005553522D4452313532000000B3
:10A14000DC0A00201C000020CDCBB3F6D6B8C1EE4F
:10A15000C4A3CABD210D0A00B1BEC9E8B1B8C3FB92
:10A16000CEAA25730D0A0000436F6E6E656374B747
:10A17000FECEF1C6F72E2E2E0D0A0000436F6E6E36
:10A18000656374B7FECEF1C6F7CAA7B0DC210D0A2D
:10A1900000000000436F6E6E656374B7FECEF1C6BB
:10A1A000F7B3C9B9A6210D0A000000002F6F746132
:10A1B0002F6465766963652F757067726164652FBA
:10A1C00025732F2573000000B80300202F737973C7
:10A1D0002F25732F25732F7468696E672F66696C3E
:10A1E000652F646F776E6C6F61645F7265706C79F8
:10A1F00000000000537562736372696265B4EDCE4E
:10A20000F3210D0A000000005375627363726962E6
:10A2100065C9FAD0A7210D0A00000000C9E8B1B84D
:10A22000B4E6BBEE210D0A00556E5375627363727E
:10A23000696265C9FAD0A7210D0A0000CAD5B5BD6B
:10A24000B5C8BCB630B5C45075626C697368B1A846
:10A25000CEC4210D0A00000075706772616465004C
:10A26000E4060020E4040020003F02084F5441CFE0
:10A27000C2D4D8CDEAB1CF210D0A0000CAD5B5BDF0
:10A2800050554241434B210D0A00000010B50A4CC5
:10A29000ADF5007D207A00280AD0002020722288A7
:10A2A00068466168FEF770FF21886846FFF7EEFD9B
:10A2B0000DF5007D10BD000000000020704772B653
:10A2C000FEE70000044B0022DA61044A136943F000
:10A2D0000103136101807047080200200020024042
:10A2E00014480022C168CB06134904D5CA6942F05C
:10A2F0000202CA611022C3685B0705D5CB6943F02F
:10A300000103CB6142F00402C369DB0707D0CB69CC
:10A3100043F00403CB61C16921F00101C161A2F5E1
:10A320008071013901D0C2607047C16921F001011B
:10A33000C1617047002002400802002070B5054648
:10A3400000F006FC0646114C09E0681C07D025B158
:10A3500000F0FEFB801BA84201D9032070BDE0681D
:10A36000C007F2D1E068800601D52020E060E068F7
:10A37000C00605D4E069C00702D1E068400703D5F4
:10A38000FFF7AEFF012070BD002070BD002002402D
:10A390000B46014692001846FEF7F6BE2DE9F04145
:10A3A00015460E46074600F0C3FA002409E000BF38
:10A3B00056F8242007EB84010023022000F078FAED
:10A3C000641CAC42F4D3BDE8F04100F067BA10B5AC
:10A3D00090F821100022022905D00421816380F821
:10A3E0002020012010BD01680B6823F00E030B60D4
:10A3F00001680B6823F001030B6090F84030C46BD8
:10A40000012101FA03F3636080F8211080F8202015
:10A41000104610BD2DE9F05F90F8211000240229AC
:10A4200003D004218163012485E001680A6822F0D9
:10A430000E020A6001680A6822F001020A603F4EBB
:10A440003E4FB215DFF8F4C0DFF8F090DFF8ECA073
:10A45000DFF8E8B0DFF8E4E00168783F13011502A7
:10A46000ACF1640CA9F15009AAF13C0AABF1280B3C
:10A47000AEF1140E4FF48018B14227D9B9420ED074
:10A48000614512D049451DD0514518D0594518D0C5
:10A49000714501D1424615E0294EB14201D1012258
:10A4A00010E0274E1436B14201D110220AE0244EAA
:10A4B0002836B14206D0224A3C32914201D11A4696
:10A4C00000E02A461E49091F0A602BE0B94213D05A
:10A4D000614517D0494522D051451DD059451DD061
:10A4E000714501D142461AE0B14202D14FF080726B
:10A4F00015E0134EB14201D1012210E0104E143686
:10A50000B14201D110220AE00D4E2836B14206D0E8
:10A510000B4A3C32914201D11A4600E02A460749D3
:10A5200080394A60012180F82110002180F8201034
:10A53000416B01B188472046BDE8F09F8000024092
:10A54000080402402DE9F05FC16B0A6801680B68DE
:10A55000046C4FF0040808FA04F8844D844E854FCB
:10A56000DFF814C2DFF81492DFF814A2DFF814B297
:10A57000DFF814E218EA020F65D05FEA437862D58B
:10A580000A68920603D40A6822F004020A60DFF81F
:10A59000F0814FF48062016808F11408130114027D
:10A5A000414524D9A9420DD0B1420FD0B9421AD0A9
:10A5B000614515D0494515D0514501D1120312E02E
:10A5C000594501D104220EE0714501D140220AE033
:10A5D0006D4D1435A94206D06B4A2832914201D103
:10A5E0001A4600E022466749091F0A6029E0A9428D
:10A5F00013D0B14215D0B94220D061451BD0494596
:10A600001BD0514502D14FF4800217E0414502D1E1
:10A610004FF0806212E0594501D104220EE07145ED
:10A6200001D140220AE0584D1435A94206D0564ABD
:10A630002832914201D11A4600E022464B4908399E
:10A640004A60C16A71E04FF0020808FA04F818EA9B
:10A65000020F70D05FEA83786DD50A68920606D43F
:10A660000A6822F00A020A60012180F82110DFF84E
:10A6700010814FF40072016808F1140813011402EC
:10A68000414524D9A9420DD0B1420FD0B9421AD0C8
:10A69000614515D0494515D0514501D1120312E04D
:10A6A000594501D102220EE0714501D120220AE074
:10A6B000354D1435A94206D0334A2832914201D192
:10A6C0001A4600E022462F49091F0A6029E0A942E4
:10A6D00013D0B14215D0B94220D061451BD04945B5
:10A6E0001BD0514502D14FF4001217E0414502D171
:10A6F0004FF0007212E0594501D102220EE071457F
:10A7000001D120220AE0204D1435A94206D01E4A6C
:10A710002832914201D11A4600E0224613490839F5
:10A720004A60002180F82010816A00291CD0BDE811
:10A73000F05F0847FFE70825A540154214D01A0727
:10A7400012D50A6822F00E020A6090F84020C36B0E
:10A75000012101FA02F25A60816380F82110002180
:10A7600080F82010016BE0E7BDE8F09F0800024090
:10A770001C000240300002404400024058000240E9
:10A780006C000240080402401C04024030B560B175
:10A790001A4B026814219A4209D2194B1344B3FB95
:10A7A000F1F18900016417490AE0012030BD134B23
:10A7B0005B421344B3FBF1F1890001640F4908398E
:10A7C000C163022180F82110136843F6F0718B43B6
:10A7D000F0E901142143D0E902452C4321430469E7
:10A7E00021434469214384692143194311600021B5
:10A7F0004163012242770177084630BD08040240D8
:10A80000F8FFFDBF0000024070B5044690F820003C
:10A81000002501280CD0012084F8200094F8216044
:10A820000020012E06D084F820000225284670BDA5
:10A83000022070BD022684F82160A06320680668AB
:10A8400026F0010606602046FFF758F8E06A002867
:10A850002068016802D041F00E0106E021F00401F9
:10A8600001602068016841F00A0101602068016808
:10A8700041F001010160D9E770B5044600F068F9C4
:10A880000546601C02D004480078044400F060F9DA
:10A89000401BA042FAD370BD0C00002003480169A0
:10A8A00041F080010161002070470000002002405B
:10A8B0002DE9F05F07461C4888460024017E1546B6
:10A8C0001E46012909D00121814601764CF2503AF9
:10A8D0005046FFF733FD18B122E00220BDE8F09F9B
:10A8E000012F02D0022F00D00427D346DFF83CA06E
:10A8F000220128463146FEF737FC81B208EB4400BE
:10A90000FFF7E0FC5846FFF719FDDAF8102022F0B7
:10A910000102CAF8102018B9641CE4B2BC42E7D3A3
:10A92000002289F81820D9E7080200200020024000
:10A93000064900200A69120607D5054A4A60054AF9
:10A940004A600969090600D50120704700200240CD
:10A9500023016745AB89EFCD2DE9F84FDFF8C891AA
:10A960000024A9F1040B23460F2709F1040AABF1D7
:10A97000040ED1E00125A54006EA0502AA4276D1DF
:10A98000DFF8A8C14E68A6EB0C0866452BD00DDC9D
:10A99000032E34D005DC36B3012E19D0022E2FD170
:10A9A0001BE0112E16D0122E2AD119E0B8F5881FFF
:10A9B00019D006DCB8F5803F15D0B8F5801F1FD13F
:10A9C00011E0B8F5001F0ED0B8F5041F18D10AE049
:10A9D000CB6815E0CB681B1D12E0CB6808330FE095
:10A9E000CB680C330CE08B682BB1012B4FF00803C4
:10A9F00003D0456104E0042302E0056100E0002388
:10AA0000FF2A01D8064601E000F104064FEA84055A
:10AA100001D9A5F12005D6F8008007FA05FC28EA3F
:10AA20000C0803FA05F548EA0508C6F800804D68E9
:10AA3000ED0070D53E4DAE6946F00106AE61AD69E0
:10AA400024F0030605F0010500953A4D06EB050CD0
:10AA5000DCF80850A607360F07FA06F825EA0805BD
:10AA6000DFF8D480404503D14FF0000825E052E0E4
:10AA7000DFF8C880404502D14FF001081DE0DFF843
:10AA8000C080404502D14FF0020816E0DFF8B480E4
:10AA9000404502D14FF003080FE0DFF8AC8040459D
:10AAA00002D14FF0040808E0DFF8A080404502D151
:10AAB0004FF0050801E04FF0060808FA06F848EAEA
:10AAC0000508CCF808804D68D9F80060ED024D46C5
:10AAD00001D5164300E096432E604D68DAF8006019
:10AAE000AD02554601D5164300E096432E604D68F1
:10AAF000DBF80060AD035D4601D5164300E09643E8
:10AB00002E604D68DEF80060ED03754601D51643F2
:10AB100000E096432E60641C0A681646E2407FF40B
:10AB200029AFBDE8F88F00000804014000001110B3
:10AB3000001002400000014000080140000C0140EC
:10AB4000001001400014014000180140001C0140A9
:10AB500001488068704700000C00002002488168AE
:10AB600002781144816070470C000020074810B53E
:10AB7000016841F010010160032000F075F80F201A
:10AB800000F006F800F024F8002010BD002002407C
:10AB900070B50D4D04464FF47A712878B1FBF0F092
:10ABA0000A490968B1FBF0F000F0DCFA48B9102C52
:10ABB00007D200222146501E00F036F800206C60BB
:10ABC00070BD012070BD00000C00002018000020A6
:10ABD0000C4808B5816941F001018161816901F08A
:10ABE00001010091C16941F08051C161C06900F06B
:10ABF000805000900448416821F0E06141F000710C
:10AC0000416008BD0010024000000140002809DB3F
:10AC100000F01F02012191404009800000F1E02076
:10AC2000C0F8001170470000F0B40E4B1B680C46D2
:10AC3000C3F30223C3F10705042D00D90425191D10
:10AC4000072901D2002300E0DB1E012606FA05F1E8
:10AC5000491E214099409E40761E16403143F0BC6B
:10AC600001F032BB0CED00E0064900F00702086875
:10AC70004FF6FF03184040EA0220034A10430860E1
:10AC8000704700000CED00E00000FA052DE9F047E8
:10AC90000F46050061D0434E306800F00700B8420F
:10ACA00009D2306820F0070038433060306800F087
:10ACB0000700B84251D128683B4C810712D54007A4
:10ACC00003D5606840F4E06060602878000703D531
:10ACD000606840F4605060606068A96820F0F0002F
:10ACE000084360602878C00728D06868012810D021
:10ACF0002168022810D0890700292EDA616821F026
:10AD0000030101436160FFF723FF804641F2883968
:10AD10000DE021688903EFE78901EDE7FFF718FFF0
:10AD2000A0EB0801494502D90320BDE8F08760681F
:10AD3000696800F00C00B0EB810FEFD1306800F0D3
:10AD40000700B8420BD9306820F007003843306064
:10AD5000306800F00700B84201D00120E5E728780C
:10AD6000400705D56068E96820F4E060084360604A
:10AD70002878000706D56068296920F4605040EA09
:10AD8000C100606000F038F86168084AC1F303113F
:10AD9000515CC8400649086006480068FFF7F8FEA5
:10ADA0000020C2E70020024000100240A6C80008B0
:10ADB0001800002010000020044805490068496878
:10ADC000044AC1F30221515CC840704718000020BA
:10ADD00000100240B6C800080448054900684968E8
:10ADE000044AC1F3C221515CC840704718000020DA
:10ADF00000100240B6C800080E4A51680E4801F023
:10AE00000C03042B11D0082B0FD10C48C1F3834342
:10AE1000C903C05C0AD55168084AC1F34041921E7B
:10AE2000515C054A5043B0FBF1F070470449484378
:10AE3000704700000010024000127A0096C8000817
:10AE400000093D002DE9F84F040070D02078C04D76
:10AE5000C00749D06868C0F38100012807D068683E
:10AE6000C0F38100022809D16868C00306D52868AC
:10AE7000800339D560680028E7D035E06068B0F518
:10AE8000803F0BD010B1B0F5A02F11D0286820F46E
:10AE900080302860286820F4802002E0286840F490
:10AEA00080302860606890B1FFF752FE06460AE0E5
:10AEB000286840F480202860F0E700BFFFF748FED4
:10AEC000801B642873D828688003F7D50CE0FFF74F
:10AED0003FFE064605E000BFFFF73AFE801B6428F0
:10AEE000F0D828688003F7D420789A4E80074FF076
:10AEF00001094FF0000839D5686810F00C0F07D031
:10AF00006868C0F38100022809D16868C00306D4CC
:10AF10002868800714D52069012808D110E020692D
:10AF2000B0B1C6F80090FFF713FE074605E00AE14E
:10AF3000FFF70EFEC01B0228C4D828688007F7D58B
:10AF40002868616920F0F80040EAC10028600DE03F
:10AF5000C6F80080FFF7FCFD074604E0FFF7F8FDA8
:10AF6000C01B022823D828688007F7D42078000760
:10AF70002CD57948A169D9B1C0F80090FFF7E8FD58
:10AF8000074604E0FFF7E4FDC01B02280FD8686AFB
:10AF90008007F7D571484FF4FA510068B0FBF1F023
:10AFA000009000BF0098411E0091FAD20EE080E0B0
:10AFB000C0F80080FFF7CCFD074604E0FFF7C8FDAE
:10AFC000C01B022875D8686A8007F7D4207840072C
:10AFD00060D5E8690027C00008D4E86940F08050D7
:10AFE000E861E869012700F0805000905C48016842
:10AFF000C90513D40168834641F480710160FFF7ED
:10B00000A7FD824606E000BFFFF7A2FDA0EB0A0005
:10B0100064284ED8DBF80000C005F5D5E0680128AB
:10B020000AD008B1052813D0286A20F00100286250
:10B03000286A20F0040002E0286A40F0010028623B
:10B04000E06841F2883B98B1FFF782FD82460BE051
:10B05000286A40F004002862EEE700BFFFF778FDA1
:10B06000A0EB0A0159455AD8286A8007F6D50CE0AA
:10B07000FFF76EFD824605E0FFF76AFDA0EB0A01CF
:10B0800059454CD8286A8007F6D41FB1E86920F0EA
:10B090008050E861E06988B36968C1F381010229E1
:10B0A00044D00228C6F8608004D0FFF751FD044662
:10B0B00038E034E0FFF74CFD074604E0FFF748FDB9
:10B0C000C01B02282BD828688001F7D4206AB0F56D
:10B0D000803F05D16868A16820F4003008436860AB
:10B0E000D4E908010843696821F4741108436860D1
:10B0F000C6F86090FFF72CFD044606E025E000BF8F
:10B10000FFF726FD001B022809D828688001F7D523
:10B110001BE000BFFFF71CFD001B022802D9032023
:10B12000BDE8F88F28688001F4D40EE00128F7D03C
:10B130006868226A00F48031914204D1616A00F4A7
:10B140007010884201D00120EAE70020E8E7000003
:10B1500000100240000042428004424218000020D9
:10B160000070004010B5401EB0F1807F01D3012077
:10B1700010BD4FF0E02460610F21601701F0A4F8CA
:10B180000020A06107202061002010BD704710B58D
:10B1900004460068406994F84110C0F3C0102129AA
:10B1A00011D180B12068143050E8001F21F08001D7
:10B1B00040E80012002AF5D1A06B08B1FFF707F9AB
:10B1C000204600F0EFFE2068406994F84210C0F37A
:10B1D0008010222911D180B12068143050E8001F5E
:10B1E00021F0400140E80012002AF5D1E06B08B1DF
:10B1F000FFF7EDF8204600F0AEFE002010BD7047CE
:10B20000F8B5016804460868CA684B6910F00F0F6A
:10B210004FF0000559D003F0010602F49077374350
:10B2200065D0C10705D0D10503D5616C41F001019E
:10B230006164410705D5D90703D0616C41F0020173
:10B240006164810705D5D90703D0616C41F0040121
:10B250006164010707D502F02001314303D0616C1E
:10B2600041F008016164616C00293AD0800604D580
:10B27000900602D5204600F0A3FE20684069616C6C
:10B28000C0F38010090700D460B3204600F063FECD
:10B2900020684069400621D52068143050E8001F1E
:10B2A00021F0400140E80012002AF5D1E06BA8B17E
:10B2B0006D494163E06BFFF7ADF8002811D0E06BFA
:10B2C000416B01B0BDE8F040084783060FD59306F7
:10B2D0000DD52046BDE8F84000F072BE2046FFF7CD
:10B2E0008EFFF8BD2046FFF78AFF6564F8BD266B28
:10B2F0002023012E7CD1C6067AD5D60678D50868DB
:10B300004868009048694FF00206400640D5E16B5E
:10B31000086840680004000CE8D0A28D8242E5D99C
:10B32000E085886920282DD020680C3050E8001F67
:10B3300021F4807140E80012002AF5D12068143011
:10B3400050E8001F21F0010140E80012002AF5D169
:10B350002068143050E8001F21F0400140E800123E
:10B36000002AF5D184F84230256320680C3050E87B
:10B37000001F21F0100140E80012002AF5D1E06B17
:10B38000FFF725F86663A08DE18D401A81B22AE0AF
:10B39000A08DE18D401A81B2E08D0028A6D0002951
:10B3A000A4D022680C3252E8000F20F4907042E8DA
:10B3B0000007002FF5D12068143050E8002F22F04C
:10B3C000010240E80027002FF5D184F842302563C0
:10B3D00020680C3050E8002F22F0100240E80023D3
:10B3E000002BF5D166632046FFF7D0FEF8BDFFE7DE
:10B3F00005062BD5150629D594F841002128F5D14D
:10B40000A068B0F5805F01D12069B0B1206A411C0D
:10B410002162216800784860E08C401E0004000C26
:10B42000E084E3D12068C16821F08001C160206818
:10B43000C16841F04001C160D8E7206A0088C0F3CC
:10B4400008004860206A801C2062E5E74006CDD5F0
:10B450005006CBD5CA68204622F04002CA6084F864
:10B46000413000F042F9C1E759BE000870B5040050
:10B4700004D094F84100002510B106E0012070BD11
:10B4800084F84050204600F023F8242084F841003E
:10B490002068C16821F40051C160204600F0F2FD2F
:10B4A0002068016921F4904101612068416921F01F
:10B4B0002A0141612068C16841F40051C16065649E
:10B4C000202084F8410084F842006563002070BDAC
:10B4D000F0B585B0002400940194029403940646CC
:10B4E00003684C484A4F022103220515BB4229D16B
:10B4F000836943F480438361836903F48043049345
:10B50000836943F0040383618069434E00F00400C3
:10B5100004900802CDE90001039269463046FFF726
:10B520001BFACDE90054694630460294FFF714FA3D
:10B53000002211462520FFF777FB2520FFF766FB49
:10B5400005B0F0BD354FBB42FAD1C36943F4802347
:10B55000C361C36903F480230493836943F0080340
:10B5600083618069CDE9005100F00800CDE9032036
:10B570002B4D69462846FFF7EFF9E814CDE90004A2
:10B58000694628460294FFF7E7F9274D25488027AA
:10B59000C5E90004C5E902472C616C61AC6128462D
:10B5A000EC61FFF7F3F808B1FEF789FEF5636E6210
:10B5B0001D4D1C484435143801C5102091C51A484A
:10B5C00045F8104944306C61AC61EC61FFF7DEF87E
:10B5D00008B1FEF774FEB5630022114627206E62A3
:10B5E000FFF722FB2720FFF711FB104C608801F0CA
:10B5F0001BF9014660600C486288483800F018F872
:10B60000094848380068C16841F01001C16097E7F7
:10B61000003801400010024000080140004800408E
:10B62000000C01403000024080010020000000209A
:10B6300090F84230202B01D00220704721B11AB17E
:10B640000023036300F07ABD012070477047704704
:10B650002DE9F843044690F841001F4616460D4672
:10B66000202802D00220BDE8F8837DB176B1002009
:10B670006064212084F84100FFF76AFAA6848046BE
:10B68000E684A068B0F5805F02D003E00120EAE71D
:10B69000206910B12E4600250EE000260CE0802126
:10B6A000204600F093FDA0B9AEB116F8010B216859
:10B6B0004860E08C401EE084E08C43464FF000027E
:10B6C00000970028EBD14FF04001204600F07EFDAE
:10B6D00030B10320C7E735F8020BC0F30800E6E7F6
:10B6E000202084F841000020BDE77047FEE70000FD
:10B6F0002DE9F041764C0120A4F80004A4F80204DE
:10B700000A20A4F804047348FDF774FD0546714847
:10B7100064300646FDF76EFD05446E488230804673
:10B72000FDF768FD2844801DA4F80604B4F804144D
:10B730000844A4F808041020207000F0C7F9B4F8F9
:10B740000204002104222154B4F80234601C1A546B
:10B75000B4F80254401C4D232B54B4F80254401C3E
:10B7600051232B54B4F80254231D5420E854B4F848
:10B7700002545B1CE854B4F80234A01D1A54B4F807
:10B780000234401CC2221A54B4F80224401C115442
:10B79000B4F80224401C642111544E4804F20244BF
:10B7A000FDF728FD010A4A4822880A301154494809
:10B7B000FDF720FD464922880B3150544548FDF7DE
:10B7C00019FD0246424821880C3008444149FDF7E2
:10B7D000DBFC3046FDF70EFD050A3E48FDF70AFD8D
:10B7E0002188A4F2024421440C300D543046FDF768
:10B7F00001FD05463748FDF7FDFCB4F802140D3095
:10B8000021440D543046FDF7F5FC05463148FDF75F
:10B81000F1FCB4F802140E30214408442A463146A3
:10B82000FDF7B2FC4046FDF7E5FC070A2948FDF7A5
:10B83000E1FC05463046FDF7DDFCB4F8021428446F
:10B840002144084487734046FDF7D4FC054621484F
:10B85000FDF7D0FC07463046FDF7CCFCB4F80214E7
:10B86000384421440844C5734046FDF7C3FC0546EF
:10B870001848FDF7BFFC07463046FDF7BBFCB4F89F
:10B8800002143844214408442A4641461030FDF74A
:10B890007BFCB4F80204B4F804140844B4F80614A9
:10B8A000084481B20A48FEF7C1F900280ED00848C2
:10B8B00009A1C83800F0F4FCBDE8F041044982B2A7
:10B8C0004FF6FF73C8390E48FFF7C2BEBDE8F081DE
:10B8D000E4040020D8090020436F6E6E656374B1E4
:10B8E000A8CEC4B7A2CBCDB3C9B9A62CB5C8B4FDF8
:10B8F000B7FECEF1C6F7BBD8D3A60D0A00000000F4
:10B90000F00000202DE9F0410F4605460124285D96
:10B91000000603D5641CE4B2052CF8D307484FF4A5
:10B9200000710646FDF749FC29193A1B3046BDE86F
:10B93000F041C91CD21EFDF727BC0000E406002020
:10B940002DE9F041284C06460120A4F802040D46DA
:10B950003046FDF74FFC801CA4F804042846FDF790
:10B9600049FCA4F80604B4F804140844A4F8080434
:10B970003020207000F0AAF83046FDF73BFCB4F808
:10B980000214000A60543046FDF734FCB4F8022477
:10B99000611C50543046FDF72DFC0246B4F80214E9
:10B9A000A01C08443146FDF7EFFB2846FDF722FCBA
:10B9B00007463046FDF71EFCB4F80214801C2144F3
:10B9C00008443A462946FDF7DFFBB4F80204B4F810
:10B9D00004140844B4F80614084481B22046BDE8B3
:10B9E000F041FEF723B90000E40400202DE9F04106
:10B9F000354C06460120A4F802040D463046FDF7FA
:10BA0000F9FB001DA4F804042846FDF7F3FBA4F895
:10BA10000604B4F804140844A4F808043220207082
:10BA200000F054F83046FDF7E5FBB4F80214000AC4
:10BA300060543046FDF7DEFBB4F80224611C50541C
:10BA40003046FDF7D7FB0246B4F80214A01C0844A8
:10BA50003146FDF799FB3046FDF7CCFBB4F80214F4
:10BA6000B4F800242144801C120A0A543046FDF721
:10BA7000C1FBB4F80214C01C0A1994F80014115444
:10BA8000B4F80004401CA4F800042846FDF7B2FBFB
:10BA900007463046FDF7AEFBB4F80214001D214402
:10BAA00008443A462946FDF76FFBB4F80204B4F89F
:10BAB00004140844B4F80614084481B22046BDE8D2
:10BAC000F041FEF7B3B80000E40400200B4800BFCB
:10BAD000B0F80814CA0901D041F08001B0F802247E
:10BAE0008154B0F80214491CA0F80214B0F80814EC
:10BAF000C909A0F80814EBD170470000E404002045
:10BB000070B5364C05460120A4F802040220A4F8C2
:10BB100004042846FDF76EFBC01CA4F80604B4F824
:10BB200004140844A4F8080482202070FFF7CEFF14
:10BB3000B4F80004B4F80214000A6054B4F8022403
:10BB4000611C94F800045054B4F80004401CA4F89C
:10BB50000004284604F58064FDF74CFB010A1F48E9
:10BB60006288801C11542846FDF744FB1B496288FB
:10BB7000C91C50542846FDF73DFB02461748618812
:10BB8000001D08442946FDF7FFFA2846FDF732FB61
:10BB90006188A4F580642144001D00220A54B4F891
:10BBA0000204B4F804140844B4F80614084481B23A
:10BBB0000A48FEF73BF800280ED0084808A1C8380C
:10BBC00000F06EFBBDE87040044982B24FF6FF738F
:10BBD000C8390D48FFF73CBD70BD0000E4040020EB
:10BBE000537562736372696265B1A8CEC4B7A2CBA4
:10BBF000CDB3C9B9A62CB5C8B4FDB7FECEF1C6F712
:10BC0000BBD8D3A60D0A0000F00000200D4808B5EF
:10BC1000416941F0010141614069002200F00100E9
:10BC2000009011460C20FEF7FFFF0C20FEF7EEFF00
:10BC3000002211460D20FEF7F7FFBDE808400D2059
:10BC4000FEF7E4BF00100240094808B5816941F0E1
:10BC500008018161816901F008010091816941F069
:10BC600004018161806900F00400009008BD0000BB
:10BC7000001002400C4810B50A4901604FF4E13150
:10BC80004160002181600C22C160C0E90412816121
:10BC9000C161FFF7EBFB002803D0BDE81040FEF7C1
:10BCA0000EBB10BD00380140F00000200C4810B55C
:10BCB0000A4901604FF4E1314160002181600C22AA
:10BCC000C160C0E904128161C161FFF7CFFB0028A8
:10BCD00003D0BDE81040FEF7F2BA10BD00480040A6
:10BCE00038010020FEE7FEE770477047F8B50122F3
:10BCF00069462248FEF74CFB2148009900F1640692
:10BD000000F1820500F1E60400F5827701290ED0EA
:10BD100002291ED01BA1C83800F0C2FA184982B20D
:10BD20004FF6FF73C8391D48FFF792FCF8BD1C4958
:10BD30001348FDF773FA1BA13046FDF76FFA1E4951
:10BD40002846FDF76BFA1DA12046FDF767FA1EA1F4
:10BD500010E01F490A48FDF761FA1EA13046FDF7C1
:10BD60005DFA21492846FDF759FA14A12046FDF74E
:10BD700055FA1EA13846FDF751FAF8BD00F0030848
:10BD8000D809002043616E27742066696E642064C0
:10BD90006576696365210D0A00000000F00000204F
:10BDA00020CB000844303031266B30386C63776725
:10BDB0006D3054730000000048CA00086B30386CC6
:10BDC0006377676D305473004430303100000000F9
:10BDD000D0CA000844303032266B30386C63776745
:10BDE0006D305473000000008CCA000844303032BB
:10BDF00000000000FEF7B2BE30B58FB028216846C3
:10BE0000FDF7DBF914210AA8FDF7D7F90121080491
:10BE1000CDE900100024029402250491CDE90750D9
:10BE20004FF4E01009906846FFF70CF808B172B6BD
:10BE3000FEE70F20CDE90A054FF48060CDE90C4004
:10BE400002210AA80E94FEF721FF002801D072B645
:10BE5000FEE70FB030BD704710B5406A0021C185C4
:10BE6000C184FFF7CCF910BD70B5446A2068406901
:10BE700094F84110C0F3C0100025212904D118B155
:10BE8000E584204600F08EF82068406994F842105E
:10BE9000C0F38010222904D118B1E585204600F0B6
:10BEA0005AF8606C40F0100060642046FFF7A7F974
:10BEB00070BD10B50146406A096809684FF000027C
:10BEC00089062ED4C28501680C3151E8003F23F465
:10BED000807341E80034002CF5D10168143151E839
:10BEE000003F23F0010341E80034002CF5D1016844
:10BEF000143151E8003F23F0400341E80034002CA6
:10BF0000F5D1202180F84210016B012909D1016887
:10BF10000C3151E8003F23F0100341E80034002CBD
:10BF2000F5D14263016B012902D0FFF78FFB10BDF1
:10BF3000818DFFF72BF910BD10B5406A01214163D7
:10BF4000016B012902D0FFF782FB10BD818D4908EA
:10BF5000FFF71CF910BD01680C3151E8002F22F4E5
:10BF6000907241E80023002BF5D10168143151E8AB
:10BF7000002F22F0010241E80023002BF5D1016BD4
:10BF8000012909D101680C3151E8002F22F010027B
:10BF900041E80023002BF5D1202180F84210002138
:10BFA0000163704701680C3151E8002F22F0C00294
:10BFB00041E80023002BF5D1202180F84110704783
:10BFC00008B590F84210222901D0022008BD8268ED
:10BFD0004FF480539A4201D1016921B1816A9A429A
:10BFE0001BD04AB10AE00268816A5268C2F30802B3
:10BFF0000A80816A891C08E0026972B1026852688D
:10C0000002F07F020A70816A491C8162C18D491E5B
:10C010000904090CC18503D01BE002685268F1E7EE
:10C020000168CA6822F02002CA600168CA6822F466
:10C030008072CA6001684A6922F001024A612021C7
:10C0400080F8421000214163026B012A03D0FFF700
:10C05000FDFA002008BD016301680C3151E8002F92
:10C0600022F0100241E80023002BF5D101680A6894
:10C07000D20602D50A6849680091818DFFF786F8DB
:10C08000E7E7000070B5044600680169E26821F442
:10C090004051114301612169A06808436169084367
:10C0A0002168CA6841F20C639A430243CA6020685F
:10C0B0004169A26921F44071114341611E49206820
:10C0C000884202D1FEF788FE01E0FEF775FE00EB24
:10C0D000C00101EB0012606864218000B2FBF0F344
:10C0E000B3FBF1F36FF018067343B2FBF0F5B2FB4C
:10C0F000F0F605EB8305322303EB0515B5FBF1F5EF
:10C10000B6FBF1F605F0F00505EB0615B2FBF0F60F
:10C11000B2FBF0F0B0FBF1F06FF01802504306EB09
:10C12000800003EB0010B0FBF1F0216800F00F007D
:10C130002844886070BD00000038014038B5816235
:10C1400004468285002013466064222284F842203F
:10C15000E56B1B4AAA62E56B1A4AEA62E56B1A4A6A
:10C160002A63E26B50630A462168E06B091DFEF703
:10C170004BFB2068016840680090206948B1206846
:10C180000C3050E8001F41F4807140E80012002A92
:10C19000F5D12068143050E8001F41F0010140E85B
:10C1A0000012002AF5D12068143050E8001F41F039
:10C1B000400140E80012002AF5D1002038BD0000FF
:10C1C000B3BE000839BF000869BE00082DE9F04180
:10C1D000984617460E460446069D27E0681C25D063
:10C1E0002DB1FEF7B5FCA0EB0800A8421ED92068CF
:10C1F0000C3050E8001F21F4D07140E80012002AF2
:10C20000F5D12068143050E8001F21F0010140E80A
:10C210000012002AF5D1202084F8410084F8420061
:10C22000002084F840000320BDE8F0812068006809
:10C2300036EA000004D00020B842CFD00020F3E757
:10C240000120F9E70148FEF7DBBF0000F000002005
:10C250000F4808B500680168C943C90612D40168CF
:10C26000406800900A48FEF792FF0B4909480968A8
:10C2700042884968511A01800121017241680448CD
:10C28000FFF7D6F9BDE808400148FEF7B9BF000046
:10C29000380100200000002080010020FEE700009F
:10C2A0000FB4084B10B504A902AA039800F03EF899
:10C2B000044602A9002000F0DAF9204610BC5DF81F
:10C2C00014FB00006FC600080907090E002804DBF4
:10C2D00000F1E02080F80014704700F00F0000F13A
:10C2E000E02080F8141D7047BFF34F8F05480168A8
:10C2F000054A01F4E06111430160BFF34F8F00BFB5
:10C30000FDE700000CED00E00400FA0502E008C8BB
:10C31000121F08C1002AFAD170477047002001E0BF
:10C3200001C1121F002AFBD1704700002DE9FF4F09
:10C330008BB088460546002606E025280BD0DDE9AF
:10C340000D1290476D1C761C28780028F5D10FB08F
:10C350003046BDE8F08F0024A146A2460122AE4936
:10C3600000E0044315F8013F203B02FA03F00842C5
:10C37000F7D128782A2810D06FF02F022878A0F162
:10C380003001092915D809EB890102EB410144F07C
:10C39000020400EB01096D1CF0E758F8041B5FEA8A
:10C3A000010903D544F40054C9F1000944F0020422
:10C3B0006D1C28782E2817D115F8010F44F00404BD
:10C3C0002A280ED06FF02F022878A0F13001092919
:10C3D0000AD80AEB8A0102EB410100EB010A6D1C4D
:10C3E000F2E758F804AB6D1C28786C280FD006DCF7
:10C3F0004C2817D068280DD06A2814D104E074287E
:10C4000010D07A280FD10DE044F400140AE044F46F
:10C41000801401E044F440146978814202D104F5AB
:10C4200080146D1C6D1C2878692865D006DC0028F6
:10C430008DD0632827D0642806D15DE06E2808D00F
:10C4400073282AD0752877D0DDE90D129047761C25
:10C45000E0E0C4F30250022809D003280DD0D8F838
:10C46000001004280DD00E6008F10408D2E0D8F8BE
:10C470000010F217C1E90062F6E7D8F800100E804C
:10C48000F2E70E70F0E718F8041B8DF8001000209A
:10C490008DF80100EB46012003E058F804BB4FF093
:10C4A000FF3061074FF0000701D40AE07F1C5745B9
:10C4B0000DDA8742FADB1BF807100029F6D106E0F7
:10C4C0007F1C8742FCDB1BF807100029F8D1DDE94F
:10C4D0000D23A9EB07008146214600F0B1F8304456
:10C4E000C61904E0DDE90D121BF8010B90477F1E11
:10C4F000F8D22146484688E058F8040BC4F30251AC
:10C500004FF00A0B032900D100B2042900D140B238
:10C51000002802DA40422D2102E0210505D52B2119
:10C520008DF82410012104E006E0E10710D020215D
:10C53000F6E708AF089113E058F8040BC4F3025172
:10C540004FF00A0B032900D180B2042900D1C0B2F8
:10C550000021EEE75946FCF79DFF303107F8011D39
:10C560000028F7D1ADEB070000F1200B600702D5E2
:10C5700024F4803401E04FF0010ADA4502DDAAEB31
:10C580000B0000E00020824600EB0B0108980144FC
:10C59000A9EB01000A90E00306D4DDE90D23214652
:10C5A0000A9800F04DF806444FF0000908E009A988
:10C5B00011F80900DDE90D12904709F10109761C17
:10C5C00008998945F3DBE0030CD5DDE90D2321460D
:10C5D0000A9800F035F8064404E0DDE90D12302039
:10C5E0009047761CBAF10001AAF1010AF5DC05E0DA
:10C5F000DDE90D1217F8010B9047761CBBF1000125
:10C60000ABF1010BF4DC0A982146DDE90D2300F0C3
:10C6100005F806446D1C97E6092801002DE9F04154
:10C62000044600251E461746880404D405E0394612
:10C630002020B0476D1C641EF9D52846BDE8F08166
:10C640002DE9F041044600251E469046C80301D559
:10C65000302700E02027880404D505E0414638460D
:10C66000B0476D1C641EF9D52846BDE8F0810A6804
:10C67000531C0B6010707047334834490860FEF754
:10C6800075FAFFF7B9FBFFF7DFFAFFF7BFFAFFF71D
:10C69000F1FAFFF70BFB2EA12E48FFF701FE82B245
:10C6A0004FF6FF7423462B492B48FEF7D1FF2BA1F1
:10C6B0002848FFF7F5FD82B2234626492648FEF7B3
:10C6C000C7FF30A12348FFF7EBFD82B22346214983
:10C6D0002148FEF7BDFF35A11E48FFF7E1FD82B2FC
:10C6E00023461C491C48FEF7B3FF3AA11948FFF73F
:10C6F000D7FD82B2234617491748FEF7A9FF3FA28C
:10C7000040A11448FFF7CCFD82B2234611491248DC
:10C71000FEF79EFF1BA10F48FFF7C2FD82B2234622
:10C720000C490D48FEF794FF0CA10A48FFF7B8FD2D
:10C7300082B2234607490848FEF78AFFFDF7F4F85E
:10C74000FDF7A4FDFCE700000090000808ED00E004
:10C750000D0A000028000020F00000202A2A2A2AC2
:10C760002A2A2A2A2A2A2A2A2A2A2A2A2A2A2A2A29
:10C770002A2A2A2A2A2A2A2A2A2A2A2A2A2A2A0D36
:10C780000A0000002A202020202020202020202015
:10C790002020202020202020202020202020202099
:10C7A0002020202020202A0D0A0000002A202020FE
:10C7B000202020422D426F6F742D46312773204177
:10C7C00070706C69636174696F6E202020202A0D7F
:10C7D0000A0000002A20202020202020202020469F
:10C7E0006F72207468652074657374202020202087
:10C7F0002020202020202A0D0A00000056302E3153
:10C80000000000002A202020202020202020566523
:10C810007273696F6E203A2020257320202020201B
:10C82000202020202A0D0A00F0B50B30154D20F0F5
:10C8300007010024144A0FE003688B420BD38B429C
:10C8400005D95E1A43184768C3E9006700E04368EA
:10C85000136002C004E0021D10680028ECD12046DD
:10C86000002802D1286808B10020F0BD064A074818
:10C870001060074A121A22F00702C0E900240120C2
:10C880002860D7E72400002020000020040B0020AF
:10C89000000D0020010202030405060708090A0B27
:10C8A0000C0D0E0F1010000000000000000001022F
:10C8B0000304060708090000000001020304DDDD8F
:10C8C000DDDDDCBBBBDDDDDDDDDDDDDDDDDD988877
:10C8D0008888888888887777777777888888855563
:10C8E00055566666666666666666666888888333D9
:10C8F000333222222222222222222228888D000064
:10C900002F6F74612F6465766963652F7570677228
:10C910006164652F252A31355B5E2F5D2F252A3115
:10C92000355B5E7B5D7B22636F6465223A2231302A
:10C930003030222C2264617461223A7B2273697A3E
:10C9400065223A25642C2273747265616D496422F4
:10C950003A25642C227369676E223A22252A3332E3
:10C9600073222C226450726F746F636F6C222020CC
:10C9700020202020202020203A226D717474222C47
:10C980002276657273696F6E223A22253373222CE8
:10C99000227369676E4D6574686F64223A224D6434
:10C9A00035222C2273747265616D46696C65496429
:10C9B000223A312C226D6435223A22252A333273F1
:10C9C000227D2C226964223A252A642C226D65730B
:10C9D00073616765223A2273756363657373227DA1
:10C9E000000000007B226964223A202231222C229E
:10C9F000706172616D73223A207B2266696C6549B1
:10CA00006E666F223A7B2273747265616D4964228F
:10CA10003A25642C2266696C654964223A317D2C82
:10CA20002266696C65426C6F636B223A7B22736984
:10CA30007A65223A25642C226F6666736574223A01
:10CA400025647D7D7D0000003964663031383037E3
:10CA500037653038343133353263363662383366D1
:10CA60006163633263396238363666383564623200
:10CA70003333653235643138663962666339623919
:10CA80006532643631343730000000006538643177
:10CA900031303766626163646365383034353661DE
:10CAA00037393038343266323335356637373134DA
:10CAB00036636233343565646166656635363338AE
:10CAC0006436376139333561323464330000000035
:10CAD0006B30386C6377676D3054732E443030326E
:10CAE0007C7365637572656D6F64653D322C736927
:10CAF000676E6D6574686F643D686D6163736861CE
:10CB00003235362C74696D657374616D703D3136E4
:10CB100039373138323235393534327C0000000053
:10CB20006B30386C6377676D3054732E443030311E
:10CB30007C7365637572656D6F64653D322C7369D6
:10CB4000676E6D6574686F643D686D61637368617D
:10CB50003235362C74696D657374616D703D313694
:10CB600039373137333338313837367C00000000FD
:10CB700090CB000800000020280000000CC3000833
:10CB8000B8CB000828000020D81000001CC3000803
:10CB90000000F4010000000000000000010000009F
:10CBA00010000000000000000024F400000000005D
:08CBB00000000000000000007D
:04000005080091312D
:00000001FF
