:020000040800F2
:10900000B00E00204591000873BE00085DB6000850
:1090100071BE00080999000821C300080000000083
:1090200000000000000000000000000077BE000803
:1090300039A200080000000075BE000879BE0008D3
:109040005F9100085F9100085F9100085F91000840
:109050005F9100085F9100085F9100085F91000830
:109060005F9100085F9100085F9100085F91000820
:1090700025990008319900085F9100085F91000868
:109080005F9100085F9100085F9100085F91000800
:109090005F9100085F9100085F9100085F910008F0
:1090A0005F9100085F9100085F9100085F910008E0
:1090B0005F9100085F9100085F9100085F910008D0
:1090C0005F9100085F9100085F9100085F910008C0
:1090D0005F910008C9C200085F910008D5C200086E
:1090E0005F9100085F9100085F9100085F910008A0
:1090F0005F9100085F9100085F9100085F91000890
:109100005F9100085F9100085F9100085F9100087F
:109110005F9100085F9100085F9100085F9100086F
:109120005F9100085F9100085F9100085F9100085F
:10913000DFF80CD000F018FA004800471DC80008FE
:10914000B00E00200648804706480047FEE7FEE7CD
:10915000FEE7FEE7FEE7FEE7FEE7FEE7FEE7FEE7E7
:10916000DBBE000831910008202A04DB203A21FAF6
:1091700002F00021704721FA02F3D040C2F1200230
:10918000914008431946704740EA01039B0703D00A
:1091900009E008C9121F08C0042AFAD203E011F836
:1091A000013B00F8013B521EF9D27047D2B201E0F8
:1091B00000F8012B491EFBD270470022F6E710B5DC
:1091C00013460A4604461946FFF7F0FF204610BD35
:1091D00030B505462A460B4612F8010B13F8014B31
:1091E00008B1A042F8D01CB1002802D06D1CF1E7F4
:1091F000284630BD421C10F8011B0029FBD1801A03
:10920000704730B504460020034600E05B1C9342E3
:1092100003D2E05CCD5C401BF8D030BD0FB400B58C
:109220008DB010A909900B9000914FF0FF300A907B
:1092300000200C9005480690054807906A4609A84A
:109240000F9900F063F90DB05DF814FB2995000843
:10925000479500082DE9FF5F1D464FF0FF3BD5E91C
:10926000014691465F464FF00008A9697F1C0198AE
:109270008847296A824688470028F6D1BAF1FF3F1D
:109280000CD024F4C064002E19DD600614D5BAF1A8
:109290002B0F09D0BAF12D0F0ED103E0584604B0C0
:1092A000BDE8F09F44F48064A9697F1C0198884759
:1092B000761E8246002E02DDBAF1300F03D0B9F1DE
:1092C000000F26D032E0A969761E44F400747F1C9A
:1092D000019888478246002E05DDBAF1780F06D046
:1092E000BAF1580F03D0B9F1000F10D01EE0B9F158
:1092F000000F02D0B9F1100F18D1A969761E24F41D
:1093000000747F1C019888478246102002E00820E4
:1093100000E00A20814609E008FB0908A969761ED9
:1093200044F400747F1C019888478246002E05DDB6
:109330004946504600F0D5F80028EDDAE969019871
:109340008847A00502D46FF00100A8E7E00725D107
:10935000600613D5600502D5C8F1000000E0404664
:1093600029680A1D2A600968220501D5087015E0E0
:10937000220701D5088011E008600FE02868011D70
:1093800029600068210502D580F8008006E02107E9
:1093900002D5A0F8008001E0C0F8008038467EE7E2
:1093A0002DE9FF5FD2E901A74FF0000891699946C6
:1093B0001446DDF838B0464601988847054659EA14
:1093C0000B0005D009E0A169761C01988847054685
:1093D000216A284688470028F5D1681C03D05FEA37
:1093E000CA7005D015E04FF0FF3004B0BDE8F09F23
:1093F0002068011D2160D0F800800AE05FEACA7091
:1094000001D108F8015BA169761C7F1E019888478D
:109410000546002F1ADD681C18D0B9F1000F0DD0D9
:10942000E81705EBD060421120F01F0059F8221018
:109430002A1A012090400142E0D107E0BBF1000F61
:10944000DCD1216A284688470028D7D0E1690198F5
:109450008847BBF1000F07D1002E05DD5FEACA7017
:1094600002D1002188F80010A068B84203DDBBF1EA
:10947000000F03D017B16FF00100B6E73046B4E734
:109480002DE9F05F0546002092469B468846064639
:10949000814640241BE02846414647462246FFF7C6
:1094A00063FE53465A46C01A914110D311461846DE
:1094B000224600F06BF82D1A67EB01084F46224652
:1094C0000120002100F062F817EB00094E41201E38
:1094D000A4F10104DFDC484631462A464346BDE894
:1094E000F09F3A2800D2303820F02002412A01D3E0
:1094F000A2F13700884201D34FF0FF3070470000DF
:10950000026811441378016018467047D16004491D
:1095100051610449116200211161114600F04AB8FD
:1095200001950008AB950008426842B1016811F846
:10953000013B23B1521EC0E90012184670470121B9
:10954000C160881E704742685AB1C368016843B958
:1095500083688B4205D0491E521CC0E900120020CE
:1095600070474FF0FF307047064C074D06E0E0684B
:1095700040F0010394E8070098471034AC42F6D35A
:10958000FFF7DAFD84CC0008A4CC0008202A04DB15
:10959000203A00FA02F1002070479140C2F1200306
:1095A00020FA03F3194390407047C0B24FF4F051D2
:1095B00000F096B92DE9F34F8BB04FF0000801F1A0
:1095C0000C000C464FF0010B46460DF1080A0190C5
:1095D0006269012101989047051E2DD0252D2CD0C0
:1095E000216A8847C0B16269012101989047216AC8
:1095F00088470028F7D1411E62690198904700E032
:10960000761CA1690B988847216A88470028F7D102
:10961000E1690B988847DBE7A1690B988847074603
:10962000A84201D1761CD3E7E1690B9888477F1CDB
:1096300002D1B8F1000F6FD046E1002762693D46C4
:109640003946019890472A2804D16269012101987E
:1096500090470125DFF884926269012101989047C3
:10966000A0F130010A290AD24F45E5DC07EB87015A
:1096700000EB4107303FDFD445F01005ECE7E90689
:1096800001D46FF000476C280AD04C2814D0682809
:1096900015D06A280DD074281CD07A281AD01DE065
:1096A00062690121019890476C2802D045F00405B9
:1096B00014E045F002050DE045F020050AE062697E
:1096C000012101989047682802D045F0080505E07F
:1096D00045F400656269012101989047C4E901578A
:1096E00065283DD019DC58287AD00CDC452837D0C5
:1096F00004DC252826D0412831D131E046282FD05E
:1097000047282CD12CE05B2877D0612828D063280B
:109710007CD0642823D15AE0D0E06F2848D008DC00
:1097200066281DD067281BD0692821D06E2816D145
:1097300027E0702845D0732868D0752847D078284E
:109740000DD14DE0A1690B988847054625283FF4C7
:1097500069AFE1690B9888476D1C3FF46AAFB3E0CD
:1097600023466A466FF001000B99AFF300809EE03C
:1097700045F040006060A80723464FF0000236D451
:109780003EE0E8077FF447AF2068011D21600068D4
:10979000290501D506701BE7290701D5068017E7C3
:1097A000A90703D5F117C0E9006111E706600FE7CB
:1097B00045F040006060A80723464FF0080216D429
:1097C0001EE040F60E0125EA0100606016E045F05B
:1097D00040006060A80723464FF00A0207D40FE05C
:1097E00045F040006060A80708D5234610226FF0BE
:1097F00001000B99AFF3008059E007E023461022E7
:109800006FF001000B99FFF725FD50E04FF00009C4
:109810004F464B46632802D05B2806D040E0E8065E
:1098200001D40120A06001273AE06269012101987A
:1098300090475E2805D14FF00109626949460198B9
:109840009047216939B900210A46534643F821203F
:10985000491C0829FADBB0B3216969B9C11700EBCB
:10986000D16253110AEB830122F01F02821A0120F8
:109870000B68904003430B60626901210198904797
:109880005D28E8D1B9F1000F09D00020514651F808
:109890002020D24341F82020401C0828F7DB02ABEF
:1098A000224600976FF001000B99FFF779FD002821
:1098B0000CDA401C08D1BBF1000F05D04FF0FF308F
:1098C0000DB0BDE8F08FFFE74046F9E7E90701D1A9
:1098D00008F1010806444FF0000B79E6CCCCCC0C23
:1098E0007F2801D9002208E0064A02EB5002C00797
:1098F000127800D1120902F00F02012090400840B6
:109900007047000062CA0008FEE7000008B54FF08B
:10991000AA30009001226946014800F0F7FC08BD1A
:10992000FCEF0308014800F0C5BD0000C4010020A1
:10993000014800F0BFBD00008001002030B590F864
:1099400040500124AC40C56B6C60046863604368A0
:10995000102B036803D099600068C26030BD9A6024
:109960000068C16030BD00002DE9F04105242BA145
:109970002F4802F0D7FC82B24FF6FF7633462C49CF
:109980002C4801F01DFE2C4D4FF47A780027284812
:109990002AA1C83002F0C6FC254982B23346C8313C
:1099A000274801F00DFE224626A1214802F0BAFC0C
:1099B00082B233461E491F4801F002FE404600F0C5
:1099C00013FF641E14F0FF041FD0287A0028DED095
:1099D0002F72686800786128D9D11EA1144802F05E
:1099E000A1FC82B233461249124801F0E9FD104849
:1099F0001CA1C83002F096FC82B20D4910483346D3
:109A0000C831BDE8F04101F0DBBD17A1084802F004
:109A100089FC82B2334606490648F2E7BDF8C8EB36
:109A2000D6B8C1EEC4A3CABD2E2E2E0D0A0000006A
:109A300028020020F0000020000000202B2B2B002B
:109A400038010020CAA3D3E02564732E2E2E0D0A00
:109A500000000000CDCBB3F6CDB8B4ABC4A3CABDF3
:109A60000D0A000061000000BDF8C8EBD6B8C1EED9
:109A7000C4A3CABDCAA7B0DC210D0A0010B506A157
:109A8000084802F04FFC82B2BDE810404FF6FF7369
:109A90000449054801F094BD41542B454E544D0DE9
:109AA0000A000000F0020020380100200A4610B52C
:109AB00001464FF6FF73044801F082FD08B1002013
:109AC00010BD012010BD00003801002010B530A2EB
:109AD0003BA13F4802F026FC82B24FF6FF742346BA
:109AE0003B493C4801F06CFD1E2000F07DFE3AA190
:109AF000374802F017FC82B223463549354801F059
:109B00005FFD1E2000F070FE37A1314802F00AFC14
:109B100082B223462E492F4801F052FD1E2000F04C
:109B200063FE36A12A4802F0FDFB82B22346284993
:109B3000284801F045FD1E2000F056FE34A12448BF
:109B400002F0F0FB82B223462149224801F038FDA1
:109B50001E2000F049FE33A11D4802F0E3FB82B253
:109B600023461B491B4801F02BFD1E2000F03CFE44
:109B700034A1174802F0D6FB82B223461449154897
:109B800001F01EFDBDE810401E2000F02DBE0000BB
:109B90005443502C696F742D3036306137307471F6
:109BA0002E6D7174742E696F746875622E616C69A4
:109BB00079756E63732E636F6D2C31383833000006
:109BC00041542B534F434B413D25730D0A00000078
:109BD000F00200203801002041542B534F434B41E9
:109BE000454E3D4F4E0D0A0041542B534F434B42BF
:109BF000454E3D4F46460D0A0000000041542B5390
:109C00004F434B43454E3D4F46460D0A0000000072
:109C100041542B534F434B44454E3D4F46460D0A4E
:109C20000000000041542B48454152543D4F4E2CFA
:109C30004E45542C555345522C36302C4330303041
:109C40000D0A000041542B530D0A00002DE9F0418C
:109C50000C4605464FF6FF77052902D00F2C15D08C
:109C600019E00622BDA1FFF7CCFAA0B9BDA1C548F5
:109C700002F058FB82B23B46C249C34801F0A0FC47
:109C8000FFF724FFBDE8F041FFF7F8BE0F22BFA1A8
:109C9000FFF7B7FA48B10A22C0A12846FFF7B1FA88
:109CA00028B1C14E042C10D012E0C0A177E0C3A1AE
:109CB000B44802F037FB82B23B46B249B24801F0E9
:109CC0007FFCBDE8F04101F0CBBC2878202805D00E
:109CD000307800287AD0052C30D032E0BCA1A948D9
:109CE00002F020FB82B23B46A649A74801F068FC7F
:109CF000E87808B1BAA13BE0BFA1A24802F012FB8C
:109D000082B23B469F49A04801F05AFC01203070C6
:109D1000BFA001F0BBFF642000F066FDC4A001F00D
:109D2000B5FF642000F060FDCCA001F0AFFF64201F
:109D300000F05AFDBDE8F04101F06ABF2878902894
:109D400007D02878B0281FD0302840D040287DD0B8
:109D50001DE0CFA18B4802F0E5FA82B23B4689496B
:109D6000894801F02DFC287960B101280AD0CCA1E6
:109D7000844802F0D7FA82B23B468249824801F019
:109D80001FFCE2E0CBA10AE06978022912D0022C84
:109D90001CD1D0281AD16878002817D1CAA17948D7
:109DA00002F0C0FA3B46BDE8F04182B27549764800
:109DB00001F006BCC7A1734802F0B4FA82B23B4678
:109DC0007049714801F0FCFBC6A1E8E7C0E0CAA1F8
:109DD0006C4802F0A7FA82B23B466A496A4801F031
:109DE000EFFB2146284601F0F1FCCE48C9A106460A
:109DF000FFF7EEF968B1CCA1624802F093FA82B2A3
:109E00003B466049604801F0DBFBCAA1D0A001F0ED
:109E1000DFFDD7A13046FFF7DBF968B1D8A159487B
:109E200002F080FA82B23B465649574801F0C8FB1F
:109E3000D6A1C7A001F0CCFDDBA13046FFF7C8F9E1
:109E400010B1304601F0E0FC84A100E07FE0304634
:109E5000FFF7BEF900287ED02246D5A1494802F07E
:109E600061FA82B23B464749474801F0A9FB002608
:109E70000BE0AA5DD2A1434802F054FA82B23B46FD
:109E80004049414801F09CFB761CA642F1DB42A10F
:109E90003C4802F047FA82B23B463A493A4801F060
:109EA0008FFBC94ED6F824040002A0F5807001197A
:109EB000D6F8280406F584660A1A201A2844C3A195
:109EC00010F8023C2F48921E02F02CFA82B23B4658
:109ED0002C492D4801F074FBB068C24A201A411980
:109EE0007068891E02EB0020402200F00FFA7168B2
:109EF0004FF48070491C71603268A6F58466914207
:109F00000DDB16D1D6F80C2412F0FF0F07D04FEA64
:109F1000E27002EB106020F0FF00A2EB0000C6F838
:109F20002804BDE8F0414FEA0121A1F5807101F05C
:109F3000FBBCADA1134802F0F5F982B23B461149D2
:109F4000114801F03DFBFFF7E1FC02F00FFA00E0E1
:109F500001E0A9A123E7BDE8F08100002B6F6B0DA4
:109F60000A000000BDF8C8EBD6B8C1EEC4A3CABD54
:109F7000A3ACC9E8D6C3B7FECEF1C6F72E2E2E0D80
:109F80000A00000028020020F000002041542B4568
:109F90004E544D0D0D0A4F4B0D0A00005553522DD6
:109FA00044523135320000001C000020CDCBB3F606
:109FB000D6B8C1EEC4A3CABD210D0A00436F6E6EB0
:109FC000656374B7FECEF1C6F72E2E2E0D0A000083
:109FD000CAD5B5BD434F4E4E41434B210D0A00003B
:109FE000436F6E6E656374B7FECEF1C6F7CAA7B055
:109FF000DC210D0A00000000436F6E6E656374B7CC
:10A00000FECEF1C6F7B3C9B9A6210D0A00000000C3
:10A010002F6B30386C6377676D3054732F4D51540C
:10A0200054746573742F757365722F6765740000BF
:10A030002F6F74612F6465766963652F7570677221
:10A040006164652F6B30386C6377676D3054732FA4
:10A050004D51545474657374000000002F7379736C
:10A060002F6B30386C6377676D3054732F4D5154BC
:10A0700054746573742F7468696E672F66696C65B4
:10A080002F646F776E6C6F61645F7265706C7900BE
:10A09000CAD5B5BD53554241434B210D0A000000BE
:10A0A000537562736372696265B4EDCEF3210D0A74
:10A0B00000000000537562736372696265C9FAD06B
:10A0C000A7210D0A00000000C9E8B1B8B4E6BBEE54
:10A0D000210D0A00CAD5B5BD554E53554241434BDB
:10A0E000210D0A00556E537562736372696265C90A
:10A0F000FAD0A7210D0A0000CAD5B5BDB5C8BCB6B7
:10A1000030B5C45075626C697368B1A8CEC4210DB6
:10A110000A0000007B2273776974636831223A3049
:10A120007D00000080060020B9D8B1D5BFAAB9D8FB
:10A130000D0A00007B22706172616D73223A7D7B93
:10A140002273776974636831223A307D0000000021
:10A150002F6B30386C6377676D3054732F4D5154CB
:10A1600054746573742F757365722F706F737400F8
:10A170007B2273776974636831223A317D00000075
:10A18000B4F2BFAABFAAB9D80D0A00007B22706141
:10A1900072616D73223A7D7B2273776974636831D3
:10A1A000223A317D000000007570677261646500BD
:10A1B000D2BBB9B22564D7D6BDDA0D0A00000000C3
:10A1C000253032782000000080040020B5DA2564B4
:10A1D000D7D6BDDAB4A6B4E6B7C520253032780D9F
:10A1E0000A000000003F02084F5441CFC2D4D8CD2E
:10A1F000EAB1CF210D0A0000CAD5B5BD5055424184
:10A20000434B210D0A00000010B50A4CADF5007D4E
:10A21000207A00280AD000202072228868466168CF
:10A22000FEF7B2FF21886846FFF710FD0DF5007DAF
:10A2300010BD000000000020704772B6FEE700006D
:10A24000044B0022DA61044A136943F001031361ED
:10A2500001807047080200200020024014480022BC
:10A26000C168CB06134904D5CA6942F00202CA612B
:10A270001022C3685B0705D5CB6943F00103CB61AE
:10A2800042F00402C369DB0707D0CB6943F0040343
:10A29000CB61C16921F00101C161A2F58071013971
:10A2A00001D0C2607047C16921F00101C1617047EE
:10A2B000002002400802002070B5054600F000FCB6
:10A2C0000646114C09E0681C07D025B100F0F8FBE8
:10A2D000801BA84201D9032070BDE068C007F2D1FD
:10A2E000E068800601D52020E060E068C00605D463
:10A2F000E069C00702D1E068400703D5FFF7AEFF71
:10A30000012070BD002070BD002002402DE9F04109
:10A3100015460E46074600F0C3FA002409E000BFC8
:10A3200056F8242007EB84010023022000F078FA7D
:10A33000641CAC42F4D3BDE8F04100F067BA10B53C
:10A3400090F821100022022905D00421816380F8B1
:10A350002020012010BD01680B6823F00E030B6064
:10A3600001680B6823F001030B6090F84030C46B68
:10A37000012101FA03F3636080F8211080F82020A6
:10A38000104610BD2DE9F05F90F82110002402293D
:10A3900003D004218163012485E001680A6822F06A
:10A3A0000E020A6001680A6822F001020A603F4E4C
:10A3B0003E4FB215DFF8F4C0DFF8F090DFF8ECA004
:10A3C000DFF8E8B0DFF8E4E00168783F1301150238
:10A3D000ACF1640CA9F15009AAF13C0AABF1280BCD
:10A3E000AEF1140E4FF48018B14227D9B9420ED005
:10A3F000614512D049451DD0514518D0594518D056
:10A40000714501D1424615E0294EB14201D10122E8
:10A4100010E0274E1436B14201D110220AE0244E3A
:10A420002836B14206D0224A3C32914201D11A4626
:10A4300000E02A461E49091F0A602BE0B94213D0EA
:10A44000614517D0494522D051451DD059451DD0F1
:10A45000714501D142461AE0B14202D14FF08072FB
:10A4600015E0134EB14201D1012210E0104E143616
:10A47000B14201D110220AE00D4E2836B14206D079
:10A480000B4A3C32914201D11A4600E02A46074964
:10A4900080394A60012180F82110002180F82010C5
:10A4A000416B01B188472046BDE8F09F8000024023
:10A4B000080402402DE9F05FC16B0A6801680B686F
:10A4C000046C4FF0040808FA04F8844D844E854F5C
:10A4D000DFF814C2DFF81492DFF814A2DFF814B228
:10A4E000DFF814E218EA020F65D05FEA437862D51C
:10A4F0000A68920603D40A6822F004020A60DFF8B0
:10A50000F0814FF48062016808F11408130114020D
:10A51000414524D9A9420DD0B1420FD0B9421AD039
:10A52000614515D0494515D0514501D1120312E0BE
:10A53000594501D104220EE0714501D140220AE0C3
:10A540006D4D1435A94206D06B4A2832914201D193
:10A550001A4600E022466749091F0A6029E0A9421D
:10A5600013D0B14215D0B94220D061451BD0494526
:10A570001BD0514502D14FF4800217E0414502D172
:10A580004FF0806212E0594501D104220EE071457E
:10A5900001D140220AE0584D1435A94206D0564A4E
:10A5A0002832914201D11A4600E022464B4908392F
:10A5B0004A60C16A71E04FF0020808FA04F818EA2C
:10A5C000020F70D05FEA83786DD50A68920606D4D0
:10A5D0000A6822F00A020A60012180F82110DFF8DF
:10A5E00010814FF40072016808F11408130114027D
:10A5F000414524D9A9420DD0B1420FD0B9421AD059
:10A60000614515D0494515D0514501D1120312E0DD
:10A61000594501D102220EE0714501D120220AE004
:10A62000354D1435A94206D0334A2832914201D122
:10A630001A4600E022462F49091F0A6029E0A94274
:10A6400013D0B14215D0B94220D061451BD0494545
:10A650001BD0514502D14FF4001217E0414502D101
:10A660004FF0007212E0594501D102220EE071450F
:10A6700001D120220AE0204D1435A94206D01E4AFD
:10A680002832914201D11A4600E022461349083986
:10A690004A60002180F82010816A00291CD0BDE8A2
:10A6A000F05F0847FFE70825A540154214D01A07B8
:10A6B00012D50A6822F00E020A6090F84020C36B9F
:10A6C000012101FA02F25A60816380F82110002111
:10A6D00080F82010016BE0E7BDE8F09F0800024021
:10A6E0001C0002403000024044000240580002407A
:10A6F0006C000240080402401C04024030B560B106
:10A700001A4B026814219A4209D2194B1344B3FB25
:10A71000F1F18900016417490AE0012030BD134BB3
:10A720005B421344B3FBF1F1890001640F4908391E
:10A73000C163022180F82110136843F6F0718B4346
:10A74000F0E901142143D0E902452C432143046977
:10A750002143446921438469214319431160002145
:10A760004163012242770177084630BD0804024068
:10A77000F8FFFDBF0000024070B5044690F82000CD
:10A78000002501280CD0012084F8200094F82160D5
:10A790000020012E06D084F820000225284670BD36
:10A7A000022070BD022684F82160A063206806683C
:10A7B00026F0010606602046FFF7C0F8E06A002890
:10A7C0002068016802D041F00E0106E021F004018A
:10A7D00001602068016841F00A0101602068016899
:10A7E00041F001010160D9E770B5044600F068F955
:10A7F0000546601C02D004480078044400F060F96B
:10A80000401BA042FAD370BD0C0000200348016930
:10A8100041F08001016100207047000000200240EB
:10A820002DE9F05F07461C4888460024017E154646
:10A830001E46012909D00121814601764CF2503A89
:10A840005046FFF739FD18B122E00220BDE8F09F25
:10A85000012F02D0022F00D00427D346DFF83CA0FE
:10A86000220128463146FEF77FFC81B208EB440006
:10A87000FFF7E6FC5846FFF71FFDDAF8102022F03C
:10A880000102CAF8102018B9641CE4B2BC42E7D334
:10A89000002289F81820D9E7080200200020024091
:10A8A000064900200A69120607D5054A4A60054A8A
:10A8B0004A600969090600D501207047002002405E
:10A8C00023016745AB89EFCD2DE9F84FDFF8C8913B
:10A8D0000024A9F1040B23460F2709F1040AABF168
:10A8E000040ED1E00125A54006EA0502AA4276D170
:10A8F000DFF8A8C14E68A6EB0C0866452BD00DDC2E
:10A90000032E34D005DC36B3012E19D0022E2FD100
:10A910001BE0112E16D0122E2AD119E0B8F5881F8F
:10A9200019D006DCB8F5803F15D0B8F5801F1FD1CF
:10A9300011E0B8F5001F0ED0B8F5041F18D10AE0D9
:10A94000CB6815E0CB681B1D12E0CB6808330FE025
:10A95000CB680C330CE08B682BB1012B4FF0080354
:10A9600003D0456104E0042302E0056100E0002318
:10A97000FF2A01D8064601E000F104064FEA8405EB
:10A9800001D9A5F12005D6F8008007FA05FC28EAD0
:10A990000C0803FA05F548EA0508C6F800804D687A
:10A9A000ED0070D53E4DAE6946F00106AE61AD6971
:10A9B00024F0030605F0010500953A4D06EB050C61
:10A9C000DCF80850A607360F07FA06F825EA08054E
:10A9D000DFF8D480404503D14FF0000825E052E075
:10A9E000DFF8C880404502D14FF001081DE0DFF8D4
:10A9F000C080404502D14FF0020816E0DFF8B48075
:10AA0000404502D14FF003080FE0DFF8AC8040452D
:10AA100002D14FF0040808E0DFF8A080404502D1E1
:10AA20004FF0050801E04FF0060808FA06F848EA7A
:10AA30000508CCF808804D68D9F80060ED024D4655
:10AA400001D5164300E096432E604D68DAF80060A9
:10AA5000AD02554601D5164300E096432E604D6881
:10AA6000DBF80060AD035D4601D5164300E0964378
:10AA70002E604D68DEF80060ED03754601D5164383
:10AA800000E096432E60641C0A681646E2407FF49C
:10AA900029AFBDE8F88F0000080401400000111044
:10AAA000001002400000014000080140000C01407D
:10AAB000001001400014014000180140001C01403A
:10AAC00001488068704700000C000020024881683F
:10AAD00002781144816070470C000020074810B5CF
:10AAE000016841F010010160032000F075F80F20AB
:10AAF00000F006F800F024F8002010BD002002400D
:10AB000070B50D4D04464FF47A712878B1FBF0F022
:10AB10000A490968B1FBF0F000F0DCFA48B9102CE2
:10AB200007D200222146501E00F036F800206C604B
:10AB300070BD012070BD00000C0000201800002036
:10AB40000C4808B5816941F001018161816901F01A
:10AB500001010091C16941F08051C161C06900F0FB
:10AB6000805000900448416821F0E06141F000719C
:10AB7000416008BD0010024000000140002809DBD0
:10AB800000F01F02012191404009800000F1E02007
:10AB9000C0F8001170470000F0B40E4B1B680C4663
:10ABA000C3F30223C3F10705042D00D90425191DA1
:10ABB000072901D2002300E0DB1E012606FA05F179
:10ABC000491E214099409E40761E16403143F0BCFC
:10ABD00001F0BCBB0CED00E0064900F0070208687C
:10ABE0004FF6FF03184040EA0220034A1043086072
:10ABF000704700000CED00E00000FA052DE9F04779
:10AC00000F46050061D0434E306800F00700B8429F
:10AC100009D2306820F0070038433060306800F017
:10AC20000700B84251D128683B4C810712D5400734
:10AC300003D5606840F4E06060602878000703D5C1
:10AC4000606840F4605060606068A96820F0F000BF
:10AC5000084360602878C00728D06868012810D0B1
:10AC60002168022810D0890700292EDA616821F0B6
:10AC7000030101436160FFF723FF804641F28839F9
:10AC80000DE021688903EFE78901EDE7FFF718FF81
:10AC9000A0EB0801494502D90320BDE8F0876068B0
:10ACA000696800F00C00B0EB810FEFD1306800F064
:10ACB0000700B8420BD9306820F0070038433060F5
:10ACC000306800F00700B84201D00120E5E728789D
:10ACD000400705D56068E96820F4E06008436060DB
:10ACE0002878000706D56068296920F4605040EA9A
:10ACF000C100606000F038F86168084AC1F30311D0
:10AD0000515CC8400649086006480068FFF7F8FE35
:10AD10000020C2E700200240001002404ACA00089A
:10AD20001800002010000020044805490068496808
:10AD3000044AC1F30221515CC8407047180000204A
:10AD4000001002405ACA00080448054900684968D2
:10AD5000044AC1F3C221515CC8407047180000206A
:10AD6000001002405ACA00080E4A51680E4801F00D
:10AD70000C03042B11D0082B0FD10C48C1F38343D3
:10AD8000C903C05C0AD55168084AC1F34041921E0C
:10AD9000515C054A5043B0FBF1F070470449484309
:10ADA000704700000010024000127A003ACA000802
:10ADB00000093D002DE9F84F040070D02078C04D07
:10ADC000C00749D06868C0F38100012807D06868CF
:10ADD000C0F38100022809D16868C00306D528683D
:10ADE000800339D560680028E7D035E06068B0F5A9
:10ADF000803F0BD010B1B0F5A02F11D0286820F4FF
:10AE000080302860286820F4802002E0286840F420
:10AE100080302860606890B1FFF752FE06460AE075
:10AE2000286840F480202860F0E700BFFFF748FE64
:10AE3000801B642873D828688003F7D50CE0FFF7DF
:10AE40003FFE064605E000BFFFF73AFE801B642880
:10AE5000F0D828688003F7D420789A4E80074FF006
:10AE600001094FF0000839D5686810F00C0F07D0C1
:10AE70006868C0F38100022809D16868C00306D45D
:10AE80002868800714D52069012808D110E02069BE
:10AE9000B0B1C6F80090FFF713FE074605E00AE1DF
:10AEA000FFF70EFEC01B0228C4D828688007F7D51C
:10AEB0002868616920F0F80040EAC10028600DE0D0
:10AEC000C6F80080FFF7FCFD074604E0FFF7F8FD39
:10AED000C01B022823D828688007F7D420780007F1
:10AEE0002CD57948A169D9B1C0F80090FFF7E8FDE9
:10AEF000074604E0FFF7E4FDC01B02280FD8686A8C
:10AF00008007F7D571484FF4FA510068B0FBF1F0B3
:10AF1000009000BF0098411E0091FAD20EE080E040
:10AF2000C0F80080FFF7CCFD074604E0FFF7C8FD3E
:10AF3000C01B022875D8686A8007F7D420784007BC
:10AF400060D5E8690027C00008D4E86940F0805067
:10AF5000E861E869012700F0805000905C480168D2
:10AF6000C90513D40168834641F480710160FFF77D
:10AF7000A7FD824606E000BFFFF7A2FDA0EB0A0096
:10AF800064284ED8DBF80000C005F5D5E06801283C
:10AF90000AD008B1052813D0286A20F001002862E1
:10AFA000286A20F0040002E0286A40F001002862CC
:10AFB000E06841F2883B98B1FFF782FD82460BE0E2
:10AFC000286A40F004002862EEE700BFFFF778FD32
:10AFD000A0EB0A0159455AD8286A8007F6D50CE03B
:10AFE000FFF76EFD824605E0FFF76AFDA0EB0A0160
:10AFF00059454CD8286A8007F6D41FB1E86920F07B
:10B000008050E861E06988B36968C1F38101022971
:10B0100044D00228C6F8608004D0FFF751FD0446F2
:10B0200038E034E0FFF74CFD074604E0FFF748FD49
:10B03000C01B02282BD828688001F7D4206AB0F5FD
:10B04000803F05D16868A16820F40030084368603B
:10B05000D4E908010843696821F474110843686061
:10B06000C6F86090FFF72CFD044606E025E000BF1F
:10B07000FFF726FD001B022809D828688001F7D5B4
:10B080001BE000BFFFF71CFD001B022802D90320B4
:10B09000BDE8F88F28688001F4D40EE00128F7D0CD
:10B0A0006868226A00F48031914204D1616A00F438
:10B0B0007010884201D00120EAE70020E8E7000094
:10B0C000001002400000424280044242180000206A
:10B0D0000070004010B5401EB0F1807F01D3012008
:10B0E00010BD4FF0E02460610F21601701F02EF9D0
:10B0F0000020A06107202061002010BD704710B51E
:10B1000004460068406994F84110C0F3C01021293A
:10B1100011D180B12068143050E8001F21F0800167
:10B1200040E80012002AF5D1A06B08B1FFF707F93B
:10B13000204600F079FF2068406994F84210C0F37F
:10B140008010222911D180B12068143050E8001FEE
:10B1500021F0400140E80012002AF5D1E06B08B16F
:10B16000FFF7EDF8204600F038FF002010BD7047D3
:10B17000F8B5016804460868CA684B6910F00F0FFB
:10B180004FF0000559D003F0010602F490773743E1
:10B1900065D0C10705D0D10503D5616C41F001012F
:10B1A0006164410705D5D90703D0616C41F0020104
:10B1B0006164810705D5D90703D0616C41F00401B2
:10B1C0006164010707D502F02001314303D0616CAF
:10B1D00041F008016164616C00293AD0800604D511
:10B1E000900602D5204600F02DFF20684069616C72
:10B1F000C0F38010090700D460B3204600F0EDFED4
:10B2000020684069400621D52068143050E8001FAE
:10B2100021F0400140E80012002AF5D1E06BA8B10E
:10B220006D494163E06BFFF7ADF8002811D0E06B8A
:10B23000416B01B0BDE8F040084783060FD5930687
:10B240000DD52046BDE8F84000F0FCBE2046FFF7D3
:10B250008EFFF8BD2046FFF78AFF6564F8BD266BB8
:10B260002023012E7CD1C6067AD5D60678D508686B
:10B270004868009048694FF00206400640D5E16BEF
:10B28000086840680004000CE8D0A28D8242E5D92D
:10B29000E085886920282DD020680C3050E8001FF8
:10B2A00021F4807140E80012002AF5D120681430A2
:10B2B00050E8001F21F0010140E80012002AF5D1FA
:10B2C0002068143050E8001F21F0400140E80012CF
:10B2D000002AF5D184F84230256320680C3050E80C
:10B2E000001F21F0100140E80012002AF5D1E06BA8
:10B2F000FFF725F86663A08DE18D401A81B22AE040
:10B30000A08DE18D401A81B2E08D0028A6D00029E1
:10B31000A4D022680C3252E8000F20F4907042E86A
:10B320000007002FF5D12068143050E8002F22F0DC
:10B33000010240E80027002FF5D184F84230256350
:10B3400020680C3050E8002F22F0100240E8002363
:10B35000002BF5D166632046FFF7D0FEF8BDFFE76E
:10B3600005062BD5150629D594F841002128F5D1DD
:10B37000A068B0F5805F01D12069B0B1206A411C9E
:10B380002162216800784860E08C401E0004000CB7
:10B39000E084E3D12068C16821F08001C1602068A9
:10B3A000C16841F04001C160D8E7206A0088C0F35D
:10B3B00008004860206A801C2062E5E74006CDD581
:10B3C0005006CBD5CA68204622F04002CA6084F8F5
:10B3D000413000F042F9C1E7DDBE000870B504005D
:10B3E00004D094F84100002510B106E0012070BDA2
:10B3F00084F84050204600F023F8242084F84100CF
:10B400002068C16821F40051C160204600F07CFE34
:10B410002068016921F4904101612068416921F0AF
:10B420002A0141612068C16841F40051C16065642E
:10B43000202084F8410084F842006563002070BD3C
:10B44000F0B585B00024009401940294039406465C
:10B4500003684C484A4F022103220515BB4229D1FB
:10B46000836943F480438361836903F480430493D5
:10B47000836943F0040383618069434E00F0040054
:10B4800004900802CDE90001039269463046FFF7B7
:10B490001BFACDE90054694630460294FFF714FACE
:10B4A000002211462520FFF777FB2520FFF766FBDA
:10B4B00005B0F0BD354FBB42FAD1C36943F48023D8
:10B4C000C361C36903F480230493836943F00803D1
:10B4D00083618069CDE9005100F00800CDE90320C7
:10B4E0002B4D69462846FFF7EFF9E814CDE9000433
:10B4F000694628460294FFF7E7F9274D254880273B
:10B50000C5E90004C5E902472C616C61AC612846BD
:10B51000EC61FFF7F3F808B1FEF78FFEF5636E629A
:10B520001D4D1C484435143801C5102091C51A48DA
:10B5300045F8104944306C61AC61EC61FFF7DEF80E
:10B5400008B1FEF77AFEB5630022114627206E622D
:10B55000FFF722FB2720FFF711FB104C608801F05A
:10B5600035FA014660600C486288483800F018F8E7
:10B57000094848380068C16841F01001C16097E788
:10B58000003801400010024000080140004800401F
:10B59000000C01403000024080010020000000202B
:10B5A00090F84230202B01D00220704721B11AB10F
:10B5B0000023036300F004BE01207047704770470A
:10B5C0002DE9F843044690F841001F4616460D4603
:10B5D000202802D00220BDE8F8837DB176B100209A
:10B5E0006064212084F84100FFF76AFAA68480464F
:10B5F000E684A068B0F5805F02D003E00120EAE7AE
:10B60000206910B12E4600250EE000260CE08021B6
:10B61000204600F01DFEA0B9AEB116F8010B21685E
:10B620004860E08C401EE084E08C43464FF000020E
:10B6300000970028EBD14FF04001204600F008FEB3
:10B6400030B10320C7E735F8020BC0F30800E6E786
:10B65000202084F841000020BDE77047FEE700008D
:10B6600070B5464C0120A4F80004A4F802040A2096
:10B67000A4F80404AA20A4F80604B420A4F808043A
:10B680001020207000F0AAFAB4F802040025611C12
:10B690002554B4F8022404205054B4F80234491C50
:10B6A0004D225A54B4F80234491C51225A54B4F869
:10B6B0000234221D54219954B4F80234521C995476
:10B6C000B4F80224A11D5054B4F80224E01DC22194
:10B6D0001154B4F80214401C0D54B4F80224401C58
:10B6E00064211154B4F80214401C0D54B4F802241F
:10B6F000401C50211154B4F80214401C084450223C
:10B700001F4904F20244FDF73FFD1C4821885C30CC
:10B710000D542288401C142111542188401C0844D7
:10B72000142218A1FDF730FD1448218872300D5401
:10B730002288401C402111542188401C084440228A
:10B740001649FDF721FD208861880844A188084436
:10B7500081B20A48FEF7AAF900280ED0074810A1C6
:10B76000C83800F0DFFDBDE87040044982B24FF6F2
:10B77000FF73C8391448FFF723BF70BD8004002051
:10B78000E8CA00084D51545474657374266B303800
:10B790006C6377676D30547300000000A4CA000822
:10B7A000436F6E6E656374B1A8CEC4B7A2CBCDB340
:10B7B000C9B9A62CB5C8B4FDB7FECEF1C6F7BBD843
:10B7C000D3A60D0A00000000F00000202DE9F04192
:10B7D0000F4605460124285D000603D5641CE4B22B
:10B7E000052CF8D307484FF400710646FDF7E5FC39
:10B7F00029193A1B3046BDE8F041C91CD21EFDF79D
:10B80000C3BC000080060020F8B52F4D2F492B1F28
:10B810001A1F0095FDF702FD4FF6FF7603280ED0A4
:10B820002BA1A5F2DC4000F07DFD01B03346A5F26E
:10B83000DC41BDE8F04082B22B48FFF7C1BE2B4C83
:10B840002BA1A4F1C800D4F80C2400F06BFD82B247
:10B850003346A4F1C8012448FFF7B2FE29A1A4F1A0
:10B86000C800D4F8102400F05DFD82B23346A4F184
:10B87000C8011D48FFF7A4FE2A4626A1A4F1C8006E
:10B8800000F050FD82B23346A4F1C8011648FFF71C
:10B8900097FED4F80C044FF0010110F0FF0F4FEAAF
:10B8A000E07200EB12600DD001EB202004F5846201
:10B8B00003C24FF48070C4F82804BDE8F8400021AA
:10B8C00000F032B80012F1E7940800203CCB0008E9
:10B8D000CCE1C8A14F5441B9CCBCFED0C5CFA2CA5F
:10B8E000A7B0DC210D0A0000F00000208004002039
:10B8F0004F5441B9CCBCFEB4F3D0A13A25640D0A33
:10B90000000000004F5441B9CCBCFE49443A2564C4
:10B910000D0A00004F5441B9CCBCFEB0E6B1BE3AAE
:10B9200025730D0A0000000030B5C1B00C46054675
:10B930004FF4807101A8FDF740FC0094114C2B4698
:10B940001149D4F8102401A804F5826400F0EAFC3F
:10B950000C48D4E904320DA1C83800F0E3FC0949D1
:10B9600082B24FF6FF73C8390C48FFF729FE01A9D0
:10B970000BA000F02DF84FF49670FEF735FF41B0A4
:10B9800030BD00008004002020CC0008B5B1C7B055
:10B99000B5DA25642F2564B4CE0D0A00F00000202E
:10B9A0002F7379732F6B30386C6377676D305473F6
:10B9B0002F4D515454746573742F7468696E672FDA
:10B9C00066696C652F646F776E6C6F616400000050
:10B9D0002DE9F041304C06460120A4F802040D4642
:10B9E0003046FDF707FC801CA4F804042846FDF748
:10B9F00001FCA4F80604B4F804140844A4F80804EC
:10BA00003020207000F0EAF83046FDF7F3FBB4F880
:10BA10000214000A60543046FDF7ECFBB4F802242F
:10BA2000611C50543046FDF7E5FB0246B4F80214A1
:10BA3000A01C08443146FDF7A7FB2846FDF7DAFBBA
:10BA400007463046FDF7D6FBB4F80214801C2144AB
:10BA500008443A462946FDF797FBB4F80204B4F8C7
:10BA600004140844B4F80614084481B22046FEF7D2
:10BA70001DF800280ED009A1A4F1C80000F052FC66
:10BA8000A4F1C801BDE8F04182B24FF6FF730A4845
:10BA9000FFF796BDBDE8F081800400205075626C10
:10BAA000697368516F7330B1A8CEC4B7A2CBCDB360
:10BAB000C9B9A6210D0A0000F00000202DE9F041CF
:10BAC0003D4C06460120A4F802040D463046FDF721
:10BAD00091FB001DA4F804042846FDF78BFBA4F895
:10BAE0000604B4F804140844A4F8080432202070B2
:10BAF00000F074F83046FDF77DFBB4F80214000A3C
:10BB000060543046FDF776FBB4F80224611C5054B3
:10BB10003046FDF76FFB0246B4F80214A01C08443F
:10BB20003146FDF731FB3046FDF764FBB4F80214F3
:10BB3000B4F800242144801C120A0A543046FDF750
:10BB400059FBB4F80214C01C0A1994F800141154DB
:10BB5000B4F80004401CA4F800042846FDF74AFB92
:10BB600007463046FDF746FBB4F80214001D214499
:10BB700008443A462946FDF707FBB4F80204B4F836
:10BB800004140844B4F80614084481B22046FDF7B2
:10BB90008DFF00280ED009A1A4F1C80000F0C2FB5F
:10BBA000A4F1C801BDE8F04182B24FF6FF730A4824
:10BBB000FFF706BDBDE8F081800400205075626C7F
:10BBC000697368516F7331B1A8CEC4B7A2CBCDB33E
:10BBD000C9B9A6210D0A0000F00000200B4800BFE3
:10BBE000B0F80814CA0901D041F08001B0F802246D
:10BBF0008154B0F80214491CA0F80214B0F80814DB
:10BC0000C909A0F80814EBD1704700008004002097
:10BC100000B5A1B080216846FDF7CFFA05A207A1C3
:10BC2000684600F07FFB69460EA0FFF747FF21B092
:10BC300000BD000056302E31000000007B226964F8
:10BC4000223A202231222C22706172616D73223AD5
:10BC5000207B2276657273696F6E223A20222573EB
:10BC6000227D7D002F6F74612F6465766963652F77
:10BC7000696E666F726D2F6B30386C6377676D30ED
:10BC800054732F4D515454746573740070B5364C11
:10BC900005460120A4F802040220A4F80404284662
:10BCA000FDF7A8FAC01CA4F80604B4F8041408446C
:10BCB000A4F8080482202070FFF790FFB4F8000475
:10BCC000B4F80214000A6054B4F80224611C94F819
:10BCD00000045054B4F80004401CA4F800042846A2
:10BCE00004F58064FDF786FA010A1F486288801C0B
:10BCF00011542846FDF77EFA1B496288C91C50542E
:10BD00002846FDF777FA024617486188001D084467
:10BD10002946FDF739FA2846FDF76CFA6188A4F543
:10BD200080642144001D00220A54B4F80204B4F8CF
:10BD300004140844B4F80614084481B20A48FDF714
:10BD4000B5FE00280ED0084808A1C83800F0EAFA6D
:10BD5000BDE87040044982B24FF6FF73C8390D4800
:10BD6000FFF72EBC70BD0000800400205375627385
:10BD70006372696265B1A8CEC4B7A2CBCDB3C9B9AD
:10BD8000A62CB5C8B4FDB7FECEF1C6F7BBD8D3A676
:10BD90000D0A0000F00000200D4808B5416941F08F
:10BDA000010141614069002200F00100009011464C
:10BDB0000C20FEF7F1FE0C20FEF7E0FE00221146FB
:10BDC0000D20FEF7E9FEBDE808400D20FEF7D6BEC7
:10BDD00000100240094808B5816941F008018161FD
:10BDE000816901F008010091816941F004018161DC
:10BDF000806900F00400009008BD000000100240BF
:10BE00000C4810B50A4901604FF4E131416000214E
:10BE100081600C22C160C0E904128161C161FFF739
:10BE2000DDFA002803D0BDE81040FEF706BA10BDC9
:10BE300000380140F00000200C4810B50A490160AC
:10BE40004FF4E1314160002181600C22C160C0E902
:10BE500004128161C161FFF7C1FA002803D0BDE877
:10BE60001040FEF7EAB910BD00480040380100203C
:10BE7000FEE7FEE770477047FEF728BE30B58FB08B
:10BE800028216846FDF799F914210AA8FDF795F9CC
:10BE900001210804CDE90010002402940225049138
:10BEA000CDE907504FF4E01009906846FEF782FF95
:10BEB00008B172B6FEE70F20CDE90A054FF48060A5
:10BEC000CDE90C4002210AA80E94FEF797FE002847
:10BED00001D072B6FEE70FB030BD704710B5406AB2
:10BEE0000021C185C184FFF742F910BD70B5446AD5
:10BEF0002068406994F84110C0F3C0100025212942
:10BF000004D118B1E584204600F08EF8206840691D
:10BF100094F84210C0F38010222904D118B1E585AD
:10BF2000204600F05AF8606C40F010006064204633
:10BF3000FFF71DF970BD10B50146406A0968096830
:10BF40004FF0000289062ED4C28501680C3151E8F9
:10BF5000003F23F4807341E80034002CF5D10168E0
:10BF6000143151E8003F23F0010341E80034002C74
:10BF7000F5D10168143151E8003F23F0400341E856
:10BF80000034002CF5D1202180F84210016B0129EA
:10BF900009D101680C3151E8003F23F0100341E85A
:10BFA0000034002CF5D14263016B012902D0FFF768
:10BFB00005FB10BD818DFFF7A1F810BD10B5406ADB
:10BFC00001214163016B012902D0FFF7F8FA10BD8E
:10BFD000818D4908FFF792F810BD01680C3151E8D6
:10BFE000002F22F4907241E80023002BF5D1016864
:10BFF000143151E8002F22F0010241E80023002B08
:10C00000F5D1016B012909D101680C3151E8002FEC
:10C0100022F0100241E80023002BF5D1202180F806
:10C02000421000210163704701680C3151E8002F74
:10C0300022F0C00241E80023002BF5D1202180F836
:10C040004110704708B590F84210222901D0022013
:10C0500008BD82684FF480539A4201D1016921B131
:10C06000816A9A421BD04AB10AE00268816A52682A
:10C07000C2F308020A80816A891C08E0026972B171
:10C080000268526802F07F020A70816A491C81626C
:10C09000C18D491E0904090CC18503D01BE002684B
:10C0A0005268F1E70168CA6822F02002CA6001689C
:10C0B000CA6822F48072CA6001684A6922F00102EB
:10C0C0004A61202180F8421000214163026B012A5D
:10C0D00003D0FFF773FA002008BD016301680C313B
:10C0E00051E8002F22F0100241E80023002BF5D187
:10C0F00001680A68D20602D50A6849680091818DF4
:10C10000FEF7FCFFE7E7000070B504460068016930
:10C11000E26821F44051114301612169A06808439C
:10C12000616908432168CA6841F20C639A4302437B
:10C13000CA6020684169A26921F4407111434161DC
:10C140001E492068884202D1FEF7FEFD01E0FEF79D
:10C15000EBFD00EBC00101EB001260686421800080
:10C16000B2FBF0F3B3FBF1F36FF018067343B2FBCD
:10C17000F0F5B2FBF0F605EB8305322303EB051572
:10C18000B5FBF1F5B6FBF1F605F0F00505EB06158C
:10C19000B2FBF0F6B2FBF0F0B0FBF1F06FF018027A
:10C1A000504306EB800003EB0010B0FBF1F0216878
:10C1B00000F00F002844886070BD00000038014086
:10C1C00038B58162044682850020134660642222CD
:10C1D00084F84220E56B1B4AAA62E56B1A4AEA62C0
:10C1E000E56B1A4A2A63E26B50630A462168E06BEA
:10C1F000091DFEF7C1FA20680168406800902069B7
:10C2000048B120680C3050E8001F41F4807140E8CC
:10C210000012002AF5D12068143050E8001F41F0C8
:10C22000010140E80012002AF5D12068143050E8DE
:10C23000001F41F0400140E80012002AF5D1002023
:10C2400038BD000037BF0008BDBF0008EDBE0008C4
:10C250002DE9F041984617460E460446069D27E014
:10C26000681C25D02DB1FEF72BFCA0EB0800A842DE
:10C270001ED920680C3050E8001F21F4D07140E82E
:10C280000012002AF5D12068143050E8001F21F078
:10C29000010140E80012002AF5D1202084F8410075
:10C2A00084F84200002084F840000320BDE8F081BB
:10C2B0002068006836EA000004D00020B842CFD0E1
:10C2C0000020F3E70120F9E70148FEF751BF000025
:10C2D000F00000200F4808B500680168C943C9068E
:10C2E00012D40168406800900A48FEF708FF0B4925
:10C2F0000948096842884968511A01800121017280
:10C3000041680448FFF74CF9BDE808400148FEF7D2
:10C310002FBF000038010020000000208001002015
:10C32000FEE700000FB4084B10B504A902AA039859
:10C3300000F03EF8044602A9002000F06AFA204608
:10C3400010BC5DF814FB000013C800080907090EB3
:10C35000002804DB00F1E02080F80014704700F0B2
:10C360000F0000F1E02080F8141D7047BFF34F8FDD
:10C3700005480168054A01F4E06111430160BFF31B
:10C380004F8F00BFFDE700000CED00E00400FA0550
:10C3900002E008C8121F08C1002AFAD1704770478E
:10C3A000002001E001C1121F002AFBD170470000EC
:10C3B0002DE9FF4F8DB00F460546002606E02528E3
:10C3C0000BD0DDE90F1290476D1C761C28780028F1
:10C3D000F5D111B03046BDE8F08F0024A246A14649
:10C3E0000122EC4900E0044315F8013F203B02FA2A
:10C3F00003F00842F7D128782A2810D06FF02F02D6
:10C400002878A0F13001092914D80AEB8A0102EB3F
:10C41000410144F0020400EB010A6D1CF0E701CF7A
:10C420005FEA000A03D544F40054CAF1000A44F05C
:10C4300002046D1C28782E2817D115F8010F44F03E
:10C4400004042A280ED06FF02F022878A0F13001C2
:10C4500009290AD809EB890102EB410100EB010926
:10C460006D1CF2E757F8049B6D1C28786C280FD0E0
:10C4700006DC4C2817D068280DD06A2814D104E0B7
:10C48000742810D07A280FD10DE044F400140AE08B
:10C4900044F4801401E044F440146978814202D1EC
:10C4A00004F580146D1C6D1C2A786E2A1FD00CDCDC
:10C4B000632A31D004DC002A8BD0582A11D1A3E0A2
:10C4C000642A68D0692A0CD165E0732A2ED004DC76
:10C4D0006F2A73D0702A04D19BE0752A6FD0782A16
:10C4E0006ED01046DDE90F129047761C50E1C4F380
:10C4F0000250022806D0032809D0042801CF09D011
:10C50000066045E101CFF117C0E9006140E101CFCC
:10C5100006803DE106703BE117F8040B8DF8000042
:10C5200000208DF80100EB46012003E057F804BB22
:10C530004FF0FF3061074FF0000102D40DE008F129
:10C540000101884649450FDA8045F8DB1BF80810E1
:10C550000029F4D108E008F1010188468142FADBA4
:10C560001BF808100029F6D1DDE90F23AAEB08001B
:10C570008146214600F036F9304400EB080604E01D
:10C58000DDE90F121BF8010B9047B8F10108F7D253
:10C5900021464846F7E00A21C4F302534FF0000B4E
:10C5A0000891022B04D001CFC117032B09D00AE058
:10C5B000FF1D27F00707F7E8020108E032E01FE05F
:10C5C00020E000B2C117042B01D140B2C117031EF5
:10C5D00071F1000307DA4FF0000CD0EB0C006CEBAC
:10C5E00001012D2302E0230504D52B238DF82430EF
:10C5F000012303E0E30701D02023F7E7984658E042
:10C600000A2110E010210EE010204FF0000B0890DE
:10C610000CE010214FF0000B44F004044FF0080927
:10C62000089103E008214FF0000B0891C4F3025376
:10C63000022B04D001CF0021032B06D006E0FF1D02
:10C6400027F00707F7E8020103E080B2042B00D1CE
:10C65000C0B24FF0000823072BD5702A07D0DDF8B1
:10C6600020C08CF0100C5CEA0B0C05D00EE04023CF
:10C670008DF82430012308E050EA010306D030236E
:10C680008DF824308DF8252002239846DDF820C04F
:10C690008CF0080C5CEA0B0C0BD150EA010301D1C1
:10C6A000630706D530238DF824304FF00108A9F137
:10C6B0000109582A04D038A20B9208AA0A920BE06A
:10C6C0003AA2F9E75B46089AFCF7DAFE0B9B9B5C03
:10C6D0000A9A521E0A92137050EA0102F2D10A9885
:10C6E000ADEB000000F1200B600702D524F480348C
:10C6F00001E04FF00109D94502DDA9EB0B0000E094
:10C70000002000EB0B0141440890AAEB010AE00372
:10C7100006D4DDE90F232146504600F063F80644B5
:10C720004FF0000908E009A911F80900DDE90F122E
:10C73000904709F10109761CC145F4DBE0030CD5F3
:10C74000DDE90F232146504600F04CF8064404E092
:10C75000DDE90F1230209047761C0899481E08909A
:10C760000029F5DC08E00A980A990078491C0A912A
:10C77000DDE90F129047761CBBF10001ABF1010B14
:10C78000F1DC21465046DDE90F2300F019F806449C
:10C790006D1C1BE609280100303132333435363741
:10C7A00038396162636465660000000030313233FD
:10C7B000343536373839414243444546000000009D
:10C7C0002DE9F041044600251E461746880404D48E
:10C7D00005E039462020B0476D1C641EF9D5284677
:10C7E000BDE8F0812DE9F041044600251E46904643
:10C7F000C80301D5302700E02027880404D505E0D0
:10C8000041463846B0476D1C641EF9D52846BDE840
:10C81000F0810A68531C0B6010707047334834492C
:10C820000860FEF75BF9FFF729FBFFF7D3FAFFF784
:10C83000B3FAFFF7E5FAFFF7FFFA2EA12E48FFF74C
:10C8400071FD82B24FF6FF7423462B492B48FEF749
:10C85000B7FE2BA12848FFF765FD82B22346264983
:10C860002648FEF7ADFE30A12348FFF75BFD82B2FC
:10C87000234621492148FEF7A3FE35A11E48FFF7B4
:10C8800051FD82B223461C491C48FEF799FE3AA18D
:10C890001948FFF747FD82B2234617491748FEF7AC
:10C8A0008FFE3FA240A11448FFF73CFD82B2234611
:10C8B00011491248FEF784FE1BA10F48FFF732FD15
:10C8C00082B223460C490D48FEF77AFE0CA10A48B5
:10C8D000FFF728FD82B2234607490848FEF770FE9D
:10C8E000FDF742F8FDF790FCFCE70000009000081F
:10C8F00008ED00E00D0A000028000020F0000020F4
:10C900002A2A2A2A2A2A2A2A2A2A2A2A2A2A2A2A87
:10C910002A2A2A2A2A2A2A2A2A2A2A2A2A2A2A2A77
:10C920002A2A2A0D0A0000002A2020202020202068
:10C9300020202020202020202020202020202020F7
:10C94000202020202020202020202A0D0A00000066
:10C950002A202020202020422D426F6F742D463146
:10C960002773204170706C69636174696F6E202059
:10C9700020202A0D0A0000002A202020202020202C
:10C98000202020466F7220746865207465737420BF
:10C99000202020202020202020202A0D0A00000016
:10C9A00056302E31000000002A2020202020202098
:10C9B000202056657273696F6E203A2020257320FF
:10C9C00020202020202020202A0D0A00F0B50B3046
:10C9D000154D20F007010024144A0FE003688B4234
:10C9E0000BD38B4205D95E1A43184768C3E9006729
:10C9F00000E04368136002C004E0021D10680028D4
:10CA0000ECD12046002802D1286808B10020F0BDF2
:10CA1000064A07481060074A121A22F00702C0E9C6
:10CA2000002401202860D7E72400002020000020F7
:10CA3000B4080020B00A0020010202030405060722
:10CA400008090A0B0C0D0E0F10100000000000006A
:10CA500000000102030406070809000000000102AB
:10CA60000304DDDDDDDDDCBBBBDDDDDDDDDDDDDDEE
:10CA7000DDDD9888888888888888777777777788D1
:10CA80008888855555566666666666666666666813
:10CA90008888833333322222222222222222222811
:10CAA000888D0000316639626534333835646465D9
:10CAB00034353062643861343035396166356666E4
:10CAC00063636432356532613665396136373264A5
:10CAD000643636366437666232353133633539331E
:10CAE00034313963000000006B30386C6377676D58
:10CAF0003054732E4D515454746573747C73656354
:10CB00007572656D6F64653D322C7369676E6D6516
:10CB100074686F643D686D61637368613235362C8B
:10CB200074696D657374616D703D313639353139B5
:10CB3000383831333630347C000000002F6F746198
:10CB40002F6465766963652F757067726164652F00
:10CB50006B30386C6377676D3054732F4D5154547C
:10CB6000746573747B22636F6465223A22313030BE
:10CB700030222C2264617461223A7B2273697A65C7
:10CB8000223A25642C2273747265616D4964223ADD
:10CB900025642C227369676E223A22252A33327368
:10CBA000222C226450726F746F636F6C22202020DD
:10CBB000202020202020203A226D717474222C2203
:10CBC00076657273696F6E223A22253373222C22A6
:10CBD0007369676E4D6574686F64223A224D6435DF
:10CBE000222C2273747265616D46696C65496422FA
:10CBF0003A312C226D6435223A22252A33327322AF
:10CC00007D2C226964223A252A642C226D65737377
:10CC1000616765223A2273756363657373227D00D1
:10CC20007B226964223A202231222C2270617261B7
:10CC30006D73223A207B2266696C65496E666F22AD
:10CC40003A7B2273747265616D4964223A25642CC3
:10CC50002266696C654964223A317D2C2266696CD2
:10CC600065426C6F636B223A7B2273697A65223A64
:10CC700025642C226F6666736574223A25647D7D77
:10CC80007D000000A4CC0008000000202800000067
:10CC900090C30008CCCC000828000020880E0000BB
:10CCA000A0C300080000F401000000000000000024
:10CCB0000100000010000000000000000024F4004B
:0CCCC00000000000000000000000000068
:04000005080091312D
:00000001FF
