:020000040801F1
:10000000100B0020450101083B1801087D1701086D
:100010003918010821020108091D0108000000002B
:100020000000000000000000000000003F18010870
:100030009F020108000000003D180108591801083E
:100040005F0101085F0101085F0101085F0101080C
:100050005F0101085F0101085F0101085F010108FC
:100060005F0101085F0101085F0101085F010108EC
:100070005F0101085F0101085F0101085F010108DC
:10008000690201085F0101085F0101085F010108C1
:100090005F0101085F0101085F0101085F010108BC
:1000A0005F0101085F0101085F0101085F010108AC
:1000B0005F0101085F0101085F0101085F0101089C
:1000C0005F0101085F0101085F0101085F0101088C
:1000D0005F010108A91C0108B51C01085F010108A6
:1000E0005F0101085F0101085F0101085F0101086C
:1000F0005F0101085F0101085F0101085F0101085C
:100100005F0101085F0101085F0101085F0101084B
:100110005F0101085F0101085F0101085F0101083B
:100120005F0101085F0101085F0101085F0101082B
:10013000DFF80CD000F062F80048004745210108C4
:10014000100B00200648804706480047FEE7FEE700
:10015000FEE7FEE7FEE7FEE7FEE7FEE7FEE7FEE777
:10016000BB18010831010108202A04DB203A21FADA
:1001700002F00021704721FA02F3D040C2F12002C0
:10018000914008431946704740EA01039B0703D09A
:1001900009E008C9121F08C0042AFAD203E011F8C6
:1001A000013B00F8013B521EF9D27047D2B201E088
:1001B00000F8012B491EFBD270470022F6E710B56C
:1001C00013460A4604461946FFF7F0FF204610BDC5
:1001D00030B50B46014600202022012409E021FA17
:1001E00002F59D4205D303FA02F5491B04FA02F514
:1001F0002844151EA2F10102F1DC30BD064C074D6A
:1002000006E0E06840F0010394E8070098471034E6
:10021000AC42F6D3FFF790FFD8220108F82201087C
:10022000FEE7000010B504460022C01C491F01F083
:100230005FFFB4F8831049BA814204D004A001F0F2
:100240007DFE002010BD05A001F078FE012010BD4C
:10025000637263206572726F720D0A0063726320AD
:100260006F6B0D0A00000000014800F079B9000032
:10027000AC06002030B590F840500124AC40C56B6E
:100280006C60046863604368102B036803D0996056
:100290000068C26030BD9A600068C16030BD7047C0
:1002A00072B6FEE706490020C8610648016941F0C0
:1002B00004010161016941F04001016170470000E2
:1002C000F006002000200240064A0021D1610649C4
:1002D0000A6942F002020A614861086940F0400080
:1002E00008617047F006002000200240044B002205
:1002F000DA61044A136943F0010313610180704716
:10030000F00600200020024014480022C168CB06FD
:10031000134904D5CA6942F00202CA611022C368B7
:100320005B0705D5CB6943F00103CB6142F00402C2
:10033000C369DB0707D0CB6943F00403CB61C16914
:1003400021F00101C161A2F58071013901D0C260C3
:100350007047C16921F00101C1617047002002406E
:10036000F006002070B5054600F054FC0646114C1E
:1003700009E0681C07D025B100F04CFC801BA842A6
:1003800001D9032070BDE068C007F2D1E0688006A3
:1003900001D52020E060E068C00605D4E069C00710
:1003A00002D1E068400703D5FFF7AEFF012070BD22
:1003B000002070BD002002402DE9F04115460E4698
:1003C000074600F017FB002409E000BF56F8242080
:1003D00007EB84010023022000F0CCFA641CAC423D
:1003E000F4D3BDE8F04100F0BBBA10B590F821108D
:1003F0000022022905D00421816380F820200120F9
:1004000010BD01680B6823F00E030B6001680B68D8
:1004100023F001030B6090F84030C46B012101FA16
:1004200003F3636080F8211080F82020104610BD8F
:100430002DE9F05F90F821100024022903D0042157
:100440008163012485E001680A6822F00E020A60D7
:1004500001680A6822F001020A603F4E3E4FB21561
:10046000DFF8F4C0DFF8F090DFF8ECA0DFF8E8B0D8
:10047000DFF8E4E00168783F13011502ACF1640C89
:10048000A9F15009AAF13C0AABF1280BAEF1140E08
:100490004FF48018B14227D9B9420ED0614512D02D
:1004A00049451DD0514518D0594518D0714501D145
:1004B000424615E0294EB14201D1012210E0274EFB
:1004C0001436B14201D110220AE0244E2836B1423E
:1004D00006D0224A3C32914201D11A4600E02A4617
:1004E0001E49091F0A602BE0B94213D0614517D09D
:1004F000494522D051451DD059451DD0714501D1E6
:1005000042461AE0B14202D14FF0807215E0134E1C
:10051000B14201D1012210E0104E1436B14201D196
:1005200010220AE00D4E2836B14206D00B4A3C326A
:10053000914201D11A4600E02A46074980394A60B3
:10054000012180F82110002180F82010416B01B1B9
:1005500088472046BDE8F09F800002400804024022
:100560002DE9F05FC16B0A6801680B68046C4FF0FD
:10057000040808FA04F8844D844E854FDFF814C24D
:10058000DFF81492DFF814A2DFF814B2DFF814E2F7
:1005900018EA020F65D05FEA437862D50A689206CE
:1005A00003D40A6822F004020A60DFF8F0814FF4F5
:1005B0008062016808F1140813011402414524D92E
:1005C000A9420DD0B1420FD0B9421AD0614515D021
:1005D000494515D0514501D1120312E0594501D1C9
:1005E00004220EE0714501D140220AE06D4D143520
:1005F000A94206D06B4A2832914201D11A4600E046
:1006000022466749091F0A6029E0A94213D0B14276
:1006100015D0B94220D061451BD049451BD051456A
:1006200002D14FF4800217E0414502D14FF08062C1
:1006300012E0594501D104220EE0714501D140225A
:100640000AE0584D1435A94206D0564A2832914244
:1006500001D11A4600E022464B4908394A60C16A76
:1006600071E04FF0020808FA04F818EA020F70D09F
:100670005FEA83786DD50A68920606D40A6822F08C
:100680000A020A60012180F82110DFF810814FF47E
:100690000072016808F1140813011402414524D9BD
:1006A000A9420DD0B1420FD0B9421AD0614515D040
:1006B000494515D0514501D1120312E0594501D1E8
:1006C00002220EE0714501D120220AE0354D143599
:1006D000A94206D0334A2832914201D11A4600E09D
:1006E00022462F49091F0A6029E0A94213D0B142CE
:1006F00015D0B94220D061451BD049451BD051458A
:1007000002D14FF4001217E0414502D14FF00072C0
:1007100012E0594501D102220EE0714501D120229B
:100720000AE0204D1435A94206D01E4A28329142D3
:1007300001D11A4600E02246134908394A600021D7
:1007400080F82010816A00291CD0BDE8F05F0847BE
:10075000FFE70825A540154214D01A0712D50A68EC
:1007600022F00E020A6090F84020C36B012101FACA
:1007700002F25A60816380F82110002180F8201075
:10078000016BE0E7BDE8F09F080002401C0002405A
:100790003000024044000240580002406C00024019
:1007A000080402401C04024030B560B11A4B0268D4
:1007B00014219A4209D2194B1344B3FBF1F1890079
:1007C000016417490AE0012030BD134B5B4213441A
:1007D000B3FBF1F1890001640F490839C1630221BB
:1007E00080F82110136843F6F0718B43F0E901148F
:1007F0002143D0E902452C43214304692143446944
:10080000214384692143194311600021416301227E
:1008100042770177084630BD08040240F8FFFDBF6B
:100820000000024070B5044690F820000025012821
:100830000CD0012084F8200094F821600020012EC3
:1008400006D084F820000225284670BD022070BD25
:10085000022684F82160A0632068066826F001065D
:1008600006602046FFF706FDE06A00282068016860
:1008700002D041F00E0106E021F004010160206881
:10088000016841F00A0101602068016841F001013E
:100890000160D9E770B5044600F0BCF90546601C5C
:1008A00002D004480078044400F0B4F9401BA04290
:1008B000FAD370BD080000202DE9F0470546264810
:1008C0000F460126017E01290FD0012181460176C4
:1008D0002868DFF888804CF25034022808D0A246FD
:1008E0002046FFF73FFDA8B131E00220BDE8F087C8
:1008F0002046FFF737FD08BB0120FFF7D3FC204659
:10090000FFF730FDD8F81010064621F00401C8F8B2
:1009100010101CE04FF0FF303860AC6811E020464A
:10092000FFF7D2FC5046FFF71DFDD8F81010060067
:1009300021F00201C8F8101001D03C6007E004F576
:100940000064D5E9020100EBC120A042E7D80021F4
:1009500089F818103046C9E7F00600200020024050
:100960000348016941F080010161002070470000E7
:10097000002002402DE9F05F07461C48884600240D
:10098000017E15461E46012909D0012181460176C6
:100990004CF2503A5046FFF7E5FC18B122E0022035
:1009A000BDE8F09F012F02D0022F00D00427D346CC
:1009B000DFF83CA0220128463146FFF7D5FB81B283
:1009C00008EB4400FFF792FC5846FFF7CBFCDAF83F
:1009D000102022F00102CAF8102018B9641CE4B2F9
:1009E000BC42E7D3002289F81820D9E7F00600209E
:1009F00000200240064900200A69120607D5054A70
:100A00004A60054A4A600969090600D50120704715
:100A10000020024023016745AB89EFCD2DE9F84F57
:100A2000DFF8C8910024A9F1040B23460F2709F130
:100A3000040AABF1040ED1E00125A54006EA050247
:100A4000AA4276D1DFF8A8C14E68A6EB0C0866452D
:100A50002BD00DDC032E34D005DC36B3012E19D09B
:100A6000022E2FD11BE0112E16D0122E2AD119E002
:100A7000B8F5881F19D006DCB8F5803F15D0B8F559
:100A8000801F1FD111E0B8F5001F0ED0B8F5041F6C
:100A900018D10AE0CB6815E0CB681B1D12E0CB68CB
:100AA00008330FE0CB680C330CE08B682BB1012BC3
:100AB0004FF0080303D0456104E0042302E0056120
:100AC00000E00023FF2A01D8064601E000F10406F9
:100AD0004FEA840501D9A5F12005D6F8008007FA70
:100AE00005FC28EA0C0803FA05F548EA0508C6F8EB
:100AF00000804D68ED0070D53E4DAE6946F00106B0
:100B0000AE61AD6924F0030605F0010500953A4D8C
:100B100006EB050CDCF80850A607360F07FA06F8B6
:100B200025EA0805DFF8D480404503D14FF00008DE
:100B300025E052E0DFF8C880404502D14FF00108BF
:100B40001DE0DFF8C080404502D14FF0020816E0FA
:100B5000DFF8B480404502D14FF003080FE0DFF822
:100B6000AC80404502D14FF0040808E0DFF8A080D7
:100B7000404502D14FF0050801E04FF0060808FAA1
:100B800006F848EA0508CCF808804D68D9F80060F6
:100B9000ED024D4601D5164300E096432E604D68A8
:100BA000DAF80060AD02554601D5164300E09643E1
:100BB0002E604D68DBF80060AD035D4601D516433D
:100BC00000E096432E604D68DEF80060ED03754648
:100BD00001D5164300E096432E60641C0A68164651
:100BE000E2407FF429AFBDE8F88F0000080401401F
:100BF00000001110001002400000014000080140F8
:100C0000000C014000100140001401400018014098
:100C1000001C014001488068704700000800002067
:100C20000248816802781144816070470800002002
:100C3000074810B5016841F010010160032000F081
:100C400075F80F2000F006F800F024F8002010BD21
:100C50000020024070B50D4D04464FF47A7128789B
:100C6000B1FBF0F00A490968B1FBF0F000F0EEFAD0
:100C700048B9102C07D200222146501E00F036F849
:100C800000206C6070BD012070BD000008000020D5
:100C9000140000200C4808B5816941F00101816110
:100CA000816901F001010091C16941F08051C16188
:100CB000C06900F0805000900448416821F0E06174
:100CC00041F00071416008BD001002400000014089
:100CD000002809DB00F01F0201219140400980003B
:100CE00000F1E020C0F8001170470000F0B40E4B96
:100CF0001B680C46C3F30223C3F10705042D00D97A
:100D00000425191D072901D2002300E0DB1E01265E
:100D100006FA05F1491E214099409E40761E164074
:100D20003143F0BC01F01AB90CED00E0064900F0C7
:100D3000070208684FF6FF03184040EA0220034A02
:100D400010430860704700000CED00E00000FA0559
:100D5000BFF34F8F05480168054A01F4E061114374
:100D60000160BFF34F8F00BFFDE700000CED00E016
:100D70000400FA052DE9F0470F46050061D0434E07
:100D8000306800F00700B84209D2306820F0070050
:100D900038433060306800F00700B84251D128680D
:100DA0003B4C810712D5400703D5606840F4E060F2
:100DB00060602878000703D5606840F46050606088
:100DC0006068A96820F0F000084360602878C007D8
:100DD00028D06868012810D02168022810D089071F
:100DE00000292EDA616821F0030101436160FFF7F9
:100DF00011FF804641F288390DE021688903EFE751
:100E00008901EDE7FFF706FFA0EB0801494502D98C
:100E10000320BDE8F0876068696800F00C00B0EB63
:100E2000810FEFD1306800F00700B8420BD930686D
:100E300020F0070038433060306800F00700B84207
:100E400001D00120E5E72878400705D56068E9680A
:100E500020F4E060084360602878000706D56068E9
:100E6000296920F4605040EAC100606000F038F861
:100E70006168084AC1F30311515CC8400649086023
:100E800006480068FFF7E6FE0020C2E700200240A7
:100E900000100240BE220108140000200C000020B7
:100EA0000448054900684968044AC1F30221515CBD
:100EB000C84070471400002000100240CE220108F4
:100EC0000448054900684968044AC1F3C221515CDD
:100ED000C84070471400002000100240CE220108D4
:100EE0000E4A51680E4801F00C03042B11D0082B58
:100EF0000FD10C48C1F38343C903C05C0AD55168C4
:100F0000084AC1F34041921E515C054A5043B0FB70
:100F1000F1F0704704494843704700000010024058
:100F200000127A00AE22010800093D002DE9F84FB9
:100F3000040070D02078C04DC00749D06868C0F365
:100F40008100012807D06868C0F38100022809D118
:100F50006868C00306D52868800339D56068002812
:100F6000E7D035E06068B0F5803F0BD010B1B0F548
:100F7000A02F11D0286820F480302860286820F441
:100F8000802002E0286840F480302860606890B1DA
:100F9000FFF740FE06460AE0286840F480202860FB
:100FA000F0E700BFFFF736FE801B642873D828687F
:100FB0008003F7D50CE0FFF72DFE064605E000BFE5
:100FC000FFF728FE801B6428F0D828688003F7D438
:100FD00020789A4E80074FF001094FF0000839D56C
:100FE000686810F00C0F07D06868C0F38100022811
:100FF00009D16868C00306D42868800714D5206921
:10100000012808D110E02069B0B1C6F80090FFF7C0
:1010100001FE074605E00AE1FFF7FCFDC01B0228C0
:10102000C4D828688007F7D52868616920F0F800DF
:1010300040EAC10028600DE0C6F80080FFF7EAFD35
:10104000074604E0FFF7E6FDC01B022823D8286806
:101050008007F7D4207800072CD57948A169D9B149
:10106000C0F80090FFF7D6FD074604E0FFF7D2FD79
:10107000C01B02280FD8686A8007F7D571484FF463
:10108000FA510068B0FBF1F0009000BF0098411EDB
:101090000091FAD20EE080E0C0F80080FFF7BAFDC0
:1010A000074604E0FFF7B6FDC01B022875D8686A42
:1010B0008007F7D42078400760D5E8690027C00092
:1010C00008D4E86940F08050E861E869012700F041
:1010D000805000905C480168C90513D401688346BC
:1010E00041F480710160FFF795FD824606E000BF84
:1010F000FFF790FDA0EB0A0064284ED8DBF8000053
:10110000C005F5D5E06801280AD008B1052813D03C
:10111000286A20F001002862286A20F0040002E01A
:10112000286A40F001002862E06841F2883B98B1EB
:10113000FFF770FD82460BE0286A40F00400286249
:10114000EEE700BFFFF766FDA0EB0A0159455AD84C
:10115000286A8007F6D50CE0FFF75CFD824605E0C3
:10116000FFF758FDA0EB0A0159454CD8286A8007C3
:10117000F6D41FB1E86920F08050E861E06988B3D7
:101180006968C1F38101022944D00228C6F8608051
:1011900004D0FFF73FFD044638E034E0FFF73AFDA6
:1011A000074604E0FFF736FDC01B02282BD828684D
:1011B0008001F7D4206AB0F5803F05D16868A16846
:1011C00020F4003008436860D4E9080108436968E6
:1011D00021F4741108436860C6F86090FFF71AFDA7
:1011E000044606E025E000BFFFF714FD001B0228BF
:1011F00009D828688001F7D51BE000BFFFF70AFD7A
:10120000001B022802D90320BDE8F88F286880015E
:10121000F4D40EE00128F7D06868226A00F4803127
:10122000914204D1616A00F47010884201D001201B
:10123000EAE70020E8E70000001002400000424218
:1012400080044242140000200070004010B5401E8F
:10125000B0F1807F01D3012010BD4FF0E024606128
:101260000F21601700F07AFE0020A06107202061A6
:10127000002010BD704710B504460068406994F81E
:101280004110C0F3C010212911D180B12068143061
:1012900050E8001F21F0800140E80012002AF5D13B
:1012A000A06B08B1FFF7A1F8204600F0ADFB206865
:1012B000406994F84210C0F38010222911D180B106
:1012C0002068143050E8001F21F0400140E800126F
:1012D000002AF5D1E06B08B1FFF787F8204600F04F
:1012E0006CFB002010BD7047F8B501680446086823
:1012F000CA684B6910F00F0F4FF0000559D003F08A
:10130000010602F49077374365D0C10705D0D105B7
:1013100003D5616C41F001016164410705D5D9072E
:1013200003D0616C41F002016164810705D5D907E2
:1013300003D0616C41F004016164010707D502F03C
:101340002001314303D0616C41F008016164616C9C
:1013500000293AD0800604D5900602D5204600F038
:1013600061FB20684069616CC0F38010090700D4FC
:1013700060B3204600F021FB20684069400621D57B
:101380002068143050E8001F21F0400140E80012AE
:10139000002AF5D1E06BA8B16D494163E06BFFF71E
:1013A00047F8002811D0E06B416B01B0BDE8F04078
:1013B000084783060FD593060DD52046BDE8F840B3
:1013C00000F030BB2046FFF78EFFF8BD2046FFF748
:1013D0008AFF6564F8BD266B2023012E7CD1C606EA
:1013E0007AD5D60678D508684868009048694FF0E5
:1013F0000206400640D5E16B086840680004000C16
:10140000E8D0A28D8242E5D9E085886920282DD0D8
:1014100020680C3050E8001F21F4807140E8001271
:10142000002AF5D12068143050E8001F21F0010196
:1014300040E80012002AF5D12068143050E8001F5F
:1014400021F0400140E80012002AF5D184F8423032
:10145000256320680C3050E8001F21F0100140E89F
:101460000012002AF5D1E06BFEF7BFFF6663A08D86
:10147000E18D401A81B22AE0A08DE18D401A81B23F
:10148000E08D0028A6D00029A4D022680C3252E8B2
:10149000000F20F4907042E80007002FF5D120687B
:1014A000143050E8002F22F0010240E80027002FFE
:1014B000F5D184F84230256320680C3050E8002FC5
:1014C00022F0100240E80023002BF5D1666320468D
:1014D000FFF7D0FEF8BDFFE705062BD5150629D589
:1014E00094F841002128F5D1A068B0F5805F01D1C2
:1014F0002069B0B1206A411C2162216800784860EF
:10150000E08C401E0004000CE084E3D12068C16838
:1015100021F08001C1602068C16841F04001C160D4
:10152000D8E7206A0088C0F308004860206A801C61
:101530002062E5E74006CDD55006CBD5CA682046E7
:1015400022F04002CA6084F8413000F016F9C1E789
:10155000BD18010870B5040004D094F841000025BE
:1015600010B106E0012070BD84F84050204600F024
:1015700023F8242084F841002068C16821F4005138
:10158000C160204600F0B0FA2068016921F4904162
:1015900001612068416921F02A0141612068C16828
:1015A00041F40051C1606564202084F8410084F852
:1015B00042006563002070BDF0B585B00024009442
:1015C0000194029403940646374F03683749022278
:1015D0000320374DBB4226D18B6943F480438B6196
:1015E0008B6903F4804304938B6943F004038B619C
:1015F0008969039001F0040104911102CDE9001200
:1016000069462846FFF70AFA2815CDE9000469461D
:1016100028460294FFF702FA002211462520FFF720
:1016200065FB25203BE0234FBB423AD1CB6943F415
:101630000033CB61CB6903F4003304938B6943F02F
:1016400004038B618969039001F004010491042172
:10165000CDE9001269462846FFF7E0F90820CDE9F8
:101660000004694628460294FFF7D8F9134D124842
:10167000C5E900048020C5E902402C616C61AC61C1
:101680002846EC61FFF790F808B1FEF709FEF56314
:101690000022114626206E62FFF728FB2620FFF766
:1016A00017FB05B0F0BD00000038014000100240FB
:1016B00000080140004400406C000240AC060020DD
:1016C00090F84230202B01D00220704721B11AB18E
:1016D0000023036300F064BA01207047704770472D
:1016E0002DE9F843044690F841001F4616460D4682
:1016F000202802D00220BDE8F8837DB176B1002019
:101700006064212084F84100FFF784FAA6848046B3
:10171000E684A068B0F5805F02D003E00120EAE72C
:10172000206910B12E4600250EE000260CE0802135
:10173000204600F07DFAA0B9AEB116F8010B216881
:101740004860E08C401EE084E08C43464FF000028D
:1017500000970028EBD14FF04001204600F068FAD6
:1017600030B10320C7E735F8020BC0F30800E6E705
:10177000202084F841000020BDE77047FEE700000C
:10178000094808B5416941F0010141614069002201
:1017900000F00100009011461020FFF7A7FABDE805
:1017A00008401020FFF794BA00100240054808B521
:1017B000816941F004018161806900F004000090BA
:1017C00008BD0000001002400C4810B50A49016035
:1017D0004FF4E1314160002181600C22C160C0E919
:1017E00004128161C161FFF7B5FE002803D0BDE896
:1017F0001040FEF755BD10BD003801401C0600200A
:101800000C4810B50A4901604FF4E13141600021F4
:1018100081600C22C160C0E904128161C161FFF7DF
:1018200099FE002803D0BDE81040FEF739BD10BD79
:101830000044004064060020FEE7FEE77047704762
:1018400008B54FF0AA300090012269460148FEF722
:10185000B3FD08BDFC3F0208FFF7E2B930B58FB019
:1018600028216846FEF7A9FC14210AA8FEF7A5FC6A
:1018700001210804CDE900100024029402250491FE
:10188000CDE907504FF4E01009906846FFF74EFB92
:1018900008B172B6FEE70F20CDE90A054FF480606B
:1018A000CDE90C4002210AA80E94FFF763FA002844
:1018B00001D072B6FEE70FB030BD704710B5406A78
:1018C0000021C185C184FFF70EFD10BD70B5446ACB
:1018D0002068406994F84110C0F3C0100025212908
:1018E00004D118B1E584204600F08EF820684069E4
:1018F00094F84210C0F38010222904D118B1E58574
:10190000204600F05AF8606C40F0100060642046F9
:10191000FFF7E9FC70BD10B50146406A0968096827
:101920004FF0000289062ED4C28501680C3151E8BF
:10193000003F23F4807341E80034002CF5D10168A6
:10194000143151E8003F23F0010341E80034002C3A
:10195000F5D10168143151E8003F23F0400341E81C
:101960000034002CF5D1202180F84210016B0129B0
:1019700009D101680C3151E8003F23F0100341E820
:101980000034002CF5D14263016B012902D0FFF72E
:10199000A5FE10BD818DFFF76DFC10BD10B5406A2E
:1019A00001214163016B012902D0FFF798FE10BDB0
:1019B000818D4908FFF75EFC10BD01680C3151E8CC
:1019C000002F22F4907241E80023002BF5D101682A
:1019D000143151E8002F22F0010241E80023002BCE
:1019E000F5D1016B012909D101680C3151E8002FB3
:1019F00022F0100241E80023002BF5D1202180F8CD
:101A0000421000210163704701680C3151E8002F3A
:101A100022F0C00241E80023002BF5D1202180F8FC
:101A20004110704708B590F84210222901D00220D9
:101A300008BD82684FF480539A4201D1016921B1F7
:101A4000816A9A421BD04AB10AE00268816A5268F0
:101A5000C2F308020A80816A891C08E0026972B137
:101A60000268526802F07F020A70816A491C816232
:101A7000C18D491E0904090CC18503D01BE0026811
:101A80005268F1E70168CA6822F02002CA60016862
:101A9000CA6822F48072CA6001684A6922F00102B1
:101AA0004A61202180F8421000214163026B012A23
:101AB00003D0FFF713FE002008BD016301680C315D
:101AC00051E8002F22F0100241E80023002BF5D14D
:101AD00001680A68D20602D50A6849680091818DBA
:101AE000FFF7C8FBE7E7000070B50446006801692E
:101AF000E26821F44051114301612169A068084363
:101B0000616908432168CA6841F20C639A43024341
:101B1000CA6020684169A26921F4407111434161A2
:101B20001E492068884202D1FFF7CAF901E0FFF799
:101B3000B7F900EBC00101EB00126068642180007E
:101B4000B2FBF0F3B3FBF1F36FF018067343B2FB93
:101B5000F0F5B2FBF0F605EB8305322303EB051538
:101B6000B5FBF1F5B6FBF1F605F0F00505EB061552
:101B7000B2FBF0F6B2FBF0F0B0FBF1F06FF0180240
:101B8000504306EB800003EB0010B0FBF1F021683E
:101B900000F00F002844886070BD0000003801404C
:101BA00038B5816204468285002013466064222293
:101BB00084F84220E56B1B4AAA62E56B1A4AEA6286
:101BC000E56B1A4A2A63E26B50630A462168E06BB0
:101BD000091DFEF727FE2068016840680090206913
:101BE00048B120680C3050E8001F41F4807140E893
:101BF0000012002AF5D12068143050E8001F41F08F
:101C0000010140E80012002AF5D12068143050E8A4
:101C1000001F41F0400140E80012002AF5D10020E9
:101C200038BD0000171901089D190108CD180108D9
:101C30002DE9F041984617460E460446069D27E0DA
:101C4000681C25D02DB1FEF7E5FFA0EB0800A842E7
:101C50001ED920680C3050E8001F21F4D07140E8F4
:101C60000012002AF5D12068143050E8001F21F03E
:101C7000010140E80012002AF5D1202084F841003B
:101C800084F84200002084F840000320BDE8F08181
:101C90002068006836EA000004D00020B842CFD0A7
:101CA0000020F3E70120F9E70148FFF71DBB000022
:101CB0001C06002038B5104C20680168C943C906CD
:101CC00014D40168406800902046FFF7D4FAE06B16
:101CD000006840680949C0F5806008800849012013
:101CE0008202087007492046FFF7EAFCBDE8384049
:101CF0000148FFF7F9BA0000640600200400002044
:101D0000030000201C020020FEE7000070B5564DC5
:101D100086B02878012806D1432000F0B9FA4FF4A4
:101D20007A70FEF7B7FD5148017800297DD0002672
:101D300006704F484F4902786A704F48FEF724FA00
:101D40004D4C207801280CD004286ED12878022828
:101D500072D0042877D049A006B0BDE8704000F0EA
:101D6000EDB869784448FEF75DFA002862D028781B
:101D700001281DD0052844D0022872D16178A878A6
:101D800081426ED1A278C943C9B28A4269D1C101E8
:101D900042A000F0D3F8A8784849202201EBC010F7
:101DA000E11CFEF709FBA878401CA870062053E050
:101DB0006078002855D1A078FF2852D140A000F0CB
:101DC000BDF8022028700120A870062000F060FAFB
:101DD000432000F05DFA394D14248035FEF70AFEE9
:101DE000CDE90254009604A968460496FEF764FD06
:101DF000FEF7B6FD06B01421BDE8704036A000F035
:101E00009DB8607800282CD1A078FF2829D138A06F
:101E100000F094F8FFF714FD01202870062000F070
:101E200037FA06B0BDE8704002E01AE004E00AE0CC
:101E3000FEF78EBF33A08FE736A000F07FF80420B6
:101E40002870152008E038A000F078F805202870E8
:101E5000062000F01DFA432006B0BDE8704000F0F7
:101E600017BA06B070BD000000000020030000207B
:101E7000040000201C0200201C0000203E205265AF
:101E8000636569766520454F542C20427574206542
:101E900072726F722E2E2E0D0A0000003E205265C7
:101EA00063656976652064617461206261673A25C3
:101EB0006420627974650D0A00000000809F0108AB
:101EC0003E20526563656976652073746172742E75
:101ED0002E2E0D0A000000003E2045726173652021
:101EE0004150503220256420706167650D0A000062
:101EF0003E205265636569766520656E642E2E2EE0
:101F00000D0A00003E204E6F74706173732063727F
:101F1000630D0A003E205265636569766520454F72
:101F200054312E2E2E0D0A003E20526563656976CF
:101F30006520454F54322E2E2E0D0A000FB4054B4E
:101F400010B503A9044A029800F028F810BC5DF807
:101F500014FB00002D210108180000200907090EBC
:101F6000002804DB00F1E02080F80014704700F046
:101F70000F0000F1E02080F8141D704702E008C84F
:101F8000121F08C1002AFAD170477047002001E0F3
:101F900001C1121F002AFBD1704700002DE9FF4F3D
:101FA00089B09B460446002506E025280BD05A46FA
:101FB0000B999047641C6D1C20780028F5D10DB05A
:101FC0002846BDE8F08F0027B8460122474900E0C7
:101FD000074314F8013F203B02FA03F00842F7D10F
:101FE00020782E2819D114F8010F47F004072A2869
:101FF0000ED06FF02F022078A0F1300109290CD803
:1020000008EB880102EB410100EB0108641CF2E7D8
:102010000A98641C50F8048B0A9020780028CED0CF
:10202000642808D0692806D075281ED05A460B9916
:1020300090476D1C58E00A994FF00A0901C90A91AE
:10204000002802DA40422D2102E0390504D52B2177
:102050008DF82010012103E0F90704D02021F7E7D3
:102060008A4608AE0DE00021FAE70A994FF00A0906
:1020700001C90A91F7E74946FEF7AAF8303106F898
:10208000011D0028F7D1ADEB060000F1200978070B
:1020900001D44FF00108C84502DDA8EB090000E0BB
:1020A00000208046002706E008A85A46C05D0B992C
:1020B00090476D1C7F1C5745F6DB04E030205A46E4
:1020C0000B9990476D1CB8F10001A8F10108F5DCEF
:1020D00005E016F8010B5A460B9990476D1CB9F1B3
:1020E0000001A9F10109F4DC641C65E7092801007D
:1020F00070B5034641F221044FF6FF7511E000BFB1
:1021000013F8010B82EA00220020160403D584EAAA
:10211000420292B201E005EA4202401C0828F4DBC8
:10212000491E0029ECDC104670BD000013B54FF6C7
:10213000FF73012269460248FFF7D2FA00981CBDDE
:102140001C0600201C491B480860FEF771FDFFF7C4
:1021500085FBFFF72BFBFFF713FBFFF735FBFFF7C3
:102160004FFB4FF4806215491548FFF7A9FA144850
:102170000068C16841F01001C16012A0FFF7DEFEE7
:1021800011A0FFF7DBFE1AA0FFF7D8FE22A0FFF791
:10219000D5FE2BA0FFF7D2FE33A0FFF7CFFE14A091
:1021A000FFF7CCFE08A0FFF7C9FE00BFFFF7AEFDAA
:1021B000FCE700000000010808ED00E01C02002020
:1021C000640600200D0A00002A2A2A2A2A2A2A2A1E
:1021D0002A2A2A2A2A2A2A2A2A2A2A2A2A2A2A2A5F
:1021E0002A2A2A2A2A2A2A2A2A2A2A0D0A0000000A
:1021F0002A202020202020202020202020202020D5
:1022000020202020202020202020202020202020CE
:1022100020202A0D0A0000002A2020202020204211
:102220002D426F6F742773204170706C6963617405
:10223000696F6E202020202020202A0D0A00000037
:102240002A20202020202020202020466F72207469
:1022500068652074657374202020202020202020B1
:1022600020202A0D0A0000002A20202020202020E3
:10227000202056657273696F6E203A2020302E310F
:10228000202020202020202020202A0D0A000000CD
:1022900001B54FF6FF73012269460348FFF720FAA4
:1022A0000A20FEF7F7FA08BD6406002001020203C7
:1022B0000405060708090A0B0C0D0E0F101000008C
:1022C00000000000000001020304060708090000E6
:1022D0000000010203040000F822010800000020B1
:1022E0001C0000007C1F0108142301081C000020B2
:1022F000F40A00008C1F010801000000000000002B
:102300000100000010000000000000000024F400A4
:0423100000000000C9
:0400000508010131BC
:00000001FF
