:020000040800F2
:10000000880600204D010008F5150008EB130008D4
:100010008D1400089B0200083D1B00080000000032
:1000200000000000000000000000000011160008A1
:100030009D02000800000000F71500087D18000868
:1000400067010008670100086701000867010008F0
:1000500067010008670100086701000867010008E0
:1000600067010008670100086701000867010008D0
:1000700067010008670100086701000867010008C0
:1000800067010008670100086701000867010008B0
:1000900067010008670100086701000867010008A0
:1000A0006701000867010008670100086701000890
:1000B0006701000867010008670100086701000880
:1000C0006701000867010008670100086701000870
:1000D00067010008311B000867010008670100087C
:1000E0006701000867010008670100086701000850
:1000F0006701000867010008670100086701000840
:10010000670100086701000867010008670100082F
:10011000670100086701000867010008670100081F
:10012000670100086701000867010008670100080F
:10013000DFF80CD000F090F800480047C91E000816
:100140008806002080F30888704700000648804732
:1001500006480047FEE7FEE7FEE7FEE7FEE7FEE7AC
:10016000FEE7FEE7FEE7FEE7DD18000831010008C4
:10017000202A04DB203A21FA02F00021704721FAFC
:1001800002F3D040C2F12002914008431946704763
:1001900040EA01039B0703D009E008C9121F08C009
:1001A000042AFAD203E011F8013B00F8013B521E89
:1001B000F9D27047D2B201E000F8012B491EFBD200
:1001C00070470022F6E710B513460A460446194662
:1001D000FFF7F0FF204610BD10B54843044601F07C
:1001E00099FE002805D00021002C02D0641E015584
:1001F000FAE710BD2DE9F05F0546002092469B46C8
:1002000088460646814640241BE02846414647462C
:100210002246FFF7ADFF53465A46C01A914110D30C
:1002200011461846224600F029F82D1A67EB0108FE
:100230004F4622460120002100F020F817EB00096C
:100240004E41201EA4F10104DFDC484631462A4617
:100250004346BDE8F09F0000064C074D06E0E0680D
:1002600040F0010394E8070098471034AC42F6D3FD
:10027000FFF762FFAC1F0008CC1F0008202A04DB38
:10028000203A00FA02F1002070479140C2F12003A9
:1002900020FA03F3194390407047FEE7704772B6A7
:1002A000FEE7000006490020C8610648016941F0E8
:1002B00004010161016941F04001016170470000E2
:1002C0006800002000200240064A0021D161064952
:1002D0000A6942F002020A614861086940F0400080
:1002E000086170476800002000200240044B002293
:1002F000DA61044A136943F0010313610180704716
:10030000680000200020024014490020CA68D3067B
:10031000134A04D5D06940F00200D0611020CB68A8
:100320005B0705D5D36943F00103D36140F00400B6
:10033000CB69DB0707D0D36943F00403D361CA69F3
:1003400022F00102CA61A0F58072013A01D0C860B2
:100350007047C86920F00100C86170470020024062
:100360006800002070B5044600F0BAFA0546114E48
:1003700009E0601C07D024B100F0B2FA401BA04293
:1003800001D9032070BDF068C007F2D1F068800683
:1003900001D52020F060F068C00605D4F069C007E0
:1003A00002D1F068400703D5FFF7AEFF012070BD12
:1003B000002070BD0020024030B585B00D460446D7
:1003C00000F082F9002202940092CDE9035204A9C0
:1003D000684600F0D9F800F02BF905B0002030BDD8
:1003E0000B46014692001846FFF7D2BE10B590F8B2
:1003F00021100022022905D00421816380F82020E9
:10040000012010BD01680B6823F00E030B6001682A
:100410000B6823F001030B6090F84030012404FACC
:1004200003F1C36B596080F8214080F8202010460A
:1004300010BD00002DE9F05F90F821100024022982
:1004400003D004218163012485E001680A6822F059
:100450000E020A6001680A6822F001020A603F4E3B
:100460003E4FB215DFF8F4C0DFF8F090DFF8ECA0F3
:10047000DFF8E8B0DFF8E4E00168783F1301150227
:10048000ACF1640CA9F15009AAF13C0AABF1280BBC
:10049000AEF1140E4FF48018B14227D9B9420ED0F4
:1004A000614512D049451DD0514518D0594518D045
:1004B000714501D1424615E0294EB14201D10122D8
:1004C00010E0274E1436B14201D110220AE0244E2A
:1004D0002836B14206D0224A3C32914201D11A4616
:1004E00000E02A461E49091F0A602BE0B94213D0DA
:1004F000614517D0494522D051451DD059451DD0E1
:10050000714501D142461AE0B14202D14FF08072EA
:1005100015E0134EB14201D1012210E0104E143605
:10052000B14201D110220AE00D4E2836B14206D068
:100530000B4A3C32914201D11A4600E02A46074953
:1005400080394A60012180F82110002180F82010B4
:10055000416B01B188472046BDE8F09F8000024012
:100560000804024070B5044600F0BAF90546601C64
:1005700002D004480078044400F0B2F9401BA042C5
:10058000FAD370BD000000202DE9F047054626484B
:100590000F460126017E01290FD0012181460176F7
:1005A0002868DFF888804CF25034022808D0A24630
:1005B0002046FFF7D7FEA8B131E00220BDE8F08762
:1005C0002046FFF7CFFE08BB0120FFF76BFE204659
:1005D000FFF7C8FED8F81010064621F00401C8F84D
:1005E00010101CE04FF0FF303860AC6811E020467E
:1005F000FFF76AFE5046FFF7B5FED8F81010060068
:1006000021F00201C8F8101001D03C6007E004F5A9
:100610000064D5E9020100EBC120A042E7D8002127
:1006200089F818103046C9E7680000200020024011
:100630000348016941F0800101610020704700001A
:10064000002002402DE9F05F05461D488846002441
:10065000017E16461F46012909D0012181460176F7
:100660004CF2503A5046FFF77DFE18B123E00220CD
:10067000BDE8F09F012D02D0022D00D00425D34605
:10068000DFF840A015E0220130463946FFF770FD43
:1006900081B208EB4400FFF729FE5846FFF762FEDF
:1006A000DAF8102022F00102CAF8102018B9641CF0
:1006B000E4B2AC42E7D3002289F81820D8E7000062
:1006C0006800002000200240064900200A69120646
:1006D00007D5054A4A60054A4A600969090600D5F6
:1006E000012070470020024023016745AB89EFCD10
:1006F0002DE9F84FDFF8C0910024A9F1040B23463F
:100700004FF00F0809F1040AABF1040ECCE0012709
:10071000A7403A40BA4272D1DFF8A0C14D68A5EBBC
:100720000C0665452BD00DDC032D34D005DC35B32C
:10073000012D19D0022D2FD11BE0112D16D0122D15
:100740002AD119E0B6F5881F19D006DCB6F5803F2E
:1007500015D0B6F5801F1FD111E0B6F5001F0ED0E1
:10076000B6F5041F18D10AE0CB6815E0CB681B1D55
:1007700012E0CB6808330FE0CB680C330CE08B68D9
:100780002BB1012B4FF0080303D0476104E0042391
:1007900002E0076100E00023FF2A01D8064601E0DD
:1007A00000F104064FEA840501D9A5F12005376858
:1007B00008FA05FC27EA0C0703FA05F547EA0507DE
:1007C00037604D68ED006ED53D4DAE6946F00106CF
:1007D000AE61AD6924F0030605F001050095394DC1
:1007E0007719BE68A5072D0F08FA05FC26EA0C0646
:1007F000DFF8D4C0604503D14FF0000C25E052E093
:10080000DFF8C8C0604502D14FF0010C1DE0DFF8F1
:10081000C0C0604502D14FF0020C16E0DFF8B4C052
:10082000604502D14FF0030C0FE0DFF8ACC060452B
:1008300002D14FF0040C08E0DFF8A0C0604502D1FF
:100840004FF0050C01E04FF0060C0CFA05FC4CEAE9
:10085000060CC7F808C04D68D9F80060ED024D4697
:1008600001D5164300E096432E604D68DAF800602B
:10087000AD02554601D5164300E096432E604D6803
:10088000DBF80060AD035D4601D5164300E09643FA
:100890002E604D68DEF80060ED03754601D5164305
:1008A00000E096432E60641C0A6832FA04F57FF477
:1008B0002EAFBDE8F88F00000804014000001110C1
:1008C000001002400000014000080140000C0140FF
:1008D000001001400014014000180140001C0140BC
:1008E00001488068704700000000002002488168CD
:1008F000027811448160704700000020074810B55D
:10090000016841F010010160032000F075F80F202C
:1009100000F006F800F024F8002010BD002002408E
:1009200070B50D4D04464FF47A712878B1FBF0F0A4
:100930000A490968B1FBF0F000F04AFB48B9102CF5
:1009400007D200222146501E00F036F800206C60CD
:1009500070BD012070BD0000000000200C000020D0
:100960000C4808B5816941F001018161816901F09C
:1009700001010091C16941F08051C161C06906491E
:1009800000F080500090486820F0E06040F0007077
:10099000486008BD0010024000000140002809DB4B
:1009A00000F01F02012191404009800000F1E02089
:1009B000C0F8001170470000F0B40E4B1B68C3F381
:1009C0000223C3F10704042C00D904241D1D072DA4
:1009D00001D2002300E0DB1E012606FA04F56D1E9D
:1009E0000D409D409E40761E164045EA0601F0BC33
:1009F00001F0B6B80CED00E0064A00F007011068FF
:100A00004FF6FF03184040EA0120034908431060F5
:100A1000704700000CED00E00000FA052DE9F047FA
:100A20000D46040067D0DFF81881D8F8000000F008
:100A30000700A8420CD2D8F8001021F00701294382
:100A4000C8F80010D8F8000000F00700A84252D102
:100A500020683C4E810712D5400703D5706840F4EA
:100A6000E06070602078000703D5706840F4605043
:100A700070607068A16820F0F00008437060207812
:100A8000C00727D06068012810D03168022810D034
:100A9000890700292FDA716821F003010143716091
:100AA000FFF71EFF074641F288390CE031688903E1
:100AB000EFE78901EDE7FFF713FFC11B494502D9B5
:100AC0000320BDE8F0877068616800F00C00B0EBAF
:100AD000810FF0D1D8F80010404601F00701A9427B
:100AE0000BD9016821F0070129430160006800F07B
:100AF0000700A84201D00120E3E72078400705D590
:100B00007068E16820F4E0600843706020780007B6
:100B100006D57068216920F4605040EAC100706019
:100B200000F0A4F87168084AC1F30311515CC84091
:100B30000649086006480068FFF7F2FE0020C0E79B
:100B40000020024000100240921F00080C0000200C
:100B5000040000202DE9F041FFF7C2FE2F4D0446AE
:100B6000286840F00100286004E0FFF7B9FE001B90
:100B7000022842D828688007F7D5286820F0F800B6
:100B800040F080002860FFF7ABFE002604466E6050
:100B900041F2883704E0FFF7A3FE001BB8422CD8CF
:100BA000686810F00C0FF6D11E491D4808601E48F9
:100BB0000068FFF7B5FE10B10120BDE8F081FFF736
:100BC0008FFE0446286820F08070286004E0FFF75C
:100BD00087FE001B022810D828688001F7D46E60B9
:100BE000FFF77EFE0446286820F41020286006E007
:100BF000FFF776FE001B642801D90320DDE7286893
:100C00008003F5D4286820F480202860686A40F0CA
:100C100080706862AE600020CFE7000000100240E4
:100C200000127A000C00002004000020044805494E
:100C300000684968044AC1F30221515CC84070470A
:100C40000C00002000100240A21F000804480549C3
:100C500000684968044AC1F3C221515CC84070472A
:100C60000C00002000100240A21F00080E4B596823
:100C70000E4801F00C02042A11D0082A0FD10C48AA
:100C8000C1F38342C903805C0AD55968084AC1F39D
:100C90004041921E515C054A5043B0FBF1F0704751
:100CA00004494843704700000010024000127A00D7
:100CB000821F000800093D002DE9F84F04006FD0A5
:100CC0002078BE4DC00747D06868C0F38100012876
:100CD00007D06868C0F38100022809D16868C003A2
:100CE00006D52868800337D560680028E7D033E050
:100CF0006068B0F5803F0BD010B1B0F5A02F11D0D7
:100D0000286820F480302860286820F4802002E0E1
:100D1000286840F480302860606888B1FFF7E0FD03
:100D2000064609E0286840F480202860F0E7FFF7D5
:100D3000D7FD801B642873D828688003F7D50BE0A3
:100D4000FFF7CEFD064604E0FFF7CAFD801B6428CE
:100D5000F1D828688003F7D42078DFF86482800710
:100D60004FF0010A4FF0000939D5686810F00C0FF8
:100D700007D06868C0F38100022809D16868C00301
:100D800006D42868800714D52069012808D110E00E
:100D90002069B0B1C8F800A0FFF7A2FD064605E043
:100DA00007E1FFF79DFD801B0228C4D82868800753
:100DB000F7D52868616920F0F80040EAC100286092
:100DC0000DE0C8F80090FFF78BFD064604E0FFF742
:100DD00087FD801B022823D828688007F7D4207855
:100DE00000072CD57748A169D9B1C0F800A0FFF75A
:100DF00077FD064604E0FFF773FD801B02280FD83D
:100E0000686A8007F7D570484FF4FA510068B0FB64
:100E1000F1F0009000BF0098411E0091FAD20EE060
:100E20007CE0C0F80090FFF75BFD064604E0FFF7AA
:100E300057FD801B022871D8686A8007F7D4207894
:100E400040075BD5E8690027C00008D4E86940F096
:100E50008050E861E869012700F0805000905B480D
:100E60000168C90511D40168834641F480710160AD
:100E7000FFF736FD064604E0FFF732FD801B6428CD
:100E80004CD8DBF80000C005F6D5E06801280AD090
:100E900008B1052813D0286A20F001002862286ACA
:100EA00020F0040002E0286A40F001002862E068B7
:100EB00041F2883B88B1FFF713FD064609E0286A36
:100EC00040F004002862EEE7FFF70AFD811B594558
:100ED0005BD8286A8007F7D50BE0FFF701FD0646CF
:100EE00004E0FFF7FDFC811B59454ED8286A8007B6
:100EF000F7D41FB1E86920F08050E861E069A8B339
:100F00006968C1F38101022946D00228484606D00B
:100F1000C8F86000FFF7E4FC044639E035E04746D6
:100F2000C8F86000FFF7DCFC064604E0FFF7D8FCD9
:100F3000801B022829D828688001F7D4206AB0F5E0
:100F4000803F05D16868A16820F4003008436860DC
:100F5000D4E908010843696821F474110843686002
:100F6000C7F860A0FFF7BCFC044605E023E0FFF7EC
:100F7000B7FC001B022808D828688001F7D51AE0C2
:100F8000FFF7AEFC001B022802D90320BDE8F88F52
:100F900028688001F4D40EE00128F7D06868226A3E
:100FA00000F48031914204D1616A00F470108842EB
:100FB00001D00120EAE70020E8E70000001002402D
:100FC00000004242800442420C00002000700040B9
:100FD00010B5401EB0F1807F01D3012010BD4FF04D
:100FE000E02460610F21601700F0BAFD0020A061CD
:100FF00007202061002010BD70477047F8B50168D8
:1010000004460868CA684B6910F00F0F4FF00005DE
:1010100059D003F0010602F49077374365D0C10739
:1010200005D0D10503D5616C41F001016164410730
:1010300005D5D90703D0616C41F0020161648107D5
:1010400005D5D90703D0616C41F004016164010743
:1010500007D502F02001314303D0616C41F0080153
:101060006164616C00293AD0800604D5900602D5EF
:10107000204600F063FC20684069616CC0F380107A
:10108000090700D460B3204600F031FC20684069B5
:10109000400621D52068143050E8001F21F040019F
:1010A00040E80012002AF5D1E06BA8B16D49416318
:1010B000E06BFFF7BFF9002811D0E06B416B01B086
:1010C000BDE8F040084783060FD593060DD52046AE
:1010D000BDE8F84000F032BC2046FFF78EFFF8BDB7
:1010E0002046FFF78AFF6564F8BD266B2023012E9A
:1010F0007CD1C6067AD5D60678D5086848680090AF
:1011000048694FF00206400640D5E16B0868406828
:101110000004000CE8D0A28D8242E5D9E085886900
:1011200020282DD020680C3050E8001F21F4807159
:1011300040E80012002AF5D12068143050E8001F62
:1011400021F0010140E80012002AF5D12068143096
:1011500050E8001F21F0400140E80012002AF5D1BC
:1011600084F84230256320680C3050E8001F21F0DD
:10117000100140E80012002AF5D1E06BFFF736F9C4
:101180006663A08DE18D401A81B22AE0A08DE18DC9
:10119000401A81B2E08D0028A6D00029A4D0206892
:1011A0000C3050E8002F22F4907240E80027002F06
:1011B000F5D12068143050E8002F22F0010240E8F9
:1011C0000027002FF5D184F84230256320680C30C9
:1011D00050E8002F22F0100240E80023002BF5D148
:1011E00066632046FFF708FFF8BDFFE705062BD52D
:1011F000150629D594F841002128F5D1A068B0F54D
:10120000805F01D12069B0B1206A411C2162216850
:1012100000784860E08C401E0004000CE084E3D1BC
:101220002068C16821F08001C1602068C16841F078
:101230004001C160D8E7206A0088C0F30800486018
:10124000206A801C2062E5E74006CDD55006CBD54C
:10125000CA68204622F04002CA6084F8413000F09B
:10126000C3F8C1E7DF18000870B5040004D094F893
:101270004100002510B106E0012070BD84F8405007
:10128000204600F023F8242084F841002068C1683B
:1012900021F40051C160204600F0B2FB20680169D2
:1012A00021F4904101612068416921F02A014161E6
:1012B0002068C16841F40051C1606564202084F851
:1012C000410084F842006563002070BD30B585B0F0
:1012D0000024009401940294039400681849884201
:1012E0002CD11848816941F480418161816901F400
:1012F00080410491816941F0040181618069124D4E
:1013000000F0040004904FF400700090022001905F
:101310000320039069462846FFF7EAF92815CDE92E
:101320000004694628460294FFF7E2F900221146BC
:101330002520FFF741FB2520FFF730FB05B030BD2E
:1013400000380140001002400008014070472DE9BC
:10135000F843044690F841001F4615460E462028E3
:1013600002D00220BDE8F8837EB175B10020606430
:10137000212084F84100FFF7B3FAA5848046E58474
:10138000A068B0F5805F02D003E00120EAE72069A1
:1013900010B1354600260EE000250CE080212046E5
:1013A00000F08AFBA0B9ADB115F8010B21684860C7
:1013B000E08C401EE084E08C43464FF00002009732
:1013C0000028EBD14FF04001204600F075FB30B112
:1013D0000320C7E736F8020BC0F30800E6E7202039
:1013E00084F841000020BDE77047FEE710B50168B2
:1013F000104A1140B1F1005F1BD144680068FEF74C
:10140000A1FE0020421E810001F1E021C1F88021EF
:10141000C1F88022401C0828F5DBFFF79BFB4FF04A
:10142000E0200021016141618161A446BDE81040D6
:10143000604710BD0000FE2F054808B5816941F0E6
:1014400004018161806900F00400009008BD000083
:10145000001002400C4810B50A4901604FF4E13118
:101460004160002181600C22C160C0E904128161E9
:10147000C161FFF7F9FE002803D0BDE81040FEF778
:101480000EBF10BD003801401C000020FEE7000028
:101490002DE9F84F834691468A4627A000F050FB7D
:1014A0004FEAD920014600905046FEF785FF2AA05A
:1014B00000F046FB4FF4807631460020FEF78CFEAC
:1014C00007462DA000F03CFB002520E00BEB85201B
:1014D00032463946FEF784FF0AEB8528FFF7F4F819
:1014E000002408EB840157F8242000230220FFF792
:1014F000A9F8641CB442F4D3FFF79AF83146384691
:10150000FEF75FFE691C22A000F01AFB6D1CB5EB14
:10151000992FDBD3384600F0AFFC21A000F010FB80
:1015200024A000F00DFB58460099FEF745FFBDE8EA
:10153000F84F28A000F004BB3E2053746172742061
:1015400065726173652064657320666C6173682ED3
:101550002E2E2E2E2E0D0A003E2045726173652020
:1015600064657320666C61736820646F776E2E2EDD
:101570002E2E2E2E0D0A00003E2053746172742010
:10158000636F70792E2E2E2E2E2E0D0A0000000075
:10159000436F70792025644B42206E6F770D0A00EF
:1015A0003E20436F707920646F776E2E2E2E2E2E84
:1015B0002E0D0A003E2053746172742065726173AF
:1015C000652073726320666C6173682E2E2E2E2E3A
:1015D0002E0D0A003E2045726173652073726320F0
:1015E000666C61736820646F776E2E2E2E2E2E2E01
:1015F0000D0A0000FEE7704708B5002000900122A8
:1016000069460248FEF7ECFE009808BDFCEF0308AF
:101610007047000070B52AA000F092FA29A22CA110
:101620002EA000F08DFA31A131A000F089FA36A089
:1016300000F086FA3E4A4FF000613EA000F080FACA
:101640003B4C454A641C214644A000F079FA424DC7
:101650004B4A6D1C29464BA000F072FA18A000F00E
:101660006FFA51A000F06CFAFFF7C6FFB0F1AA3F85
:1016700011D0B0F1FF3F0CD05449C84201D154A061
:1016800013E0FFF7B9FFBDE8704001465AA000F033
:1016900057BA5FA009E064A000F052FA4FF4D832C4
:1016A00021462846FFF7F4FE65A000F049FA6AA03B
:1016B00000F046FA2046BDE87040FFF797BE0000F4
:1016C0000D0A000031393A35363A31380000000051
:1016D000536570203138203230323300422D426F52
:1016E0006F742025732025730D0A0000302E320000
:1016F000426F6F746C6F61646572205665727369B6
:101700006F6E2025730D0A004D43553A2053544DFA
:10171000333246313033564354362052756E6E693B
:101720006E672061742037324D487A0D0A00000040
:10173000FF8F0008426F6F746C6F616465722041A7
:101740007265612066726F6D20252378202D20251B
:1017500023780D0A00000000FF3F02084170706C02
:1017600069636174696F6E5F3120417265612066E3
:10177000726F6D20252378202D202523780D0A00F7
:10178000FFEF03084170706C69636174696F6E5F8D
:101790003220417265612066726F6D2025237820AA
:1017A0002D202523780D0A003D3E2043686F6F737E
:1017B0006520612073746172747570206D65746842
:1017C0006F642E2E2E2E2E2E0D0A00005655AAAA1C
:1017D0003D3E20526573746F726520746F206661A0
:1017E00063746F72792070726F6772616D2E2E2E26
:1017F0002E2E2E0D0A0000003D3E204572726F72A3
:101800003A25582121212E2E2E2E2E2E0D0A000093
:101810003D3E204E6F726D616C2073746172742E48
:101820002E2E2E2E2E0D0A003D3E20537461727412
:10183000207570646174652E2E2E2E2E2E0D0A00DA
:101840003D3E2055706461746520646F776E2E2E66
:101850002E2E2E2E0D0A00003D3E20537461727410
:10186000204170706C69636174696F6E5F312E2EF8
:101870002E2E2E2E0D0A0D0A00000000FFF736B89E
:1018800030B58FB028216846FEF79BFC14210AA8CA
:10189000FEF797FC0120010400248DE8130004905A
:1018A0004FF4E010CDE90810022507956846FFF7D0
:1018B00003FA08B172B6FEE70F20CDE90A054FF42E
:1018C0008060CDE90C4002210AA80E94FFF7A6F82B
:1018D000002801D072B6FEE70FB030BD704710B5DA
:1018E000406A0021C185C184FFF787FB10BD0168F4
:1018F0000C3151E8002F22F4907241E80023002BB4
:10190000F5D10168143151E8002F22F0010241E8BD
:101910000023002BF5D1016B012909D101680C319D
:1019200051E8002F22F0100241E80023002BF5D1EE
:10193000202180F8421000210163704708B590F81B
:101940004210222901D0022008BD81684FF4805343
:10195000994201D1026922B1826A99421BD049B1F0
:101960000AE00268816A5268C2F308020A80816A4A
:10197000891C08E0016971B10168496801F07F01C3
:101980001170816A491C8162C18D491E0904090CCC
:10199000C18503D01BE001684968F1E70168CA68A6
:1019A00022F02002CA600168CA6822F48072CA600C
:1019B00001684A6922F001024A61202180F8421040
:1019C00000214163026B012A03D0FFF7BFFC002016
:1019D00008BD016301680C3151E8002F22F01002AC
:1019E00041E80023002BF5D101680A68D20602D530
:1019F0000A6849680091818DFFF7FEFAE7E7000069
:101A000070B5044600680169E26821F44051114351
:101A10000161A16820690143606901432068C268CF
:101A200041F20C639A430A43C26020684169A2698B
:101A300021F44071114341611E492068884202D15E
:101A4000FFF704F901E0FFF7F1F800EBC00101EB4B
:101A50000011606864228000B1FBF0F3B3FBF2F385
:101A60006FF018067343B1FBF0F5B1FBF0F605EB30
:101A70008305322303EB0515B5FBF2F5B6FBF2F651
:101A800005F0F00505EB0615B1FBF0F6B1FBF0F043
:101A9000B0FBF2F06FF01801484306EB800003EB57
:101AA0000010B0FBF2F0216800F00F0028448860BD
:101AB00070BD0000003801402DE9F0411E46174678
:101AC00088460446069D26E0681C24D025B1FEF712
:101AD00007FF801BA8421ED920680C3050E8001F69
:101AE00021F4D07140E80012002AF5D120681430AA
:101AF00050E8001F21F0010140E80012002AF5D152
:101B0000202084F8410084F84200002084F840003E
:101B10000320BDE8F0812068016838EA010004D0A4
:101B20000020B842D0D00020F3E70120F9E7000000
:101B30000148FFF763BA00001C000020FEE7000028
:101B40000FB4054B10B503A9044A029800F028F819
:101B500010BC5DF814FB0000611E0008100000209E
:101B60000907090E002804DB00F1E02080F80014CA
:101B7000704700F00F0000F1E02080F8141D70475E
:101B800002E008C8121F08C1002AFAD17047704746
:101B9000002001E001C1121F002AFBD170470000A4
:101BA0002DE9FF4F8DB09B460F460446002606E008
:101BB00025280BD05A460F999047641C761C207834
:101BC0000028F5D111B03046BDE8F08F0025A846B9
:101BD0000122984900E0054314F8013F203B02FA36
:101BE00003F00842F7D120782E2817D114F8010FFE
:101BF00045F004052A280ED06FF02F022078A0F1BE
:101C0000300109290AD808EB880102EB410100EBF9
:101C10000108641CF2E757F8048B641C20786C28D8
:101C20000DD004DC4C2812D06A2811D104E07428AD
:101C30000DD07A280CD10AE045F4001507E0617850
:101C400045F48015814202D1641C05F58015641CA1
:101C50002278692A45D008DC002AB3D0582A69D0F6
:101C6000632A10D0642A08D13BE0702A67D0732A17
:101C700013D0752A5CD0782A5CD010465A460F994A
:101C80009047761CD3E017F8040B8DF80000002075
:101C90008DF80100E946012003E057F8049B4FF05E
:101CA000FF3069074FF0000501D40AE06D1C45457F
:101CB0000DDA8542FADB19F805100029F6D106E0A5
:101CC0006D1C8542FCDB19F805100029F8D12E4463
:101CD00004E019F8010B5A460F9990476D1EF8D28F
:101CE000A5E00A200021CDE90801C5F30250022831
:101CF0000DD001CFC117031E71F100030DDA4FF0B3
:101D0000000CD0EB0C006CEB01012D2308E0FF1D53
:101D100027F00707F7E80201EDE72B0504D52B2391
:101D20008DF8283001233BE0EB0739D02023F7E77B
:101D30000A2000E010200021CDE9080107E0102072
:101D4000002145F00405CDE908014FF00808C5F36E
:101D5000025002280FD001CF00214FF0000A2B07BC
:101D60001FD5702A0DD0DDE908C38CF0100C5CEA99
:101D7000030C0CD015E0FF1D27F00707F7E8020160
:101D8000EBE740228DF828204FF0010A0BE050EAE3
:101D9000010306D030238DF828308DF82920022346
:101DA0009A46582A04D024A20DF120090B9209E08A
:101DB00026A2F9E7DDE90823FEF71CFA0B9B9B5CE2
:101DC00009F8013D50EA0102F4D1ADEB09002030E1
:101DD0000890680701D44FF001080899884502DD92
:101DE000A8EB010000E000208046002506E00AA8DC
:101DF0005A46405D0F9990476D1C761C5545F6DBA1
:101E000004E030205A460F999047761CB8F1000143
:101E1000A8F10108F5DC05E019F8010B5A460F9905
:101E20009047761C0899481E08900029F4DC641C31
:101E3000C5E6000009280100303132333435363729
:101E40003839616263646566000000003031323306
:101E500034353637383941424344454600000000A6
:101E600013B54FF6FF73012269460248FFF76FFA78
:101E700000981CBD1C00002010B5002821D0114B7B
:101E80000022001F196803E0814203D80A4649680E
:101E90000029F9D152B11368841A9C4204D1006818
:101EA00018441060104602E0506000E0186039B13C
:101EB00002680B1A934203D10B681A440260496806
:101EC000416010BD14000020FEF718FDFFF7D8FC9C
:101ED000FFF7B2FAFFF7BEFAFFF79CFB05A0FFF78A
:101EE0002FFE4FF47A740AA0FFF72AFE2046FEF771
:101EF00039FBF8E7426F6F74204572726F72204EA3
:101F00006F204170706C69636174696F6E0D0A00B7
:101F10002E000000F0B50B30154D20F00701002415
:101F2000144A0FE003688B420BD38B4205D95E1A2B
:101F300043184768C3E9006700E04368136002C0C4
:101F400004E0021D10680028ECD12046002802D1D0
:101F5000286808B10020F0BD064A07481060074A0B
:101F6000121A22F00702C0E9002401202860D7E7F6
:101F700018000020140000208C000020880200209F
:101F8000010202030405060708090A0B0C0D0E0FD7
:101F9000101000000000000000000102030406070A
:101FA000080900000000010203040000CC1F000823
:101FB000000000201C000000801B0008E81F000833
:101FC0001C0000206C060000901B000801000000AF
:101FD00010000000000000000024F40000000000D9
:081FE0000000000000000000F9
:0400000508000131BD
:00000001FF
